:020000040000FA
:0400000007EF00F016
:0A0008007A8212ED0DF0C2EF11F044
:10100000003738392F3435362A3132332D23303DED
:051010002B2569000022
:101016002D50800B366E2D502D24386E2CAE16EFCB
:1010260008F018EF08F019EF08F038803850D8B4F7
:101036001FEF08F021EF08F036EF08F03828D8A4A3
:1010460027EF08F029EF08F031EF08F0000E2A6EBE
:10105600000E2B6E000E2C6E000E2D6E2C8E000ECA
:101066002D6E3EEF08F0000E2A6E000E2B6E000E5F
:101076002C6E000E2D6E3150800B376E36503718A1
:10108600D8B448EF08F04AEF08F04BEF08F0368C7A
:1010960031503124376E30AE53EF08F055EF08F07B
:1010A60056EF08F037803750D8B45CEF08F05EEFA3
:1010B60008F073EF08F03728D8A464EF08F066EF5D
:1010C60008F06EEF08F0000E2E6E000E2F6E000E6A
:1010D600306E000E316E308E000E316E7BEF08F0F2
:1010E600000E2E6E000E2F6E000E306E000E316E4C
:1010F6003850375CD8B082EF08F084EF08F0ABEFD9
:1011060008F036AC89EF08F08BEF08F08DEF08F0A9
:10111600800E361A38C039F037C038F039C037F08B
:101126002AC039F02EC02AF039C02EF02BC039F073
:101136002FC02BF039C02FF02CC039F030C02CF066
:1011460039C030F02DC039F031C02DF039C031F042
:10115600000E396E385037C032F0336A325E000EF8
:10116600335A33BEC0EF08F0335009E11A0E325C31
:10117600D8A0C0EF08F0C2EF08F0F9EF08F02A5047
:101186002B102C102D10D8A4CBEF08F0CEEF08F0C2
:10119600010ECFEF08F0000E396E000E2A6E000E1B
:1011A6002B6E000E2C6E000E2D6E37C038F002EF3F
:1011B60009F039A0E1EF08F0E3EF08F0E9EF08F0F5
:1011C600D89039300109396EEBEF08F0D8903932F2
:1011D6002AA0F0EF08F0F2EF08F0F3EF08F0398EEE
:1011E6002D342D322C322B322A32382A3750385CA5
:1011F600D8A000EF09F002EF09F0DCEF08F036BCEA
:1012060007EF09F009EF09F049EF09F03850D8A4C3
:101216000FEF09F011EF09F01BEF09F0000E2A6E2F
:10122600000E2B6E000E2C6E000E2D6E6AEF0AF06D
:101236002E502A262F502B2230502C2231502D2270
:101246002DA028EF09F02AEF09F0D6EF09F039A012
:101256002FEF09F031EF09F037EF09F0D890393068
:101266000109396E39EF09F0D89039322AA03EEFDC
:1012760009F040EF09F041EF09F0398E2D342D3297
:101286002C322B322A32382AD6EF09F02E502A5C1D
:101296002F502B5830502C582D50800A326E31501A
:1012A600800A3258D8B05AEF09F05CEF09F087EFA0
:1012B60009F02A502E5C326E2B502F58336E2C506C
:1012C6003058346E2D503158356EFF0E32242A6E4A
:1012D600FF0E33202B6EFF0E34202C6EFF0E3520B2
:1012E6002D6E800E361A396C3950D8A47DEF09F070
:1012F6007FEF09F08FEF09F0010E2A26000E2B2250
:101306002C222D228FEF09F02E502A5E2F502B5AB9
:1013160030502C5A31502D5A2A502B102C102D108B
:10132600D8A498EF09F09AEF09F0CFEF09F03950F9
:10133600D8A4A0EF09F0A2EF09F0CFEF09F0000E54
:101346002A6E000E2B6E000E2C6E000E2D6E6AEFAE
:101356000AF0D8902A362B362C362D3639AEB6EF13
:1013660009F0B8EF09F0B9EF09F02A8039A0BEEF0D
:1013760009F0C0EF09F0C4EF09F0D8803936C6EF9E
:1013860009F0D89039363850D8B4CCEF09F0CEEF02
:1013960009F0CFEF09F038062CAED4EF09F0D6EFFE
:1013A60009F0ACEF09F0000E376E39AEDDEF09F04B
:1013B600DFEF09F0F7EF09F039C032F07F0E321691
:1013C600D8B4E8EF09F0EAEF09F0EEEF09F0010E04
:1013D600376EF7EF09F02AA0F3EF09F0F5EF09F001
:1013E600F7EF09F0EAEF09F03750D8B4FDEF09F04E
:1013F600FFEF09F02AEF0AF0010E2A26000E2B2233
:101406002C222D222DA00AEF0AF00CEF0AF02AEF6B
:101416000AF02AC032F02BC033F02CC034F02DC0B5
:1014260035F03534353234323332323232C02AF086
:1014360033C02BF034C02CF035C02DF03828D8B48A
:1014460027EF0AF029EF0AF02AEF0AF0382A38289F
:10145600D8B430EF0AF032EF0AF03AEF0AF038501B
:10146600D8A438EF0AF03AEF0AF04CEF0AF0000E73
:101476002A6E000E2B6E000E2C6E000E2D6E38504E
:10148600D8A448EF0AF04AEF0AF04CEF0AF0000E33
:10149600366E38A051EF0AF053EF0AF056EF0AF015
:1014A6002C8E57EF0AF02C9ED89038302D6E36AE23
:1014B6005FEF0AF061EF0AF062EF0AF02D8E2AC0A4
:1014C6002AF02BC02BF02CC02CF02DC02DF01200D2
:1014D6001450800B216E14501424286E13AE76EF30
:1014E6000AF078EF0AF079EF0AF028802850D8B48D
:1014F6007FEF0AF081EF0AF096EF0AF02828D8A4C9
:1015060087EF0AF089EF0AF091EF0AF0000E116EEC
:10151600000E126E000E136E000E146E138E000E69
:10152600146E9EEF0AF0000E116E000E126E000E83
:10153600136E000E146E1850800B211A18501824C2
:10154600296E17AEA9EF0AF0ABEF0AF0ACEF0AF07E
:1015560029802950D8B4B2EF0AF0B4EF0AF0C9EFE7
:101566000AF02928D8A4BAEF0AF0BCEF0AF0C4EFB3
:101576000AF0000E156E000E166E000E176E000EA7
:10158600186E178E000E186ED1EF0AF0000E156E4B
:10159600000E166E000E176E000E186E1550161001
:1015A60017101810D8A4DAEF0AF0DCEF0AF0F4EFFF
:1015B6000AF0000E116E000E126E000E136E000E73
:1015C600146E800E13127F0E14122150141211C0C5
:1015D60011F012C012F013C013F014C014F037EF5C
:1015E6000CF02850D8A4FAEF0AF0FCEF0AF006EF48
:1015F6000BF0000E116E000E126E000E136E000E32
:10160600146E37EF0CF0295028C019F01A6A195ECB
:10161600000E1A5A7F0E1924226E000E1A20236E0F
:1016260011C01DF012C01EF013C01FF014C020F030
:10163600000E116E000E126E000E136E000E146E6A
:10164600000E246E000E256E000E266E000E276E0E
:10165600000E296E67EF0BF02950D8B435EF0BF06A
:1016660037EF0BF04EEF0BF0D8901D361E361F36B7
:101676002036D890113612361336143627AE46EF7A
:101686000BF048EF0BF049EF0BF01180D8902436A1
:1016960025362636273615501D5C16501E5817500F
:1016A6001F5818502058D8A05BEF0BF05DEF0BF0D9
:1016B60066EF0BF0278C15501D5E16501E5A1750FC
:1016C6001F5A1850205A292A190E29646DEF0BF05B
:1016D6006FEF0BF02FEF0BF01D501E101F10201098
:1016E600D8B478EF0BF07AEF0BF092EF0BF0248082
:1016F60092EF0BF0D890113612361336143627AE09
:1017060087EF0BF089EF0BF08AEF0BF01180D89082
:1017160024362536263627362206D8A0230613AECB
:1017260097EF0BF099EF0BF07DEF0BF0000E296EA3
:1017360027AEA0EF0BF0A2EF0BF0C6EF0BF0FF0EFB
:101746002414196EFF0E25141A6EFF0E26141B6E36
:101756007F0E27141C6E19501A101B101C10D8B4BB
:10176600B7EF0BF0B9EF0BF0BDEF0BF0010E296EE2
:10177600C6EF0BF011A0C2EF0BF0C4EF0BF0C6EFF3
:101786000BF0B9EF0BF02950D8B4CCEF0BF0CEEF3D
:101796000BF0F2EF0BF0010E1126000E12221322AF
:1017A600142214A0D9EF0BF0DBEF0BF0F2EF0BF0E5
:1017B60011C019F012C01AF013C01BF014C01CF0AF
:1017C6001C341C321B321A32193219C011F01AC0DD
:1017D60012F01BC013F01CC014F0224A232A23BEA9
:1017E600FDEF0BF0235008E12228D8A0FDEF0BF007
:1017F600FFEF0BF00AEF0CF0000E236E2268000ECE
:10180600116E000E126E000E136E000E146E23BEC5
:1018160017EF0CF0235006E12204D8B015EF0CF0B8
:1018260017EF0CF025EF0CF0000E236E000E226E63
:10183600000E116E000E126E000E136E000E146E68
:10184600000E216E22C028F028A02CEF0CF02EEFFF
:101856000CF031EF0CF0138E32EF0CF0139ED89093
:101866002830146EE8EF0AF012000B6E0B50D8B455
:101876003FEF0CF041EF0CF063EF0CF006BE48EFC3
:101886000CF046EF0CF063EF0CF003C007F004C059
:1018960008F005C009F006C00AF0071E081E091E5A
:1018A6000A1E072A000E082209220A2207C00DF086
:1018B60008C00EF009C00FF00AC010F06BEF0CF074
:1018C60003C00DF004C00EF005C00FF006C010F006
:1018D6000350041005100610D8A474EF0CF076EF30
:1018E6000CF080EF0CF0000E036E000E046E000E7E
:1018F600056E000E066E11EF0DF0960E0C6E8AEF59
:101906000CF00C2AD89010320F320E320D32000E27
:101916000D14076E000E0E14086E000E0F14096EDD
:10192600FE0E10140A6E0750081009100A10D8A4EB
:101936009FEF0CF0A1EF0CF084EF0CF0AFEF0CF082
:101946000C2A010E0D26000E0E220F221022D89010
:1019560010320F320E320D32000E0D14076E000ECD
:101966000E14086E000E0F14096EFF0E10140A6E88
:101976000750081009100A10D8A4C4EF0CF0C6EFDF
:101986000CF0A3EF0CF0CEEF0CF00C06D8900D3651
:101996000E360F3610360FBED3EF0CF0D5EF0CF027
:1019A600DDEF0CF0020E0C60DBEF0CF0DDEF0CF05F
:1019B600C8EF0CF00CB0E2EF0CF0E4EF0CF0E5EF42
:1019C6000CF00F9ED8900C320CC007F0086A096A1A
:1019D6000A6A07C00AF0096A086A076A07500D1200
:1019E60008500E1209500F120A5010120B50D8B49C
:1019F600FFEF0CF001EF0DF009EF0DF006BE08EF5A
:101A06000DF006EF0DF009EF0DF0108E0DC003F08E
:101A16000EC004F00FC005F010C006F0120006005C
:101A2600FACF01F0FBCF02F0F2A81CEF0DF01EEF8B
:101A36000DF027EF0DF0F2A223EF0DF025EF0DF0DC
:101A460027EF0DF08DEC12F0F0A62CEF0DF02EEF37
:101A56000DF037EF0DF0F0A033EF0DF035EF0DF090
:101A660037EF0DF08BEC12F0F0A83CEF0DF03EEFE7
:101A76000DF047EF0DF0F0A243EF0DF045EF0DF03E
:101A860047EF0DF089EC12F09DAC4CEF0DF04EEFE8
:101A96000DF057EF0DF09EAC53EF0DF055EF0DF036
:101AA60057EF0DF091EC12F0F2AA5CEF0DF05EEF3D
:101AB6000DF067EF0DF0F2A463EF0DF065EF0DF09A
:101AC60067EF0DF077EC12F09DA06CEF0DF06EEF66
:101AD6000DF077EF0DF09EA073EF0DF075EF0DF0A2
:101AE60077EF0DF071EC12F09DA27CEF0DF07EEF1A
:101AF6000DF087EF0DF09EA283EF0DF085EF0DF050
:101B060087EF0DF07DEC12F0A0A28CEF0DF08EEFBA
:101B16000DF097EF0DF0A1A293EF0DF095EF0DF0FC
:101B260097EF0DF06BEC12F09DA89CEF0DF09EEF79
:101B36000DF0A7EF0DF09EA8A3EF0DF0A5EF0DF0A9
:101B4600A7EF0DF08FEC12F09DAAACEF0DF0AEEF03
:101B56000DF0B7EF0DF09EAAB3EF0DF0B5EF0DF057
:101B6600B7EF0DF094EC12F09DA6BCEF0DF0BEEFB2
:101B76000DF0C7EF0DF09EA6C3EF0DF0C5EF0DF00B
:101B8600C7EF0DF046EC12F0A0A6CCEF0DF0CEEFAD
:101B96000DF0D7EF0DF0A1A6D3EF0DF0D5EF0DF0B8
:101BA600D7EF0DF087EC12F002C0FBFF01C0FAFF81
:101BB6007A92110048504910D8A4E4EF0DF0E6EFF0
:101BC6000DF0EAEF0DF0000E4A6E83EF0EF0C69AA6
:101BD60020EE0AF04850D9264950DA22DFA0F6EF67
:101BE6000DF0F8EF0DF000EF0EF048C044F049C0DC
:101BF60045F040EC10F03CEF0EF020EE0AF04850B5
:101C0600D9264950DA22DFB00BEF0EF00DEF0EF0B9
:101C16003CEF0EF020EE0AF04850D9264950DA2261
:101C2600DFA618EF0EF01AEF0EF01DEF0EF0C58EC0
:101C36002BEF0EF020EE0AF04850D9264950DA2252
:101C4600DFB628EF0EF02AEF0EF02BEF0EF0C59E52
:101C5600C69EC69CC68820EE09F04850D926495033
:101C6600DA22DF50C86E48C003F049C004F05DECCC
:101C760012F084EC12F020EE0AF04850D9264950B2
:101C8600DA22DFA249EF0EF04BEF0EF04EEF0EF028
:101C9600C78E5CEF0EF020EE0AF04850D926495068
:101CA600DA22DFB259EF0EF05BEF0EF05CEF0EF0CA
:101CB600C79E20EE0AF04850D9264950DA22DFA402
:101CC60067EF0EF069EF0EF06CEF0EF0C78C7AEF4F
:101CD6000EF020EE0AF04850D9264950DA22DFB439
:101CE60077EF0EF079EF0EF07AEF0EF0C79C48C052
:101CF60003F049C004F0ECEC11F0C68A010E4A6EFE
:101D06004A501200010E0B6E03500410D8B48EEF29
:101D16000EF090EF0EF0A1EF0EF003C0D9FF04C055
:101D2600DAFFDF30E832E832070B056E070E05648E
:101D36009FEF0EF0A1EF0EF004EF0FF0000E0B6E0A
:101D460025EF0FF003C0D9FF04C0DAFFDF30E83219
:101D5600E832070B056E010E066E052AB5EF0EF08A
:101D6600D8900636052EB3EF0EF00650FF0A076E22
:101D760003C0D9FF04C0DAFFDF50070B086E085016
:101D8600020D940EF324D96E000EF420DA6EDECF27
:101D960009F0DDCF0AF009C0D9FF0AC0DAFF075003
:101DA600DF1625EF0FF003C0D9FF04C0DAFFDF30DE
:101DB600E832E832070B056E010E066E052AE6EFDD
:101DC6000EF0D8900636052EE4EF0EF003C0D9FFCC
:101DD60004C0DAFFDF50070B076E0750020D940EA2
:101DE600F324D96E000EF420DA6EDECF08F0DDCFD4
:101DF60009F008C0D9FF09C0DAFF0650DF1225EF47
:101E06000FF003C0D9FF04C0DAFFDFBC0DEF0FF0FF
:101E160010EF0FF0010E11EF0FF0000E056E066ABF
:101E26000650000AD8B41AEF0FF0A1EF0EF00550D5
:101E3600000AD8B4A5EF0EF0010AD8B4D6EF0EF01A
:101E4600A1EF0EF00B501200010E0C6E03500410A1
:101E5600D8B430EF0FF032EF0FF043EF0FF003C0BE
:101E6600D9FF04C0DAFFDF30E832E832070B066E2E
:101E7600070E066441EF0FF043EF0FF0A6EF0FF0E9
:101E8600000E0C6EBBEF0FF003C0D9FF04C0DAFFE3
:101E9600DF30E832E832070B066E010E076E062ABF
:101EA60057EF0FF0D8900736062E55EF0FF0075074
:101EB600FF0A086E03C0D9FF04C0DAFFDF50070B24
:101EC600096E0950020D8A0EF324D96E000EF42015
:101ED600DA6EDECF0AF0DDCF0BF00AC0D9FF0BC0F9
:101EE600DAFF0850DF16BBEF0FF003C0D9FF04C0BE
:101EF600DAFFDF30E832E832070B066E010E076EB6
:101F0600062A88EF0FF0D8900736062E86EF0FF0D8
:101F160003C0D9FF04C0DAFFDF50070B086E085074
:101F2600020D8A0EF324D96E000EF420DA6EDECF8F
:101F360009F0DDCF0AF009C0D9FF0AC0DAFF075061
:101F4600DF12BBEF0FF00550066E076A0750000A56
:101F5600D8B4B0EF0FF043EF0FF00650000AD8B434
:101F660047EF0FF0010AD8B478EF0FF043EF0FF008
:101F76000C5012003C343D34436E4350D8A4C6EF97
:101F86000FF0C8EF0FF0D2EF0FF0000E3A6E000E12
:101F96003B6E000E3C6E000E3D6E3FEF10F03AC0F9
:101FA6003EF03BC03FF03CC040F03DC041F0200E4B
:101FB600E2EF0FF0D890413240323F323E32E82E07
:101FC600DDEF0FF03E50426E3C8EFF0E3A16FF0ECE
:101FD6003B16FF0E3C16000E3D16960E435E43BEA4
:101FE600F9EF0FF0F7EF0FF00FEF10F04350800A04
:101FF600970FD8B001EF10F003EF10F005EF10F0D7
:10200600C8EF0FF0D8903D323C323B323A32433E75
:1020160005EF10F027EF10F01F0E436415EF10F0D8
:1020260017EF10F01FEF10F0C8EF0FF0D8903A3608
:102036003B363C363D3643064350D8A425EF10F0D8
:1020460027EF10F019EF10F04250D8B42DEF10F032
:102056002FEF10F037EF10F03D1E3C1E3B1E3A6C82
:10206600000E3B223C223D223AC03AF03BC03BF0F8
:102076003CC03CF03DC03DF0120020EE08F044505C
:10208600D9264550DA22DF50466EC6504618F00B68
:102096004618C66E000E2E6E000E2F6E800E306E27
:1020A600BF0E316E44C0D9FF45C0DAFFDECF46F021
:1020B600DDCF47F046C003F047C004F0056A066A64
:1020C600000E38EC0CF003C015F004C016F005C085
:1020D60017F006C018F0000E116E240E126EF40EE4
:1020E600136E490E146E6BEC0AF011C02AF012C082
:1020F6002BF013C02CF014C02DF00BEC08F02AC006
:102106003AF02BC03BF02CC03CF02DC03DF0BDECAE
:102116000FF03A50C86E120081EC12F00001B8912F
:10212600600EB76F060EB66FB895B883B897220ED5
:10213600B26F240EB36F000EB46F000EB56F000EB3
:10214600B06F000EB16FAE0E486E000E496EDDEC3C
:102156000DF0790E116E000E126ED8EC10F0610EB5
:102166006F18D8A4B9EF10F0BBEF10F0C3EF10F062
:10217600790E0D6E000E0E6E16EC11F0B2EF10F029
:10218600630E6F18D8A4CAEF10F0CCEF10F0D4EF9E
:1021960010F0790E0D6E000E0E6E51EC11F0B2EFCE
:1021A60010F0B2EF10F007EF00F0010E146E1150B0
:1021B6001210D8A4E1EF10F0E3EF10F0E7EF10F003
:1021C600000E146E14EF11F078C015F011C0D9FF8F
:1021D60012C0DAFFDF500F0B136E15501318F80BF1
:1021E6001318156E11C0D9FF12C0DAFFDF38070BBE
:1021F600136E13461346134615501318C70B1318C0
:10220600156E159C11C0D9FF12C0DAFFDFAE02D0E1
:10221600158E01D0159E150E0D6E000E0E6E8CECF1
:1022260011F0145012000D500E10D8A41DEF11F02D
:102236001FEF11F021EF11F050EF11F077C010F001
:102246000DC0D9FF0EC0DAFFDF500F0B0F6E105016
:102256000F18F80B0F18106E0DC0D9FF0EC0DAFF5D
:10226600DF38070B0F6E0F460F460F4610500F183C
:10227600C70B0F18106E109C0DC0D9FF0EC0DAFFE9
:10228600DFAE02D0108E01D0109E100E036E000E2F
:10229600046E010E056E27EC0FF012000D500E10A5
:1022A600D8A458EF11F05AEF11F05CEF11F08BEF54
:1022B60011F076C010F00DC0D9FF0EC0DAFFDF5066
:1022C6000F0B0F6E10500F18F80B0F18106E0DC075
:1022D600D9FF0EC0DAFFDF38070B0F6E0F460F4629
:1022E6000F4610500F18C70B0F18106E109C0DC01C
:1022F600D9FF0EC0DAFFDFAE02D0108E01D0109EDD
:10230600100E036E000E046E000E056E27EC0FF025
:1023160012000D500E10D8B493EF11F095EF11F096
:10232600A6EF11F00DC0D9FF0EC0DAFFDF30E8329C
:10233600E832070B0F6E070E0F64A4EF11F0A6EF3D
:1023460011F0AAEF11F0000E106EC0EF11F00DC0E3
:1023560003F00EC004F085EC0EF0106E0DC003F015
:102366000EC004F00DC0D9FF0EC0DAFF000EDFBEAE
:10237600010E056E27EC0FF0106E105012005E0E67
:10238600F66E240EF76E000EF86E00EE80F010EE7C
:102396002EF00900F5CFEEFFE550E150FAE12A0EE6
:1023A600F66E250EF76E000EF86E0900F5CF79F081
:1023B60000EEAEF00D0EEE6AE806FDE100EE4BF023
:1023C6002E0EEE6AE806FDE17A907A9200018FEF12
:1023D60010F09D86A0869E96A19620EE02F00350F0
:1023E600D9260450DA22DECF4FF0DDCF50F020EEB2
:1023F60004F00350D9260450DA22DECF4DF0DDCFAB
:102406004EF020EE06F00350D9260450DA22DECF35
:102416004BF0DDCF4CF0F28EF28C1200C698C7B4AA
:1024260017EF12F019EF12F02CEF12F0C7BA1EEFE9
:1024360012F020EF12F02CEF12F0C950C7A026EFD1
:1024460012F028EF12F021EF12F0C9CF6FF02DEF46
:1024560012F0C750C6881200800F810F820F830FBB
:10246600840F890F8A0F8B0F8C0F8D0F920F930F8E
:10247600940F950F960F323A030B131B232B333B06
:10248600020A121A222A9E964D504E10D8B44EEFCA
:1024960012F050EF12F05CEF12F002D85CEF12F07F
:1024A6000500FA6E4D50FD6E4E50FE6EFF6AFA50F4
:1024B6001200120020EE08F00350D9260450DA224A
:1024C600DF50056EC6500518F00B0518C66E1200D3
:1024D600A1925A50B36E59C0B2FF12009E9060503E
:1024E600CF6E5FC0CEFF1200F2946450D76E63C009
:1024F600D6FF12009E9271C0CCFF120093EC12F030
:102506001200948694881200A1961200F09212008E
:10251600F0901200F29212009D9812009E9C1200FA
:05252600120012000389
:020000040020DA
:08000000FFFFFFFFFFFFFFFF00
:020000040030CA
:0E000000FF020912FF8181FF0FC00FE00F40C9
:00000001FF
