:0400000007EF00F016
:0A0008007E826BED0AF07DEF10F030
:10100000003738392F3435362A3132332D23303DED
:051010002B2569000022
:101016002C50800B356E2C502C24376E2BAE16EFD1
:1010260008F018EF08F019EF08F037803750D8B4F9
:101036001FEF08F021EF08F036EF08F03728D8A4A4
:1010460027EF08F029EF08F031EF08F0000E296EBF
:10105600000E2A6E000E2B6E000E2C6E2B8E000ECE
:101066002C6E3EEF08F0000E296E000E2A6E000E62
:101076002B6E000E2C6E3050800B366E35503618A7
:10108600D8B448EF08F04AEF08F04BEF08F0358C7B
:1010960030503024366E2FAE53EF08F055EF08F07F
:1010A60056EF08F036803650D8B45CEF08F05EEFA5
:1010B60008F073EF08F03628D8A464EF08F066EF5E
:1010C60008F06EEF08F0000E2D6E000E2E6E000E6C
:1010D6002F6E000E306E2F8E000E306E7BEF08F0F6
:1010E600000E2D6E000E2E6E000E2F6E000E306E50
:1010F6003750365CD8B082EF08F084EF08F0ABEFDB
:1011060008F035AC89EF08F08BEF08F08DEF08F0AA
:10111600800E351A37C038F036C037F038C036F092
:1011260029C038F02DC029F038C02DF02AC038F07B
:101136002EC02AF038C02EF02BC038F02FC02BF06E
:1011460038C02FF02CC038F030C02CF038C030F04A
:10115600000E386E375036C031F0326A315E000EFE
:10116600325A32BEC0EF08F0325009E11A0E315C35
:10117600D8A0C0EF08F0C2EF08F0F9EF08F0295048
:101186002A102B102C10D8A4CBEF08F0CEEF08F0C5
:10119600010ECFEF08F0000E386E000E296E000E1D
:1011A6002A6E000E2B6E000E2C6E36C037F002EF44
:1011B60009F038A0E1EF08F0E3EF08F0E9EF08F0F6
:1011C600D89038300109386EEBEF08F0D8903832F5
:1011D60029A0F0EF08F0F2EF08F0F3EF08F0388EF0
:1011E6002C342C322B322A322932372A3650375CAD
:1011F600D8A000EF09F002EF09F0DCEF08F035BCEB
:1012060007EF09F009EF09F049EF09F03750D8A4C4
:101216000FEF09F011EF09F01BEF09F0000E296E30
:10122600000E2A6E000E2B6E000E2C6E6AEF0AF070
:101236002D5029262E502A222F502B2230502C2278
:101246002CA028EF09F02AEF09F0D6EF09F038A014
:101256002FEF09F031EF09F037EF09F0D890383069
:101266000109386E39EF09F0D890383229A03EEFDF
:1012760009F040EF09F041EF09F0388E2C342C329A
:101286002B322A322932372AD6EF09F02D50295C23
:101296002E502A582F502B582C50800A316E305021
:1012A600800A3158D8B05AEF09F05CEF09F087EFA1
:1012B60009F029502D5C316E2A502E58326E2B5073
:1012C6002F58336E2C503058346EFF0E3124296E51
:1012D600FF0E32202A6EFF0E33202B6EFF0E3420B7
:1012E6002C6E800E351A386C3850D8A47DEF09F074
:1012F6007FEF09F08FEF09F0010E2926000E2A2252
:101306002B222C228FEF09F02D50295E2E502A5ABF
:101316002F502B5A30502C5A29502A102B102C1093
:10132600D8A498EF09F09AEF09F0CFEF09F03850FA
:10133600D8A4A0EF09F0A2EF09F0CFEF09F0000E54
:10134600296E000E2A6E000E2B6E000E2C6E6AEFB2
:101356000AF0D89029362A362B362C3638AEB6EF18
:1013660009F0B8EF09F0B9EF09F0298038A0BEEF0F
:1013760009F0C0EF09F0C4EF09F0D8803836C6EF9F
:1013860009F0D89038363750D8B4CCEF09F0CEEF04
:1013960009F0CFEF09F037062BAED4EF09F0D6EF00
:1013A60009F0ACEF09F0000E366E38AEDDEF09F04D
:1013B600DFEF09F0F7EF09F038C031F07F0E311694
:1013C600D8B4E8EF09F0EAEF09F0EEEF09F0010E04
:1013D600366EF7EF09F029A0F3EF09F0F5EF09F003
:1013E600F7EF09F0EAEF09F03650D8B4FDEF09F04F
:1013F600FFEF09F02AEF0AF0010E2926000E2A2235
:101406002B222C222CA00AEF0AF00CEF0AF02AEF6E
:101416000AF029C031F02AC032F02BC033F02CC0BC
:1014260034F03434343233323232313231C029F08E
:1014360032C02AF033C02BF034C02CF03728D8B491
:1014460027EF0AF029EF0AF02AEF0AF0372A3728A1
:10145600D8B430EF0AF032EF0AF03AEF0AF037501C
:10146600D8A438EF0AF03AEF0AF04CEF0AF0000E73
:10147600296E000E2A6E000E2B6E000E2C6E375053
:10148600D8A448EF0AF04AEF0AF04CEF0AF0000E33
:10149600356E37A051EF0AF053EF0AF056EF0AF017
:1014A6002B8E57EF0AF02B9ED89037302C6E35AE28
:1014B6005FEF0AF061EF0AF062EF0AF02C8E29C0A6
:1014C60029F02AC02AF02BC02BF02CC02CF01200D9
:1014D6000600F2A871EF0AF073EF0AF07CEF0AF04B
:1014E600F2A278EF0AF07AEF0AF07CEF0AF0B8EC95
:1014F60011F0F0A681EF0AF083EF0AF08CEF0AF004
:10150600F0A088EF0AF08AEF0AF08CEF0AF0B6EC4A
:1015160011F0F0A891EF0AF093EF0AF09CEF0AF0B1
:10152600F0A298EF0AF09AEF0AF09CEF0AF0B4ECFA
:1015360011F0F2A6A1EF0AF0A3EF0AF0BEEF0AF04F
:10154600F2A0A8EF0AF0AAEF0AF0BEEF0AF081A80F
:10155600AFEF0AF0B1EF0AF0BEEF0AF07D04D8A4AF
:10156600B7EF0AF0B9EF0AF0BEEF0AF0000E7D6E93
:10157600000E84EC11F0F2A6C3EF0AF0C5EF0AF0F4
:10158600E0EF0AF0F2A0CAEF0AF0CCEF0AF0E0EFC3
:101596000AF081B8D1EF0AF0D3EF0AF0E0EF0AF0D3
:1015A6007D50D8A4D9EF0AF0DBEF0AF0E0EF0AF09D
:1015B600010E7D6E010E84EC11F0F2A6E5EF0AF045
:1015C600E7EF0AF002EF0BF0F2A0ECEF0AF0EEEF15
:1015D6000AF002EF0BF081AAF3EF0AF0F5EF0AF03A
:1015E60002EF0BF07C04D8A4FBEF0AF0FDEF0AF043
:1015F60002EF0BF0000E7C6E000E77EC11F0F2A6F7
:1016060007EF0BF009EF0BF024EF0BF0F2A00EEF53
:101616000BF010EF0BF024EF0BF081BA15EF0BF087
:1016260017EF0BF024EF0BF07C50D8A41DEF0BF056
:101636001FEF0BF024EF0BF0010E7C6E010E77EC22
:1016460011F0F2A629EF0BF02BEF0BF046EF0BF0A3
:10165600F2A030EF0BF032EF0BF046EF0BF081AC5F
:1016660037EF0BF039EF0BF046EF0BF07B04D8A405
:101676003FEF0BF041EF0BF046EF0BF0000E7B6EE9
:10168600000E6AEC11F0F2A64BEF0BF04DEF0BF0EB
:1016960068EF0BF0F2A052EF0BF054EF0BF068EF8F
:1016A6000BF081BC59EF0BF05BEF0BF068EF0BF022
:1016B6007B50D8A461EF0BF063EF0BF068EF0BF0F3
:1016C600010E7B6E010E6AEC11F0F2A66DEF0BF0C7
:1016D6006FEF0BF08AEF0BF0F2A074EF0BF076EFE2
:1016E6000BF08AEF0BF081AE7BEF0BF07DEF0BF08A
:1016F6008AEF0BF07A04D8A483EF0BF085EF0BF09A
:101706008AEF0BF0000E7A6E000E5DEC11F0F2A679
:101716008FEF0BF091EF0BF0ACEF0BF0F2A096EF22
:101726000BF098EF0BF0ACEF0BF081BE9DEF0BF0DA
:101736009FEF0BF0ACEF0BF07A50D8A4A5EF0BF0AF
:10174600A7EF0BF0ACEF0BF0010E7A6E010E5DEC1D
:1017560011F09DACB1EF0BF0B3EF0BF0BCEF0BF05B
:101766009EACB8EF0BF0BAEF0BF0BCEF0BF0C0EC91
:1017760011F0F2AAC1EF0BF0C3EF0BF0CCEF0BF0B8
:10178600F2A4C8EF0BF0CAEF0BF0CCEF0BF09DEC18
:1017960011F09DA0D1EF0BF0D3EF0BF0DCEF0BF0C7
:1017A6009EA0D8EF0BF0DAEF0BF0DCEF0BF097EC26
:1017B60011F09DA2E1EF0BF0E3EF0BF0ECEF0BF075
:1017C6009EA2E8EF0BF0EAEF0BF0ECEF0BF0A9ECC2
:1017D60011F0A0A2F1EF0BF0F3EF0BF0FCEF0BF022
:1017E600A1A2F8EF0BF0FAEF0BF0FCEF0BF091EC87
:1017F60011F09DA801EF0CF003EF0CF00CEF0CF0CC
:101806009EA808EF0CF00AEF0CF00CEF0CF0BAEC07
:1018160011F09DAA11EF0CF013EF0CF01CEF0CF079
:101826009EAA18EF0CF01AEF0CF01CEF0CF0C2ECAD
:1018360011F09DA421EF0CF023EF0CF02CEF0CF02F
:101846009EA428EF0CF02AEF0CF02CEF0CF0BEEC67
:1018560011F0A0A031EF0CF033EF0CF03CEF0CF0E0
:10186600A1A038EF0CF03AEF0CF03CEF0CF0BCEC1A
:1018760011F09DA641EF0CF043EF0CF04CEF0CF08D
:101886009EA648EF0CF04AEF0CF04CEF0CF0B0ECD3
:1018960011F0A0A651EF0CF053EF0CF05CEF0CF03A
:1018A600A1A658EF0CF05AEF0CF05CEF0CF0B2EC7E
:1018B60011F07E9211001350800B206E13501324EA
:1018C600276E12AE69EF0CF06BEF0CF06CEF0CF0BC
:1018D60027802750D8B472EF0CF074EF0CF089EF24
:1018E6000CF02728D8A47AEF0CF07CEF0CF084EFEC
:1018F6000CF0000E106E000E116E000E126E000E31
:10190600136E128E000E136E91EF0CF0000E106E19
:10191600000E116E000E126E000E136E1750800B25
:10192600201A17501724286E16AE9CEF0CF09EEF67
:101936000CF09FEF0CF028802850D8B4A5EF0CF0DF
:10194600A7EF0CF0BCEF0CF02828D8A4ADEF0CF0F4
:10195600AFEF0CF0B7EF0CF0000E146E000E156E24
:10196600000E166E000E176E168E000E176EC4EF62
:101976000CF0000E146E000E156E000E166E000EA4
:10198600176E1450151016101710D8A4CDEF0CF0C2
:10199600CFEF0CF0E7EF0CF0000E106E000E116E9C
:1019A600000E126E000E136E800E12127F0E1312B0
:1019B6002050131210C010F011C011F012C012F016
:1019C60013C013F02AEF0EF02750D8A4EDEF0CF059
:1019D600EFEF0CF0F9EF0CF0000E106E000E116E2A
:1019E600000E126E000E136E2AEF0EF0285027C05E
:1019F60018F0196A185E000E195A7F0E1824216E07
:101A0600000E1920226E10C01CF011C01DF012C06D
:101A16001EF013C01FF0000E106E000E116E000EA9
:101A2600126E000E136E000E236E000E246E000E54
:101A3600256E000E266E000E286E5AEF0DF0285009
:101A4600D8B428EF0DF02AEF0DF041EF0DF0D89045
:101A56001C361D361E361F36D890103611361236F5
:101A6600133626AE39EF0DF03BEF0DF03CEF0DF0DF
:101A76001080D890233624362536263614501C5C22
:101A860015501D5816501E5817501F58D8A04EEF07
:101A96000DF050EF0DF059EF0DF0268C14501C5E32
:101AA60015501D5A16501E5A17501F5A282A190E1D
:101AB600286460EF0DF062EF0DF022EF0DF01C5080
:101AC6001D101E101F10D8B46BEF0DF06DEF0DF04A
:101AD60085EF0DF0238085EF0DF0D8901036113686
:101AE6001236133626AE7AEF0DF07CEF0DF07DEF51
:101AF6000DF01080D890233624362536263621065A
:101B0600D8A0220612AE8AEF0DF08CEF0DF070EF22
:101B16000DF0000E286E26AE93EF0DF095EF0DF04A
:101B2600B9EF0DF0FF0E2314186EFF0E2414196E74
:101B3600FF0E25141A6E7F0E26141B6E18501910F0
:101B46001A101B10D8B4AAEF0DF0ACEF0DF0B0EFE1
:101B56000DF0010E286EB9EF0DF010A0B5EF0DF0E7
:101B6600B7EF0DF0B9EF0DF0ACEF0DF02850D8B48B
:101B7600BFEF0DF0C1EF0DF0E5EF0DF0010E1026F1
:101B8600000E11221222132213A0CCEF0DF0CEEF7D
:101B96000DF0E5EF0DF010C018F011C019F012C0ED
:101BA6001AF013C01BF01B341B321A3219321832CA
:101BB60018C010F019C011F01AC012F01BC013F0B3
:101BC600214A222A22BEF0EF0DF0225008E12128F8
:101BD600D8A0F0EF0DF0F2EF0DF0FDEF0DF0000ED6
:101BE600226E2168000E106E000E116E000E126E2F
:101BF600000E136E22BE0AEF0EF0225006E12104FB
:101C0600D8B008EF0EF00AEF0EF018EF0EF0000E47
:101C1600226E000E216E000E106E000E116E000E6A
:101C2600126E000E136E000E206E21C027F027A044
:101C36001FEF0EF021EF0EF024EF0EF0128E25EFBF
:101C46000EF0129ED8902730136EDBEF0CF01200C8
:101C56000A6E0A50D8B432EF0EF034EF0EF056EF9B
:101C66000EF005BE3BEF0EF039EF0EF056EF0EF01C
:101C760002C006F003C007F004C008F005C009F072
:101C8600061E071E081E091E062A000E0722082227
:101C9600092206C00CF007C00DF008C00EF009C0FE
:101CA6000FF05EEF0EF002C00CF003C00DF004C0A2
:101CB6000EF005C00FF00250031004100510D8A452
:101CC60067EF0EF069EF0EF073EF0EF0000E026E86
:101CD600000E036E000E046E000E056E04EF0FF08C
:101CE600960E0B6E7DEF0EF00B2AD8900F320E3249
:101CF6000D320C32000E0C14066E000E0D14076E1B
:101D0600000E0E14086EFE0E0F14096E0650071014
:101D160008100910D8A492EF0EF094EF0EF077EFAA
:101D26000EF0A2EF0EF00B2A010E0C26000E0D226D
:101D36000E220F22D8900F320E320D320C32000EC8
:101D46000C14066E000E0D14076E000E0E14086EAF
:101D5600FF0E0F14096E0650071008100910D8A4BC
:101D6600B7EF0EF0B9EF0EF096EF0EF0C1EF0EF0F2
:101D76000B06D8900C360D360E360F360EBEC6EF55
:101D86000EF0C8EF0EF0D0EF0EF0020E0B60CEEFA5
:101D96000EF0D0EF0EF0BBEF0EF00BB0D5EF0EF05D
:101DA600D7EF0EF0D8EF0EF00E9ED8900B320BC088
:101DB60006F0076A086A096A06C009F0086A076A2F
:101DC600066A06500C1207500D1208500E120950E2
:101DD6000F120A50D8B4F2EF0EF0F4EF0EF0FCEF4B
:101DE6000EF005BEFBEF0EF0F9EF0EF0FCEF0EF075
:101DF6000F8E0CC002F00DC003F00EC004F00FC031
:101E060005F0120046504710D8A40CEF0FF00EEF65
:101E16000FF012EF0FF0000E486EABEF0FF0C69A00
:101E260020EE06F04650D9264750DA22DFA01EEFF4
:101E36000FF020EF0FF028EF0FF046C043F047C039
:101E460044F030EC10F064EF0FF020EE06F0465050
:101E5600D9264750DA22DFB033EF0FF035EF0FF017
:101E660064EF0FF020EE06F04650D9264750DA22EE
:101E7600DFA640EF0FF042EF0FF045EF0FF0C58EF3
:101E860053EF0FF020EE06F04650D9264750DA22DF
:101E9600DFB650EF0FF052EF0FF053EF0FF0C59E85
:101EA600C69EC69CC68820EE05F04650D9264750E9
:101EB600DA22DF50C86E46C002F047C003F04FEC8E
:101EC60011F0ADEC11F020EE06F04650D926475041
:101ED600DA22DFA271EF0FF073EF0FF076EF0FF05B
:101EE600C78E84EF0FF020EE06F04650D9264750F5
:101EF600DA22DFB281EF0FF083EF0FF084EF0FF0FD
:101F0600C79E20EE06F04650D9264750DA22DFA4B7
:101F16008FEF0FF091EF0FF094EF0FF0C78CA2EF59
:101F26000FF020EE06F04650D9264750DA22DFB4ED
:101F36009FEF0FF0A1EF0FF0A2EF0FF0C79C46C086
:101F460002F047C003F0AEEC10F0C68A010E486EF0
:101F5600485012003B343C34426E4250D8A4B6EF8F
:101F66000FF0B8EF0FF0C2EF0FF0000E396E000E53
:101F76003A6E000E3B6E000E3C6E2FEF10F039C02D
:101F86003DF03AC03EF03BC03FF03CC040F0200E72
:101F9600D2EF0FF0D89040323F323E323D32E82E3B
:101FA600CDEF0FF03D50416E3B8EFF0E3916FF0E02
:101FB6003A16FF0E3B16000E3C16960E425E42BEC9
:101FC600E9EF0FF0E7EF0FF0FFEF0FF04250800A56
:101FD600970FD8B0F1EF0FF0F3EF0FF0F5EF0FF02A
:101FE600B8EF0FF0D8903C323B323A323932423EAB
:101FF600F5EF0FF017EF10F01F0E426405EF10F02B
:1020060007EF10F00FEF10F0B8EF0FF0D890393659
:102016003A363B363C3642064250D8A415EF10F00D
:1020260017EF10F009EF10F04150D8B41DEF10F083
:102036001FEF10F027EF10F03C1E3B1E3A1E396CC6
:10204600000E3A223B223C2239C039F03AC03AF01F
:102056003BC03BF03CC03CF0120020EE04F0435085
:10206600D9264450DA22DF50456EC6504518F00B8B
:102076004518C66E000E2D6E000E2E6E800E2F6E4B
:10208600BF0E306E43C0D9FF44C0DAFFDECF02F088
:10209600DECF03F0DECF04F0DECF05F0000E2BEC32
:1020A6000EF002C014F003C015F004C016F005C00F
:1020B60017F0000E106E240E116EF40E126E490EFD
:1020C600136E5EEC0CF010C029F011C02AF012C09D
:1020D6002BF013C02CF00BEC08F029C039F02AC005
:1020E6003AF02BC03BF02CC03CF0ADEC0FF0395071
:1020F600C86E1200720EF66E220EF76E000EF86EA5
:1021060000EEADF010EE2CF00900F5CFEEFFE55035
:10211600E150FAE1460EF66E230EF76E000EF86EEB
:1021260000EE73F010EE0BF00900F5CFEEFFE55070
:10213600E150FAE100EE80F02D0EEE6AE806FDE1D0
:1021460000EE49F02A0EEE6AE806FDE17E907E92E8
:102156000001D3EF10F09D86A0869E96A19620EEF4
:1021660009F00250D9260350DA22DECF8AF0DDCFFD
:102176008BF020EE0BF00250D9260350DA22DECF88
:1021860088F0DDCF89F020EE0DF00250D9260350FD
:10219600DA22DECF86F0DDCF87F0F28EF28C1200E7
:1021A600A00E00019E6F860E9F6F010EA06F000E9F
:1021B600A16FA481080EA26FA495A4839E0E466EFD
:1021C600000E476E05EC0FF09E0E026E000E036EBB
:1021D60018EC11F09E0E026E000E036EF7EC10F076
:1021E600F3EF10F007EF00F002500310D8A4FEEF53
:1021F60010F000EF11F004EF11F0000E046E16EF70
:1022060011F0C584C5B40AEF11F00CEF11F005EF1B
:1022160011F09E96C7A812EF11F014EF11F000EF1F
:1022260011F0010E046E0450120002500310D8A4DF
:102236001FEF11F021EF11F025EF11F0000E046EE3
:1022460037EF11F0C580C5B02BEF11F02DEF11F06F
:1022560026EF11F09E96C7A633EF11F035EF11F079
:1022660021EF11F0010E046E04501200800F810F51
:10227600820F830F840F890F8A0F8B0F8C0F8D0FA0
:10228600920F930F940F950F960F020A121A626A15
:10229600727A020A121A222A20EE04F00250D92675
:1022A6000350DA22DF50046EC6500418F00B0418EF
:1022B600C66E1200016EF2900150D8A465EF11F0BF
:1022C60067EF11F069EF11F069EF11F01200016E7E
:1022D600F2900150D8A472EF11F074EF11F076EF7E
:1022E60011F076EF11F01200016EF2900150D8A4B1
:1022F6007FEF11F081EF11F083EF11F083EF11F012
:102306001200016EF2900150D8A48CEF11F08EEFFE
:1023160011F090EF11F090EF11F01200A1924A50D7
:10232600B36E49C0B2FF12009E904C50CF6E4BC0A8
:10233600CEFF1200F2944E50D76E4DC0D6FF12005B
:0B234600685A622A1A622A0101010194
:102352009E926BC0CCFF12009486948812009E96C7
:102362001200A1961200F0921200F0901200F29266
:1023720012009D981200A19012009E9412009E9C41
:042382001200120033
:020000040020DA
:08000000FFFFFFFFFFFFFFFF00
:020000040030CA
:0E000000FF020F1EFF8181FF0FC00FE00F40B7
:00000001FF
