:04000000F0EF0AF023
:10100000003738392F3435362A3132332D23303DED
:101010002B48656C6C6F20576F726C6421002569DA
:101020000000010E406E38503910D8B41AEF08F0A5
:101030001CEF08F02DEF08F038C0D9FF39C0DAFFF7
:10104000DF30E832E832070B3A6E070E3A642BEFD6
:1010500008F02DEF08F090EF08F0000E406EB1EFB1
:1010600008F038C0D9FF39C0DAFFDF30E832E832A3
:10107000070B3A6E010E3B6E3A2A41EF08F0D8900A
:101080003B363A2E3FEF08F03B50FF0A3C6E38C02B
:10109000D9FF39C0DAFFDF50070B3D6E3D50020D1E
:1010A000150EF324D96E000EF420DA6EDECF3EF07A
:1010B000DDCF3FF03EC0D9FF3FC0DAFF3C50DF1626
:1010C000B1EF08F038C0D9FF39C0DAFFDF30E832BD
:1010D000E832070B3A6E010E3B6E3A2A72EF08F0C7
:1010E000D8903B363A2E70EF08F038C0D9FF39C09F
:1010F000DAFFDF50070B3C6E3C50020D150EF32457
:10110000D96E000EF420DA6EDECF3DF0DDCF3EF07A
:101110003DC0D9FF3EC0DAFF3B50DF12B1EF08F00F
:1011200038C0D9FF39C0DAFFDFBC99EF08F09CEF77
:1011300008F0010E9DEF08F0000E3A6E3B6A3B503E
:10114000000AD8B4A6EF08F02DEF08F03A50000AD4
:10115000D8B431EF08F0010AD8B462EF08F02DEFEF
:1011600008F040501200000E526E4E504F10D8A49E
:10117000BCEF08F0BEEF08F0C2EF08F0000E536EAF
:1011800047EF09F04EC042F04FC043F06FEC0AF059
:10119000536E010E4E24426E000E4F20436E6FECD4
:1011A0000AF0536E000E526E52504E24506E000ED6
:1011B0004F20516E020E5024426E000E5120436E9D
:1011C0006FEC0AF0522A070E5264E9EF08F0EBEFD9
:1011D00008F0D4EF08F01A0E506EF80EE82EFED785
:1011E000502EFCD700D04EC045F04FC046F0380E10
:1011F000476E27EC0AF0070E506E7D0EE82EFED7E4
:10120000502EFCD700F04EC045F04FC046F0380ECF
:10121000476E27EC0AF0320EE82EFED74EC045F09E
:101220004FC046F0380E476E27EC0AF04EC045F02E
:101230004FC046F0010E476E27EC0AF04EC045F055
:101240004FC046F0020E476E27EC0AF04EC045F044
:101250004FC046F0060E476E27EC0AF04EC045F030
:101260004FC046F00C0E476E27EC0AF04EC045F01A
:101270004FC046F0380E476E27EC0AF04EC045F0DE
:101280004FC046F0800E476E27EC0AF0536E535065
:101290001200010E416E38503910D8B452EF09F0E7
:1012A00054EF09F065EF09F038C0D9FF39C0DAFF13
:1012B000DF30E832E832070B3B6E070E3B6463EF2A
:1012C00009F065EF09F0C8EF09F0000E416EDDEF9F
:1012D00009F038C0D9FF39C0DAFFDF30E832E83230
:1012E000070B3B6E010E3C6E3B2A79EF09F0D8905C
:1012F0003C363B2E77EF09F03C50FF0A3D6E38C07C
:10130000D9FF39C0DAFFDF50070B3E6E3E50020DA9
:101310000B0EF324D96E000EF420DA6EDECF3FF010
:10132000DDCF40F03FC0D9FF40C0DAFF3D50DF16AF
:10133000DDEF09F038C0D9FF39C0DAFFDF30E8321D
:10134000E832070B3B6E010E3C6E3B2AAAEF09F018
:10135000D8903C363B2EA8EF09F038C0D9FF39C0F1
:10136000DAFFDF50070B3D6E3D50020D0B0EF324EC
:10137000D96E000EF420DA6EDECF3EF0DDCF3FF006
:101380003EC0D9FF3FC0DAFF3C50DF12DDEF09F06D
:101390003A503B6E3C6A3C50000AD8B4D2EF09F098
:1013A00065EF09F03B50000AD8B469EF09F0010A73
:1013B000D8B49AEF09F065EF09F041501200000E21
:1013C0004D6E45504610D8A4E8EF09F0EAEF09F059
:1013D000EEEF09F0000E4C6E25EF0AF045C038F034
:1013E00046C039F0010E3A6E49EC09F0000E4D6E20
:1013F0004D504524486E000E4620496E020E48248A
:10140000386E000E4920396E4DC04AF047C04BF08F
:101410004A2A0DEF0AF0D8904B324A2E0BEF0AF011
:101420004B50010B3A6E49EC09F04D2A070E4D6402
:101430001CEF0AF01EEF0AF0F8EF09F045C042F089
:1014400046C043F00BEC0BF04C6E4C501200000EFB
:101450004D6E45504610D8A430EF0AF032EF0AF036
:1014600036EF0AF0000E4C6E6DEF0AF045C038F012
:1014700046C039F0000E3A6E49EC09F0000E4D6E90
:101480004D504524486E000E4620496E020E4824F9
:10149000386E000E4920396E4DC04AF047C04BF0FF
:1014A0004A2A55EF0AF0D8904B324A2E53EF0AF0F1
:1014B0004B50010B3A6E49EC09F04D2A070E4D6472
:1014C00064EF0AF066EF0AF040EF0AF045C042F020
:1014D00046C043F00BEC0BF04C6E4C5012004250E7
:1014E0004310D8B476EF0AF078EF0AF089EF0AF0EB
:1014F00042C0D9FF43C0DAFFDF30E832E832070BE1
:10150000446E070E446487EF0AF089EF0AF08DEF0E
:101510000AF0000E456EA3EF0AF042C038F043C057
:1015200039F011EC08F0456E42C038F043C039F094
:1015300042C0D9FF43C0DAFF000EDFBE010E3A6E93
:1015400049EC09F0456E45501200010E526E4E50A6
:101550004F10D8A4AEEF0AF0B0EF0AF0C4EF0AF0D3
:10156000000E526ED2EF0AF04EC045F04FC046F06A
:1015700050C0F6FF51C0F7FF0800F5CF47F0DFEC91
:1015800009F0526E504A512A50C0F6FF51C0F7FF81
:101590000800F5500009D8A4D0EF0AF0D2EF0AF005
:1015A000B4EF0AF052501200800F810F820F830FA8
:1015B000840F890F8A0F8B0F8C0F8D0F920F930F53
:1015C000940F950F960F020A121A626A727A020A33
:0F15D000121A222A2D323A030B131B232B333B03
:1015E000A80EF66E150EF76E000EF86E00EE01F006
:1015F00010EE37F00900F5CFEEFFE550E150FAE1CB
:1016000000EE54F00D0EEE6AE806FDE1000EF86EF5
:10161000000125EF0BF0010E4224386E000E43202E
:10162000396E010E3A6E49EC09F000D000D000F09E
:10163000010E4224386E000E4320396E000E3A6EC1
:1016400049EC09F0446E445012002E0E4E6E000E0E
:101650004F6EB3EC08F02E0E4E6E000E4F6E110E54
:10166000506E100E516EA5EC0AF035EF0BF000EF46
:0216700000F088
:020000040020DA
:08000000FFFFFFFFFFFFFFFF00
:020000040030CA
:0E000000FF020F1EFF8181FF0FC00FE00F40B7
:00000001FF
