:0400000007EF00F016
:0A00080077822DED0AF01AEF18F0D0
:10100000003738392F3435362A3132332D23303DED
:101010002B4C4D333520546573740054656D70311D
:0F1020003A200054656D70323A200025690000B7
:101030001350800B1C6E13501324226E12AE23EF3C
:1010400008F025EF08F026EF08F022802250D8B4EF
:101050002CEF08F02EEF08F041EF08F02228D8A47A
:1010600034EF08F036EF08F03EEF08F0000E106E97
:10107000000E116E000E126E000E136E128E49EFEE
:1010800008F0000E106E000E116E000E126E000EB3
:10109000136E1750800B1C1A17501724216E16AEB2
:1010A00054EF08F056EF08F057EF08F02180215078
:1010B000D8B45DEF08F05FEF08F072EF08F0212878
:1010C000D8A465EF08F067EF08F06FEF08F0000EA6
:1010D000146E000E156E000E166E000E176E168E34
:1010E0007AEF08F0000E146E000E156E000E166EEC
:1010F000000E176E2150D8B480EF08F082EF08F090
:101100008AEF08F02250D8A488EF08F08AEF08F0A0
:1011100094EF08F0000E106E000E116E000E126EAD
:10112000000E136E2CEF0AF016501002F3CF27F0CA
:10113000F4CF28F027501D6E1E6A1F6A206A2850BF
:10114000236E246A256A266A15501102F3CF27F010
:10115000F4CF28F027501D26000E1E221F22202229
:1011600028502326000E2422252226221450120263
:10117000F3CF27F0F4CF28F027501D26000E1E22B3
:101180001F22202228502326000E24222522262238
:101190001FC020F01EC01FF01DC01EF01D6A14509D
:1011A0001102F3CF27F0F4CF28F027501D26285046
:1011B0001E22000E1F22000E202215501002F3CF17
:1011C00027F0F4CF28F027501D2628501E22000EAD
:1011D0001F22000E20221FC020F01EC01FF01DC0C5
:1011E0001EF01D6A14501002F3CF27F0F4CF28F040
:1011F00027501D2628501E22000E1F22000E2022DE
:1012000016501102F3CF27F0F4CF28F027502326F1
:1012100028502422000E2522000E262215501202EC
:10122000F3CF27F0F4CF28F027502326285024228C
:10123000000E2522000E262216501202F3CF27F0B0
:10124000F4CF28F02750186E2850196E1A6A1B6ABE
:101250001AC01BF019C01AF018C019F0186A1850FB
:101260002326195024221A5025221B5026221DC045
:1012700018F01EC019F01FC01AF020C01BF0190E84
:1012800047EF09F0D8901B321A3219321832E82E83
:1012900042EF09F018502326195024221A50252213
:1012A0001B5026221FC020F01EC01FF01DC01EF0C4
:1012B0001D6A215022C018F0196A1826000E192242
:1012C000820E1824276EFF0E1920286E7DEF09F07C
:1012D000D890233624362536263620AE72EF09F014
:1012E00074EF09F075EF09F02380D8901D361E3693
:1012F0001F3620362706D8A0280625AE82EF09F033
:1013000084EF09F068EF09F0000E216E20AE8BEF3C
:1013100009F08DEF09F0B1EF09F0FF0E1D14186E02
:10132000FF0E1E14196EFF0E1F141A6E7F0E20146E
:101330001B6E185019101A101B10D8B4A2EF09F028
:10134000A4EF09F0A8EF09F0010E216EB1EF09F04A
:1013500023A0ADEF09F0AFEF09F0B1EF09F0A4EF72
:1013600009F02150D8B4B7EF09F0B9EF09F0DDEF7B
:1013700009F0010E2326000E24222522262226A073
:10138000C4EF09F0C6EF09F0DDEF09F023C018F053
:1013900024C019F025C01AF026C01BF01B341B32E4
:1013A0001A321932183218C023F019C024F01AC0AA
:1013B00025F01BC026F0274A282A28BEE8EF09F0AE
:1013C000285008E12728D8A0E8EF09F0EAEF09F053
:1013D000F4EF09F0000E236E000E246E800E256ED1
:1013E0007F0E266E22EF0AF028BE01EF0AF0285089
:1013F00006E12704D8B0FFEF09F001EF0AF00DEF86
:101400000AF0000E236E000E246E000E256E000EF4
:10141000266E000E1C6E22EF0AF027C022F0FF0E8F
:101420002316FF0E24167F0E2516000E261622A068
:101430001CEF0AF01EEF0AF01FEF0AF0258ED8907D
:101440002230266E1C50261223C010F024C011F04A
:1014500025C012F026C013F012000600F2A833EFE8
:101460000AF035EF0AF03EEF0AF0F2A23AEF0AF086
:101470003CEF0AF03EEF0AF02CEC1AF0F0A643EF36
:101480000AF045EF0AF04EEF0AF0F0A04AEF0AF03A
:101490004CEF0AF04EEF0AF02AEC1AF0F0A853EFE6
:1014A0000AF055EF0AF05EEF0AF0F0A25AEF0AF0E8
:1014B0005CEF0AF05EEF0AF028EC1AF0F2A663EF98
:1014C0000AF065EF0AF080EF0AF0F2A06AEF0AF086
:1014D0006CEF0AF080EF0AF081A871EF0AF073EF69
:1014E0000AF080EF0AF07404D8A479EF0AF07BEFD9
:1014F0000AF080EF0AF0000E746E000E16EC1AF07F
:10150000F2A685EF0AF087EF0AF0A2EF0AF0F2A048
:101510008CEF0AF08EEF0AF0A2EF0AF081B893EF99
:101520000AF095EF0AF0A2EF0AF07450D8A49BEFEE
:101530000AF09DEF0AF0A2EF0AF0010E746E010EA0
:1015400016EC1AF0F2A6A7EF0AF0A9EF0AF0C4EF22
:101550000AF0F2A0AEEF0AF0B0EF0AF0C4EF0AF022
:1015600081AAB5EF0AF0B7EF0AF0C4EF0AF07304EE
:10157000D8A4BDEF0AF0BFEF0AF0C4EF0AF0000EE6
:10158000736E000E09EC1AF0F2A6C9EF0AF0CBEF69
:101590000AF0E6EF0AF0F2A0D0EF0AF0D2EF0AF07C
:1015A000E6EF0AF081BAD7EF0AF0D9EF0AF0E6EFDA
:1015B0000AF07350D8A4DFEF0AF0E1EF0AF0E6EF8B
:1015C0000AF0010E736E010E09EC1AF0F2A6EBEFB1
:1015D0000AF0EDEF0AF008EF0BF0F2A0F2EF0AF0DC
:1015E000F4EF0AF008EF0BF081ACF9EF0AF0FBEF33
:1015F0000AF008EF0BF07204D8A401EF0BF003EF30
:101600000BF008EF0BF0000E726E000EFCEC19F000
:10161000F2A60DEF0BF00FEF0BF02AEF0BF0F2A09C
:1016200014EF0BF016EF0BF02AEF0BF081BC1BEF61
:101630000BF01DEF0BF02AEF0BF07250D8A423EF44
:101640000BF025EF0BF02AEF0BF0010E726E010E7E
:10165000FCEC19F0F2A62FEF0BF031EF0BF04CEF92
:101660000BF0F2A036EF0BF038EF0BF04CEF0BF075
:1016700081AE3DEF0BF03FEF0BF04CEF0BF0710440
:10168000D8A445EF0BF047EF0BF04CEF0BF0000E3A
:10169000716E000EEFEC19F0F2A651EF0BF053EF64
:1016A0000BF06EEF0BF0F2A058EF0BF05AEF0BF0CF
:1016B0006EEF0BF081BE5FEF0BF061EF0BF06EEFA2
:1016C0000BF07150D8A467EF0BF069EF0BF06EEFE1
:1016D0000BF0010E716E010EEFEC19F09DAC73EF83
:1016E0000BF075EF0BF07EEF0BF09EAC7AEF0BF08A
:1016F0007CEF0BF07EEF0BF02EEC1AF077921100DE
:101700001FC035F020C036F021C037F022C038F0BD
:1017100023C039F024C03AF025C03BF026C03CF08D
:101720003CBE95EF0BF098EF0BF0010E99EF0BF02C
:10173000000E3D6E3D50D8B4A0EF0BF0A2EF0BF0C1
:10174000B2EF0BF03C1E3B1E3A1E391E381E371EF0
:10175000361E356C000E36223722382239223A22C4
:101760003B223C22000189BFC0EF0BF0895106E10A
:101770008805D8B0BEEF0BF0C0EF0BF0C6EF0BF052
:10178000000E326E010E316ECAEF0BF088C031F0E0
:1017900089C032F086C033F087C034F03D50D8B4F1
:1017A000D4EF0BF0D6EF0BF0EDEF0BF03306D8A033
:1017B00034063D50D8A4DFEF0BF0E1EF0BF0E7EF7C
:1017C0000BF0000E306E2B0E2F6EEBEF0BF0000EB9
:1017D000306E2D0E2F6E2FC03DF0000E3F6E1F0E8F
:1017E0003E6E000E01011F6F72EF0CF03E06D8A096
:1017F0003F06000E3E24D96E010E3F20DA6E35C042
:1018000002F036C003F037C004F038C005F039C02C
:1018100006F03AC007F03BC008F03CC009F00A0EE1
:101820000A6E000E0B6E000E0C6E000E0D6E000E9A
:101830000E6E000E0F6E000E106E000E116E4AEC52
:1018400010F002C027F003C028F004C029F005C042
:101850002AF006C02BF007C02CF008C02DF009C0FC
:101860002EF027C014F028C015F04BEC19F01450DE
:10187000300FDF6E3106D8A032063306D8A034060A
:1018800035C002F036C003F037C004F038C005F0B0
:1018900039C006F03AC007F03BC008F03CC009F080
:1018A0000A0E0A6E000E0B6E000E0C6E000E0D6E10
:1018B000000E0E6E000E0F6E000E106E000E116EFA
:1018C000CBEC0EF002C035F003C036F004C037F0A8
:1018D00005C038F006C039F007C03AF008C03BF048
:1018E00009C03CF03FBE7DEF0CF03F5008E13E04E4
:1018F000D8A07DEF0CF07FEF0CF09BEF0CF0355093
:1019000036103710381039103A103B103C10D8A45C
:101910008CEF0CF08EEF0CF0F6EF0BF032BE9BEF7D
:101920000CF0325006E13104D8B099EF0CF09BEF87
:101930000CF0F6EF0BF03D50D8B4A1EF0CF0A3EF94
:101940000CF0AEEF0CF03E06D8A03F06000E3E2491
:10195000D96E010E3F20DA6E3DC0DFFF1DC012F0D0
:101960001EC013F0000E3E24146E010E3F20156EB3
:1019700033C016F034C017F08DEC16F0120023ECD3
:101980001AF0E70E146E000E156E49EC12F0E00E20
:10199000056E000E066E2BEC15F0EF0E0B6E000EB2
:1019A0000C6E6BEC19F0ED0E0B6E000E0C6E6BEC0A
:1019B00019F0E70E1B6E000E1C6E010E1D6E070E59
:1019C0001E6E110E1F6E100E206E3DEC16F0E70E0F
:1019D0001B6E000E1C6E020E1D6E010E1E6E1B0E87
:1019E0001F6E100E206E3DEC16F0E70E1B6E000E03
:1019F0001C6E030E1D6E010E1E6E230E1F6E100E4A
:101A0000206E3DEC16F0E00E0A6E000E0B6E000E1E
:101A10000C6EB80E0D6E000E0E6E04EC17F0E00E9C
:101A20000A6E000E0B6E010E0C6EB60E0D6E000EE1
:101A30000E6E04EC17F0F60E146E280E156E9C0E4A
:101A4000166E400E176EB8C002F0B9C003F0046AFB
:101A5000056A000EF1EC0DF002C010F003C011F0A9
:101A600004C012F005C013F018EC08F010C029F003
:101A700011C02AF012C02BF013C02CF075EC13F03B
:101A800029C0FBF02AC0FCF0F60E146E280E156E6D
:101A90009C0E166E400E176EB6C002F0B7C003F073
:101AA000046A056A000EF1EC0DF002C010F003C0EC
:101AB00011F004C012F005C013F018EC08F010C0CB
:101AC00029F011C02AF012C02BF013C02CF075ECD5
:101AD00013F029C0F9F02AC0FAF0FBC002F0FCC0F4
:101AE00003F0000E056E0A0E046ECAEC16F002C07A
:101AF000FBF003C0FCF0F9C002F0FAC003F0000EE6
:101B0000056E0A0E046ECAEC16F002C0F9F003C0AE
:101B1000FAF0FBC06DF0FCC06EF0AF0E6F6E000E01
:101B2000706E8BEC15F0F9C06DF0FAC06EF0A80E77
:101B30006F6E000E706E8BEC15F0E70E1B6E000ED4
:101B40001C6E020E1D6E080E1E6EAF0E1F6E000E76
:101B5000206E3DEC16F0E70E1B6E000E1C6E030EA1
:101B60001D6E080E1E6EA80E1F6E000E206E3DEC40
:101B700016F00001FC5109E1150EFB5DD8A0C3EF82
:101B80000DF0C5EF0DF0CDEF0DF0EF0E0C6E000E69
:101B90000D6EE4EC18F0D3EF0DF0EF0E0C6E000EAE
:101BA0000D6EC1EC18F00001FA5109E11A0EF95D51
:101BB000D8A0DDEF0DF0DFEF0DF0E7EF0DF0ED0E4B
:101BC0000C6E000E0D6EE4EC18F003EF0DF0ED0E50
:101BD0000C6E000E0D6EC1EC18F003EF0DF007EF68
:101BE00000F00A6E0A50D8B4F8EF0DF0FAEF0DF0DD
:101BF0001CEF0EF005BE01EF0EF0FFEF0DF01CEF35
:101C00000EF002C006F003C007F004C008F005C0E3
:101C100009F0061E071E081E091E062A000E0722CE
:101C20000822092206C00CF007C00DF008C00EF013
:101C300009C00FF024EF0EF002C00CF003C00DF04D
:101C400004C00EF005C00FF0025003100410051080
:101C5000D8A42DEF0EF02FEF0EF039EF0EF0000E9E
:101C6000026E000E036E000E046E000E056ECAEFCB
:101C70000EF0960E0B6E43EF0EF00B2AD8900F323B
:101C80000E320D320C32000E0C14066E000E0D14C6
:101C9000076E000E0E14086EFE0E0F14096E06502D
:101CA000071008100910D8A458EF0EF05AEF0EF0E4
:101CB0003DEF0EF068EF0EF00B2A010E0C26000E21
:101CC0000D220E220F22D8900F320E320D320C321E
:101CD000000E0C14066E000E0D14076E000E0E148E
:101CE000086EFF0E0F14096E065007100810091039
:101CF000D8A47DEF0EF07FEF0EF05CEF0EF087EFD3
:101D00000EF00B06D8900C360D360E360F360EBE82
:101D10008CEF0EF08EEF0EF096EF0EF0020E0B60D1
:101D200094EF0EF096EF0EF081EF0EF00BB09BEFFC
:101D30000EF09DEF0EF09EEF0EF00E9ED8900B323F
:101D40000BC006F0076A086A096A06C009F0086A4B
:101D5000076A066A06500C1207500D1208500E1240
:101D600009500F120A50D8B4B8EF0EF0BAEF0EF0C7
:101D7000C2EF0EF005BEC1EF0EF0BFEF0EF0C2EFE6
:101D80000EF00F8E0CC002F00DC003F00EC004F078
:101D90000FC005F01200000E136E11BED4EF0EF04E
:101DA000D2EF0EF0E6EF0EF0111E101E0F1E0E1EEB
:101DB0000D1E0C1E0B1E0A6C000E0B220C220D2297
:101DC0000E220F2210221122010E136E09BEEDEF1A
:101DD0000EF0EBEF0EF0FFEF0EF0091E081E071ECF
:101DE000061E051E041E031E026C000E03220422A2
:101DF00005220622072208220922010E131A20EECC
:101E000014F0070EDE6AE806FDE20A500B100C1013
:101E10000D100E100F1010101110D8B412EF0FF09B
:101E200014EF0FF066EF0FF0010E126E22EF0FF0BD
:101E3000D8900A360B360C360D360E360F36103665
:101E40001136122A11AE27EF0FF029EF0FF018EF1D
:101E50000FF0D89014361536163617361836193650
:101E60001A361B360A50025C0B5003580C500458AB
:101E70000D5005580E5006580F500758105008586E
:101E800011500958D8A047EF0FF049EF0FF05AEF63
:101E90000FF00A50025E0B50035A0C50045A0D50BA
:101EA000055A0E50065A0F50075A1050085A115032
:101EB000095A1480D890113210320F320E320D327E
:101EC0000C320B320A32122E29EF0FF01350D8B415
:101ED0006CEF0FF06EEF0FF07EEF0FF01B1E1A1E6F
:101EE000191E181E171E161E151E146C000E152224
:101EF00016221722182219221A221B2214C002F0BD
:101F000015C003F016C004F017C005F018C006F0A5
:101F100019C007F01AC008F01BC009F0120002C077
:101F20000CF003C00DF006500710D8A49AEF0FF084
:101F30009CEF0FF09EEF0FF049EF10F00CC0D9FFAF
:101F40000DC0DAFF04C0DFFF06500C24086E0750F6
:101F50000D20096EFF0E0824D96EFF0E0920DA6EDF
:101F600004C0DFFF075007E1030E065CD8B0BBEFEB
:101F70000FF0BDEF0FF0BFEF0FF049EF10F020EEC4
:101F800001F00C50D9260D50DA2204C0DFFF20EEFC
:101F900002F00C50D9260D50DA2204C0DFFF0650A3
:101FA0000C24086E07500D20096EFE0E0824D96E11
:101FB000FF0E0920DA6E04C0DFFF06500C24086E05
:101FC00007500D20096EFD0E0824D96EFF0E092062
:101FD000DA6E04C0DFFF075007E1070E065CD8B0D9
:101FE000F4EF0FF0F6EF0FF0F8EF0FF049EF10F00D
:101FF00020EE03F00C50D9260D50DA2204C0DFFF8A
:1020000006500C24086E07500D20096EFC0E0824A3
:10201000D96EFF0E0920DA6E04C0DFFF075007E11A
:10202000090E065CD8B017EF10F019EF10F01BEF97
:1020300010F049EF10F00CC008F00DC009F0081EB8
:10204000091E084A092A030E08140A6E0B6A0A5070
:102050000C260B500D220A50065E0B50075AFC0E40
:102060000616FF0E071640EF10F00CC0D9FF0DC08A
:10207000DAFF04C0DFFF0606D8A007060C4A0D2AC7
:1020800006500710D8A447EF10F049EF10F035EFD5
:1020900010F01200000E136E09BE53EF10F051EF56
:1020A00010F065EF10F0091E081E071E061E051E23
:1020B000041E031E026C000E0322042205220622C7
:1020C000072208220922010E136E11BE6CEF10F0D8
:1020D0006AEF10F07CEF10F0111E101E0F1E0E1E86
:1020E0000D1E0C1E0B1E0A6C000E0B220C220D2264
:1020F0000E220F22102211220A500B100C100D106C
:102100000E100F1010101110D8B489EF10F08BEFD3
:1021100010F0D3EF10F0010E126E99EF10F0D8907E
:102120000A360B360C360D360E360F361036113693
:10213000122A11AE9EEF10F0A0EF10F08FEF10F00A
:102140000A50025C0B5003580C5004580D500558AF
:102150000E5006580F500758105008581150095883
:10216000D8A0B5EF10F0B7EF10F0C7EF10F00A509D
:10217000025E0B50035A0C50045A0D50055A0E5073
:10218000065A0F50075A1050085A1150095AD89041
:10219000113210320F320E320D320C320B320A3243
:1021A000122EA0EF10F01350D8B4D9EF10F0DBEFDF
:1021B00010F0EBEF10F0091E081E071E061E051E8C
:1021C000041E031E026C000E0322042205220622B6
:1021D00007220822092202C002F003C003F004C053
:1021E00004F005C005F006C006F007C007F008C0FF
:1021F00008F009C009F0120042C0D9FF43C0DAFF5D
:10220000DECFF6FFDDCFF7FFF86A0800F550250AAC
:10221000D8A40DEF11F00FEF11F091EF11F042C0C3
:10222000D9FF43C0DAFFDE2A000EDD22000E0001D6
:10223000876F000E866F86C0A2F08869896942C0E8
:10224000D9FF43C0DAFFDECF50F0DDCF51F050C0F0
:10225000F6FF51C0F7FFF86A0800F550640AD8B4D9
:1022600034EF11F036EF11F045EF11F050C0F6FFEA
:1022700051C0F7FFF86A0800F550690AD8A443EF87
:1022800011F045EF11F088EF11F044C0D9FF45C0BF
:10229000DAFFDFCF46F0020EDE26DFCF47F0000E7A
:1022A000DD2246C0D9FF47C0DAFFDECF48F0DDCFE0
:1022B00049F0000E49BEFF0E4A6E4B6E4C6E4D6EDD
:1022C0004E6E4F6E010E5024466E000E5120476E2A
:1022D00042C0D9FF43C0DAFF46C0DEFF47C0DDFF82
:1022E00040C01DF041C01EF048C01FF049C020F0A2
:1022F0004AC021F04BC022F04CC023F04DC024F066
:102300004EC025F04FC026F080EC0BF0A6EF11F088
:1023100042C0D9FF43C0DAFFDE2A000EDD22A6EF5D
:1023200011F042C0D9FF43C0DAFFDECFF6FFDDCFA8
:10233000F7FFF86A0800F550026E036A40C004F027
:1023400041C005F064EC14F088EF11F01200010EAA
:102350000A6E02500310D8B4B0EF11F0B2EF11F0D2
:10236000C3EF11F002C0D9FF03C0DAFFDF30E8325B
:10237000E832070B046E070E0464C1EF11F0C3EFDF
:1023800011F026EF12F0000E0A6E47EF12F002C0B5
:10239000D9FF03C0DAFFDF30E832E832070B046E02
:1023A000010E056E042AD7EF11F0D8900536042EE1
:1023B000D5EF11F00550FF0A066E02C0D9FF03C029
:1023C000DAFFDF50070B076E0750020DCE0EF32425
:1023D000D96E000EF420DA6EDECF08F0DDCF09F002
:1023E00008C0D9FF09C0DAFF0650DF1647EF12F028
:1023F00002C0D9FF03C0DAFFDF30E832E832070B52
:10240000046E010E056E042A08EF12F0D89005360E
:10241000042E06EF12F002C0D9FF03C0DAFFDF502E
:10242000070B066E0650020DCE0EF324D96E000E79
:10243000F420DA6EDECF07F0DDCF08F007C0D9FF59
:1024400008C0DAFF0550DF1247EF12F002C0D9FFD3
:1024500003C0DAFFDFBC2FEF12F032EF12F0010EF3
:1024600033EF12F0000E046E056A0550000AD8B46E
:102470003CEF12F0C3EF11F00450000AD8B4C7EFDC
:1024800011F0010AD8B4F8EF11F0C3EF11F00A50BF
:102490001200000E186E14501510D8A452EF12F04E
:1024A00054EF12F058EF12F0000E196EDDEF12F03B
:1024B00014C00CF015C00DF0B0EC17F0196E010E41
:1024C00014240C6E000E15200D6EB0EC17F0196E72
:1024D000000E186E18501424166E000E1520176E7C
:1024E000020E16240C6E000E17200D6EB0EC17F0C5
:1024F000182A030E18647FEF12F081EF12F06AEFD2
:1025000012F01A0E166EF80EE82EFED7162EFCD715
:1025100000D014C010F015C011F0380E126E77EC18
:1025200017F0070E166E7D0EE82EFED7162EFCD77E
:1025300000F014C010F015C011F0380E126E77ECD8
:1025400017F0320EE82EFED714C010F015C011F0AF
:10255000380E126E77EC17F014C010F015C011F0A1
:10256000010E126E77EC17F014C010F015C011F0C8
:10257000020E126E77EC17F014C010F015C011F0B7
:10258000060E126E77EC17F014C010F015C011F0A3
:102590000C0E126E77EC17F014C010F015C011F08D
:1025A000280E126E77EC17F014C010F015C011F061
:1025B000800E126E77EC17F0196E19501200010E92
:1025C0000B6E02500310D8B4E8EF12F0EAEF12F0ED
:1025D000FBEF12F002C0D9FF03C0DAFFDF30E832B0
:1025E000E832070B056E070E0564F9EF12F0FBEFFA
:1025F00012F05EEF13F0000E0B6E73EF13F002C0DB
:10260000D9FF03C0DAFFDF30E832E832070B056E8E
:10261000010E066E052A0FEF13F0D8900636052E30
:102620000DEF13F00650FF0A076E02C0D9FF03C07A
:10263000DAFFDF50070B086E0850020DC40EF324BA
:10264000D96E000EF420DA6EDECF09F0DDCF0AF08D
:1026500009C0D9FF0AC0DAFF0750DF1673EF13F085
:1026600002C0D9FF03C0DAFFDF30E832E832070BDF
:10267000056E010E066E052A40EF13F0D89006365F
:10268000052E3EEF13F002C0D9FF03C0DAFFDF5082
:10269000070B076E0750020DC40EF324D96E000E0F
:1026A000F420DA6EDECF08F0DDCF09F008C0D9FFE4
:1026B00009C0DAFF0650DF1273EF13F00450056E05
:1026C000066A0650000AD8B468EF13F0FBEF12F068
:1026D0000550000AD8B4FFEF12F0010AD8B430EF69
:1026E00013F0FBEF12F00B5012002B342C34326E2F
:1026F0003250D8A47EEF13F080EF13F08AEF13F07E
:10270000000E296E000E2A6E000E2B6E000E2C6E2F
:10271000F7EF13F029C02DF02AC02EF02BC02FF0B8
:102720002CC030F0200E9AEF13F0D89030322F32B8
:102730002E322D32E82E95EF13F02D50316E2B8E68
:10274000FF0E2916FF0E2A16FF0E2B16000E2C1652
:10275000960E325E32BEB1EF13F0AFEF13F0C7EF5B
:1027600013F03250800A970FD8B0B9EF13F0BBEFD7
:1027700013F0BDEF13F080EF13F0D8902C322B3212
:102780002A322932323EBDEF13F0DFEF13F01F0E75
:102790003264CDEF13F0CFEF13F0D7EF13F080EFEB
:1027A00013F0D89029362A362B362C363206325082
:1027B000D8A4DDEF13F0DFEF13F0D1EF13F03150B9
:1027C000D8B4E5EF13F0E7EF13F0EFEF13F02C1EA2
:1027D0002B1E2A1E296C000E2A222B222C2229C0F5
:1027E00029F02AC02AF02BC02BF02CC02CF01200AC
:1027F000046E22EF14F0928063EF14F0928263EF84
:1028000014F0928463EF14F0928663EF14F0928ACE
:1028100063EF14F0968063EF14F0968263EF14F088
:10282000968463EF14F0938463EF14F0938663EF60
:1028300014F0938263EF14F0938863EF14F09380A5
:1028400063EF14F00450026E036A0350000AD8B418
:102850002CEF14F063EF14F00250000AD8B4FBEF31
:1028600013F0010AD8B4FEEF13F0030AD8B401EF55
:1028700014F0010AD8B404EF14F0070AD8B407EF33
:1028800014F0010AD8B40AEF14F0030AD8B40DEF1B
:1028900014F0010AD8B410EF14F00F0AD8B413EFF3
:1028A00014F0010AD8B416EF14F0030AD8B419EFE3
:1028B00014F0010AD8B41CEF14F0070AD8B41FEFC3
:1028C00014F063EF14F0120004500510D8B46BEF4D
:1028D00014F06DEF14F076EF14F004500510D8A446
:1028E00074EF14F076EF14F07BEF14F0025030EC3C
:1028F0001AF0C8EF14F020EE09F00450D926055064
:10290000DA22DE50DE10D8B488EF14F08AEF14F02B
:10291000A5EF14F020EE09F00450D9260550DA2274
:1029200010EE03F00450E1260550E222DE50E65C92
:10293000E650800A0A6EDE50800A0A58D8B0A3EF2B
:1029400014F0A5EF14F0C8EF14F020EE03F00450DB
:10295000D9260550DA22DECF06F0DDCF07F004C01D
:10296000D9FF05C0DAFFDECF08F0DDCF09F0065051
:102970000824D96E07500920DA6E02C0DFFF20EE6E
:1029800003F00450D9260550DA22DE2A000EDD229B
:10299000120002500310D8B4D0EF14F0D2EF14F0AC
:1029A000DBEF14F004500510D8A4D9EF14F0DBEFDE
:1029B00014F0DFEF14F0000E096E29EF15F020EE91
:1029C00006F00250D9260350DA22DFA2EAEF14F013
:1029D000ECEF14F000EF15F0C350C4CF06F0076A17
:1029E00006C007F0066A0626000E072204C0D9FFBB
:1029F00005C0DAFF06C0DEFF07C0DDFF27EF15F0D8
:102A000020EE06F00250D9260350DA22DFB20BEF97
:102A100015F00DEF15F0ECEF14F0C350C4CF06F035
:102A2000076A06C007F0066A0626000E0722060E91
:102A3000086E073407320632082E19EF15F004C06D
:102A4000D9FF05C0DAFF06C0DEFF07C0DDFF010EBB
:102A5000096E0950120005500610D8A432EF15F087
:102A600034EF15F038EF15F0000E086E89EF15F011
:102A7000C29020EE03F00550D9260650DA22DF502E
:102A8000076E074607460746C0500718C70B0718CA
:102A9000C06E20EE04F00550D9260650DA22DF5031
:102AA000076EC0500718F80B0718C06E20EE05F02F
:102AB0000550D9260650DA22DF50076E0746074632
:102AC000C2500718C30B0718C26E20EE05F0055060
:102AD000D9260650DA22DF50F8EC13F09D8C9E9C2C
:102AE000F28EF28C05C0D9FF06C0DAFFDECF8AF085
:102AF000DDCF8BF005C002F006C003F029EC19F021
:102B000005C002F006C003F09CEC18F0C280010E74
:102B1000086E08501200010E0001F76F20EEF1F070
:102B2000050EDE6AE806FDE2000EF86F6F507010C9
:102B3000D8A49DEF15F09FEF15F0A3EF15F0000E50
:102B4000F76FE7EF15F06FC002F070C003F0000EF2
:102B5000056E200E046E000E076E050E066E8FECDD
:102B60000FF020EE05F06F50D9267050DA22000EDB
:102B7000DF6EF10E5A6E000E5B6E2B0E5C6E100E49
:102B80005D6E6DC05EF06EC05FF075EC18F0D8EF52
:102B900015F0F10EF825D96EDA6A000EDA22F85136
:102BA0006F24E16E000E7020E26EDFCFE7FFF82B9E
:102BB000F10E0001F825D96EDA6A000EDA22DF5034
:102BC000D8A4E5EF15F0E7EF15F0C9EF15F0F751D0
:102BD0001200010E1A6E17061EEF16F014C010F048
:102BE00015C011F01750800F126E77EC17F01A6EA7
:102BF0003BEF16F014C010F015C011F01750C00FC5
:102C0000126E77EC17F01A6E3BEF16F014C010F04E
:102C100015C011F01750940F126E77EC17F01A6E62
:102C20003BEF16F014C010F015C011F01750D40F80
:102C3000126E77EC17F01A6E3BEF16F01650186E06
:102C4000196A1950000AD8B428EF16F03BEF16F0B5
:102C50001850010AD8B4EEEF15F0030AD8B4FAEF11
:102C600015F0010AD8B406EF16F0070AD8B412EF2F
:102C700016F03BEF16F01A5012001B501C10D8A48F
:102C800044EF16F046EF16F04AEF16F0000E216EF4
:102C90008BEF16F01BC014F01CC015F01DC016F011
:102CA0001EC017F0E9EC15F0216E72EF16F01BC094
:102CB00010F01CC011F01FC0F6FF20C0F7FF000E7F
:102CC000F86E0F0EF76403D00800F55005D0F6CF6C
:102CD000E9FFF7CFEAFFEF50126E3EEC17F0216EDE
:102CE0001F4A202A1FC0F6FF20C0F7FF000EF86E13
:102CF0000F0EF76403D00800F55005D0F6CFE9FFBA
:102D0000F7CFEAFFEF500009D8A489EF16F08BEF58
:102D100016F057EF16F02150120017BE92EF16F082
:102D200094EF16F09AEF16F016C01BF017C01CF0C7
:102D30009EEF16F0000E1C6E000E1B6E000E1A6E3B
:102D4000000E196EB0EF16F0000E036E200E026E2C
:102D500012C004F013C005F064EC14F0194A1A2AEA
:102D60001B50195C1A50800A186E1C50800A1858A3
:102D7000D8A0BDEF16F0BFEF16F0A4EF16F014C008
:102D80000BF015C00CF012C00DF013C00EF007ECE4
:102D900019F01200000E076E000E066E04500510AA
:102DA000D8B4D5EF16F0D7EF16F0FFEF16F0010EFE
:102DB000086EDFEF16F0D89004360536082A05AE07
:102DC000E4EF16F0E6EF16F0DBEF16F0D8900636DB
:102DD00007360450025C05500358D8A0F2EF16F0F5
:102DE000F4EF16F0F9EF16F00450025E0550035AA6
:102DF0000680D89005320432082EE6EF16F006C0A1
:102E000002F007C003F012000A500B10D8B40BEF09
:102E100017F00DEF17F016EF17F00D500E10D8A4A5
:102E200014EF17F016EF17F01AEF17F0000E0F6EF1
:102E30003CEF17F00AC005F00BC006F00CC007F01D
:102E40008AEC19F00F6E0AC002F00BC003F0DDEC43
:102E500019F00F6EC2B22FEF17F031EF17F02AEF13
:102E600017F00AC002F00BC003F00DC004F00EC052
:102E700005F0C9EC14F00F6E0F5012001050111035
:102E8000D8A445EF17F047EF17F04BEF17F0000EFF
:102E9000136E75EF17F010C002F011C003F0010EB1
:102EA000046EDFEC12F0136E10C00CF011C00DF0C8
:102EB00012380F0B0E6EE6EC17F0136E10C00CF00C
:102EC00011C00DF0C3EC19F0136E10C00CF011C05E
:102ED0000DF012C00EF0E6EC17F0136E10C00CF0FF
:102EE00011C00DF0C3EC19F0136E13501200105006
:102EF0001110D8A47EEF17F080EF17F084EF17F0D1
:102F0000000E136EAEEF17F010C002F011C003F008
:102F1000000E046EDFEC12F0136E10C00CF011C046
:102F20000DF012380F0B0E6EE6EC17F0136E10C09A
:102F30000CF011C00DF0C3EC19F0136E10C00CF0C2
:102F400011C00DF012C00EF0E6EC17F0136E10C0B9
:102F50000CF011C00DF0C3EC19F0136E13501200F9
:102F60000C500D10D8B4B7EF17F0B9EF17F0CAEF47
:102F700017F00CC0D9FF0DC0DAFFDF30E832E832BD
:102F8000070B0E6E070E0E64C8EF17F0CAEF17F0AE
:102F9000CEEF17F0000E0F6EE4EF17F00CC002F04A
:102FA0000DC003F0A7EC11F00F6E0CC002F00DC0C5
:102FB00003F00CC0D9FF0DC0DAFF000EDFBE010E1A
:102FC000046EDFEC12F00F6E0F501200020E0C2494
:102FD000026E000E0D20036E0E50010B046EDFEC2E
:102FE00012F0030E0C24026E000E0D20036ED8901A
:102FF0000E30010B046EDFEC12F0040E0C24026E96
:10300000000E0D20036E0E40E8423F0B010B046ED4
:10301000DFEC12F0050E0C24026E000E0D20036E84
:103020000E38E8461F0B010B046EDFEC12F00F6E3A
:103030000F5012004E0EF66E330EF76E000EF86E45
:1030400000EEBAF010EE37F00900F5CFEEFFE550D4
:10305000E150FAE14C0EF66E340EF76E000EF86E8B
:1030600000EE71F010EE04F00900F5CFEEFFE55030
:10307000E150FAE101EE00F0200EEE6AE806FDE113
:1030800000EE80F03A0EEE6AE806FDE1766A756AB7
:10309000779077920001BFEF0CF054C058F055C004
:1030A00059F061EF18F052C040F053C041F0580E93
:1030B000426E000E436E56C044F057C045F0FCEC23
:1030C00010F058C0F6FF59C0F7FFF86A0800F55035
:1030D0000009D8A46EEF18F070EF18F053EF18F055
:1030E000000E536E000E526E12005E0E606E000EE9
:1030F000616E5AC062F05BC063F0000E666E000E37
:10310000656E000E6C6E000E6B6E620E526E000EDF
:10311000536E5CC054F05DC055F0600E566E000EEC
:10312000576E4DEC18F065505A24D96E66505B20EE
:10313000DA6E000EDF6E120020EE06F00250D92685
:103140000350DA22DFA0A7EF18F0A9EF18F0ADEFD7
:1031500018F0C18AC188C0EF18F020EE06F00250C6
:10316000D9260350DA22DFB0B8EF18F0BAEF18F022
:10317000BEEF18F0C19AC198C0EF18F0C19AC1987B
:103180001200010E0E6E0C500D10D8A4CAEF18F0EC
:10319000CCEF18F0D0EF18F0000E0E6EE2EF18F042
:1031A0000CC002F00DC003F0000E046EDFEC12F054
:1031B000010E0C24026E000E0D20036E000E046E34
:1031C000DFEC12F00E501200010E0E6E0C500D10BE
:1031D000D8A4EDEF18F0EFEF18F0F3EF18F0000EB1
:1031E0000E6E05EF19F00CC002F00DC003F0010ED9
:1031F000046EDFEC12F0010E0C24026E000E0D20A6
:10320000036E000E046EDFEC12F00E501200000E82
:10321000116E000E106E18EF19F00FC002F0036A65
:103220000DC004F00EC005F064EC14F0104A112A31
:1032300010500B24D96E11500C20DA6EDF500F6E37
:103240000F50D8A426EF19F028EF19F00DEF19F060
:10325000120020EE06F00250D9260350DA22DFA237
:1032600034EF19F036EF19F039EF19F0C08E4AEF4C
:1032700019F020EE06F00250D9260350DA22DFB210
:1032800044EF19F046EF19F049EF19F0C09E4AEFEC
:1032900019F0C08E120015BE58EF19F0155006E156
:1032A0001404D8B056EF19F058EF19F066EF19F082
:1032B00014C016F015C017F0161E171E164A172A4E
:1032C00016C014F017C015F06AEF19F014C014F00E
:1032D00015C015F01200010E0D6E0B500C10D8A485
:1032E00074EF19F076EF19F07AEF19F0000E0D6E09
:1032F00088EF19F00BC002F00CC003F0A7EC11F03E
:10330000010E0B24026E000E0C20036EA7EC11F0D0
:103310000D50120005500610D8A491EF19F093EF4C
:1033200019F097EF19F0000E096EA5EF19F007C01C
:1033300008F008460846C2500818C30B0818C26EA9
:103340000750F8EC13F0010E096E09501200800FBF
:10335000810F820F830F840F890F8A0F8B0F8C0FC1
:103360008D0F920F930F940F950F960F020A121A5A
:10337000626A727A00000005050002020A121A222F
:053380002A131B030BE2
:10338600010E0C24026E000E0D20036E010E046E5B
:10339600DFEC12F000D000D000F0010E0C24026E1B
:1033A600000E0D20036E000E046EDFEC12F00E6EA2
:1033B6000E50120002500310D8A4E4EF19F0E6EF05
:1033C60019F0EAEF19F0000E046EEDEF19F0C28263
:1033D600010E046E04501200016EF2900150D8A442
:1033E600F7EF19F0F9EF19F0FBEF19F0FBEF19F011
:1033F6001200016EF2900150D8A404EF1AF006EF05
:103406001AF008EF1AF008EF1AF01200016EF290A7
:103416000150D8A411EF1AF013EF1AF015EF1AF0B5
:1034260015EF1AF01200016EF2900150D8A41EEFAB
:103436001AF020EF1AF022EF1AF022EF1AF012001B
:1034460031EC1AF0120001010101F0921200F09025
:0E3456001200F29212009E9C12001200120050
:020000040020DA
:08000000FFFFFFFFFFFFFFFF00
:020000040030CA
:0E000000FF020F1EFF8181FF0FC00FE00F40B7
:00000001FF
