:040000001FEF7EF080
:10FC0200210E2C6E000E2D6E3AEC7EF01F0E2C6E25
:10FC1200000E2D6E3AEC7EF01200800F810F820FE3
:10FC2200830F840F890F8A0F8B0F8C0F8D0F920F0A
:10FC3200930F940F950F960F121A020A1C0EF66E6E
:10FC4200FC0EF76E000EF86E00EE01F010EE22F0E0
:10FC52000900F5CFEEFFE550E150FAE100EE32F097
:10FC6200070EEE6AE806FDE1000EF86E00019FEF56
:10FC72007EF0010E2E6E2C502D10D8A443EF7EF094
:10FC820045EF7EF049EF7EF0000E2E6E57EF7EF0CC
:10FC92002CC023F02DC024F05EEC7FF0010E2C244A
:10FCA200236E000E2D20246E5EEC7FF02E5012008B
:10FCB200010E2F6E2D502E10D8A462EF7EF064EF4D
:10FCC2007EF068EF7EF0000E2F6E7AEF7EF02DC090
:10FCD20023F02EC024F0000E256EC8EC7EF0010E3B
:10FCE2002D24236E000E2E20246E010E256EC8ECEC
:10FCF2007EF02F501200010E2F6E2D502E10D8A420
:10FD020085EF7EF087EF7EF08BEF7EF0000E2F6E98
:10FD12009DEF7EF02DC023F02EC024F0010E256E43
:10FD2200C8EC7EF0010E2D24236E000E2E20246ED0
:10FD3200000E256EC8EC7EF02F50120001EC7EF012
:10FD4200210E2D6E000E2E6E7CEC7EF01F0E2D6E9F
:10FD5200000E2E6E7CEC7EF0330E316EBB0E306EDA
:10FD6200E00EE82EFED7302EFCD7312EFAD7210E28
:10FD72002D6E000E2E6E59EC7EF01F0E2D6E000EB3
:10FD82002E6E59EC7EF0A1EF7EF000EF00F0010E36
:10FD92002C6E23502410D8B4D1EF7EF0D3EF7EF036
:10FDA200E4EF7EF023C0D9FF24C0DAFFDF30E8326F
:10FDB200E832070B266E070E2664E2EF7EF0E4EFD0
:10FDC2007EF047EF7FF0000E2C6E5CEF7FF023C0D9
:10FDD200D9FF24C0DAFFDF30E832E832070B266EA3
:10FDE200010E276E262AF8EF7EF0D8902736262EAF
:10FDF200F6EF7EF02750FF0A286E23C0D9FF24C0F9
:10FE0200DAFFDF50070B296E2950020D0B0EF32487
:10FE1200D96E000EF420DA6EDECF2AF0DDCF2BF0A1
:10FE22002AC0D9FF2BC0DAFF2850DF165CEF7FF023
:10FE320023C0D9FF24C0DAFFDF30E832E832070BF3
:10FE4200266E010E276E262A29EF7FF0D8902736DC
:10FE5200262E27EF7FF023C0D9FF24C0DAFFDF5020
:10FE6200070B286E2850020D0B0EF324D96E000EDC
:10FE7200F420DA6EDECF29F0DDCF2AF029C0D9FFD7
:10FE82002AC0DAFF2750DF125CEF7FF02550266E82
:10FE9200276A2750000AD8B451EF7FF0E4EF7EF0D2
:10FEA2002650000AD8B4E8EF7EF0010AD8B419EF60
:10FEB2007FF0E4EF7EF02C501200010E2B6E2350E7
:10FEC2002410D8B467EF7FF069EF7FF07AEF7FF00C
:10FED20023C0D9FF24C0DAFFDF30E832E832070B53
:10FEE200256E070E256478EF7FF07AEF7FF0DDEF65
:10FEF2007FF0000E2B6EFEEF7FF023C0D9FF24C0EF
:10FF0200DAFFDF30E832E832070B256E010E266E8B
:10FF1200252A8EEF7FF0D8902636252E8CEF7FF0A3
:10FF22002650FF0A276E23C0D9FF24C0DAFFDF5014
:10FF3200070B286E2850020D150EF324D96E000E01
:10FF4200F420DA6EDECF29F0DDCF2AF029C0D9FF06
:10FF52002AC0DAFF2750DF16FEEF7FF023C0D9FF59
:10FF620024C0DAFFDF30E832E832070B256E010EDB
:10FF7200266E252ABFEF7FF0D8902636252EBDEFBC
:10FF82007FF023C0D9FF24C0DAFFDF50070B276EB2
:10FF92002750020D150EF324D96E000EF420DA6EEE
:10FFA200DECF28F0DDCF29F028C0D9FF29C0DAFF43
:10FFB2002650DF12FEEF7FF023C0D9FF24C0DAFF04
:10FFC200DFBCE6EF7FF0E9EF7FF0010EEAEF7FF0B2
:10FFD200000E256E266A2650000AD8B4F3EF7FF091
:10FFE2007AEF7FF02550000AD8B47EEF7FF0010A45
:0EFFF200D8B4AFEF7FF07AEF7FF02B50120003
:020000040020DA
:08000000FFFFFFFFFFFFFFFF00
:020000040030CA
:0E000000FF020F1EFF8181FF0FC00FE00F40B7
:00000001FF
