:0400000023EF00F0FA
:060008007C82D6ED0AF037
:100018007C80E0CF5FF0F0A614EF00F016EF00F060
:100028001FEF00F0F0A01BEF00F01DEF00F01FEF36
:1000380000F060EC0BF05FC0E0FF7C90100017EF61
:020048000BF0BB
:10100000003738392F3435362A3132332D23303DED
:101010002B48656C6C6F20576F726C6421002569DA
:101020000000010E686E60506110D8B41AEF08F02D
:101030001CEF08F02DEF08F060C0D9FF61C0DAFFA7
:10104000DF30E832E832070B626E070E62642BEF86
:1010500008F02DEF08F090EF08F0000E686EB1EF89
:1010600008F060C0D9FF61C0DAFFDF30E832E83253
:10107000070B626E010E636E622A41EF08F0D89092
:101080006336622E3FEF08F06350FF0A646E60C063
:10109000D9FF61C0DAFFDF50070B656E6550020DA6
:1010A000150EF324D96E000EF420DA6EDECF66F052
:1010B000DDCF67F066C0D9FF67C0DAFF6450DF1686
:1010C000B1EF08F060C0D9FF61C0DAFFDF30E8326D
:1010D000E832070B626E010E636E622A72EF08F04F
:1010E000D8906336622E70EF08F060C0D9FF61C0FF
:1010F000DAFFDF50070B646E6450020D150EF32407
:10110000D96E000EF420DA6EDECF65F0DDCF66F02A
:1011100065C0D9FF66C0DAFF6350DF12B1EF08F097
:1011200060C0D9FF61C0DAFFDFBC99EF08F09CEF27
:1011300008F0010E9DEF08F0000E626E636A6350C6
:10114000000AD8B4A6EF08F02DEF08F06250000AAC
:10115000D8B431EF08F0010AD8B462EF08F02DEFEF
:1011600008F068501200000E7A6E76507710D8A4FE
:10117000BCEF08F0BEEF08F0C2EF08F0000E7B6E87
:1011800047EF09F076C06AF077C06BF06FEC0AF0B9
:101190007B6E010E76246A6E000E77206B6E6FEC0C
:1011A0000AF07B6E000E7A6E7A507624786E000E0E
:1011B0007720796E020E78246A6E000E79206B6EAD
:1011C0006FEC0AF07A2A070E7A64E9EF08F0EBEF89
:1011D00008F0D4EF08F01A0E786EF80EE82EFED75D
:1011E000782EFCD700D076C06DF077C06EF0380E48
:1011F0006F6E27EC0AF0070E786E7D0EE82EFED794
:10120000782EFCD700F076C06DF077C06EF0380E07
:101210006F6E27EC0AF0320EE82EFED776C06DF026
:1012200077C06EF0380E6F6E27EC0AF076C06DF066
:1012300077C06EF0010E6F6E27EC0AF076C06DF08D
:1012400077C06EF0020E6F6E27EC0AF076C06DF07C
:1012500077C06EF0060E6F6E27EC0AF076C06DF068
:1012600077C06EF00C0E6F6E27EC0AF076C06DF052
:1012700077C06EF0380E6F6E27EC0AF076C06DF016
:1012800077C06EF0800E6F6E27EC0AF07B6E7B509D
:101290001200010E696E60506110D8B452EF09F06F
:1012A00054EF09F065EF09F060C0D9FF61C0DAFFC3
:1012B000DF30E832E832070B636E070E636463EFDA
:1012C00009F065EF09F0C8EF09F0000E696EDDEF77
:1012D00009F060C0D9FF61C0DAFFDF30E832E832E0
:1012E000070B636E010E646E632A79EF09F0D890E4
:1012F0006436632E77EF09F06450FF0A656E60C0B4
:10130000D9FF61C0DAFFDF50070B666E6650020D31
:101310000B0EF324D96E000EF420DA6EDECF67F0E8
:10132000DDCF68F067C0D9FF68C0DAFF6550DF160F
:10133000DDEF09F060C0D9FF61C0DAFFDF30E832CD
:10134000E832070B636E010E646E632AAAEF09F0A0
:10135000D8906436632EA8EF09F060C0D9FF61C051
:10136000DAFFDF50070B656E6550020D0B0EF3249C
:10137000D96E000EF420DA6EDECF66F0DDCF67F0B6
:1013800066C0D9FF67C0DAFF6450DF12DDEF09F0F5
:101390006250636E646A6450000AD8B4D2EF09F0F8
:1013A00065EF09F06350000AD8B469EF09F0010A4B
:1013B000D8B49AEF09F065EF09F069501200000EF9
:1013C000756E6D506E10D8A4E8EF09F0EAEF09F0E1
:1013D000EEEF09F0000E746E25EF0AF06DC060F0BC
:1013E0006EC061F0010E626E49EC09F0000E756E80
:1013F00075506D24706E000E6E20716E020E70249A
:10140000606E000E7120616E75C072F06FC073F077
:10141000722A0DEF0AF0D8907332722E0BEF0AF099
:101420007350010B626E49EC09F0752A070E756462
:101430001CEF0AF01EEF0AF0F8EF09F06DC06AF039
:101440006EC06BF032EC0BF0746E74501200000E34
:10145000756E6D506E10D8A430EF0AF032EF0AF0BE
:1014600036EF0AF0000E746E6DEF0AF06DC060F09A
:101470006EC061F0000E626E49EC09F0000E756EF0
:1014800075506D24706E000E6E20716E020E702409
:10149000606E000E7120616E75C072F06FC073F0E7
:1014A000722A55EF0AF0D8907332722E53EF0AF079
:1014B0007350010B626E49EC09F0752A070E7564D2
:1014C00064EF0AF066EF0AF040EF0AF06DC06AF0D0
:1014D0006EC06BF032EC0BF0746E745012006A50F8
:1014E0006B10D8B476EF0AF078EF0AF089EF0AF0C3
:1014F0006AC0D9FF6BC0DAFFDF30E832E832070B91
:101500006C6E070E6C6487EF0AF089EF0AF08DEFBE
:101510000AF0000E6D6EA3EF0AF06AC060F06BC0B7
:1015200061F011EC08F06D6E6AC060F06BC061F0A4
:101530006AC0D9FF6BC0DAFF000EDFBE010E626E1B
:1015400049EC09F06D6E6D501200010E7A6E765006
:101550007710D8A4AEEF0AF0B0EF0AF0C5EF0AF0AA
:10156000000E7A6ED4EF0AF076C06DF077C06EF0A0
:1015700078C0F6FF79C0F7FFF86A0800F5CF6FF082
:10158000DFEC09F07A6E784A792A78C0F6FF79C0E4
:10159000F7FFF86A0800F5500009D8A4D2EF0AF066
:1015A000D4EF0AF0B4EF0AF07A5012000600F0A867
:1015B000DCEF0AF0DEEF0AF0E7EF0AF0F0A2E3EF6B
:1015C0000AF0E5EF0AF0E7EF0AF062EC0BF0F2A8A0
:1015D000ECEF0AF0EEEF0AF0F7EF0AF0F2A2F3EF09
:1015E0000AF0F5EF0AF0F7EF0AF064EC0BF07C92EA
:1015F0001100800F810F820F830F840F890F8A0FD4
:101600008B0F8C0F8D0F920F930F940F950F960FDA
:10161000020A121A626A727A020A121A222A010154
:0D16200001012D323A030B131B232B333B2A
:10162E00F20EF66E150EF76E000EF86E00EE01F06D
:10163E0010EE3BF00900F5CFEEFFE550E150FAE178
:10164E0000EE3CF0230EEE6AE806FDE17C907C9203
:10165E0000014CEF0BF0010E6A24606E000E6B2041
:10166E00616E010E626E49EC09F000D000D000F000
:10167E00010E6A24606E000E6B20616E000E626EAB
:10168E0049EC09F06C6E6C501200320E766E000E44
:10169E00776EB3EC08F0320E766E000E776E110E8A
:1016AE00786E100E796EA5EC0AF05CEF0BF023EF5E
:0E16BE0000F0F0901200F0921200F292120072
:020000040020DA
:08000000FFFFFFFFFFFFFFFF00
:020000040030CA
:0E000000FF020F1EFF8181FF0FC00FE00F40B7
:00000001FF
