:0400000007EF00F016
:0A00080079820BED08F002EF0DF015
:10100000003738392F3435362A3132332D23303DED
:051010002B2569000022
:101016000600FACF64F0FBCF65F0F2A815EF08F0F2
:1010260017EF08F020EF08F0F2A21CEF08F01EEF11
:1010360008F020EF08F073EC0DF0F0A625EF08F0AD
:1010460027EF08F030EF08F0F0A02CEF08F02EEFB5
:1010560008F030EF08F071EC0DF0F0A835EF08F06D
:1010660037EF08F040EF08F0F0A23CEF08F03EEF53
:1010760008F040EF08F06FEC0DF0F2A645EF08F02F
:1010860047EF08F062EF08F0F2A04CEF08F04EEFE1
:1010960008F062EF08F081A853EF08F055EF08F06A
:1010A60062EF08F03004D8A45BEF08F05DEF08F0BB
:1010B60062EF08F0000E306E000E5FEC0DF0F2A647
:1010C60067EF08F069EF08F084EF08F0F2A06EEF22
:1010D60008F070EF08F084EF08F081B875EF08F0BB
:1010E60077EF08F084EF08F03050D8A47DEF08F0D1
:1010F6007FEF08F084EF08F0010E306E010E5FEC12
:101106000DF0F2A689EF08F08BEF08F0A6EF08F0D5
:10111600F2A090EF08F092EF08F0A6EF08F081AA8F
:1011260097EF08F099EF08F0A6EF08F02F04D8A47F
:101136009FEF08F0A1EF08F0A6EF08F0000E2F6E63
:10114600000E52EC0DF0F2A6ABEF08F0ADEF08F092
:10115600C8EF08F0F2A0B2EF08F0B4EF08F0C8EF5D
:1011660008F081BAB9EF08F0BBEF08F0C8EF08F055
:101176002F50D8A4C1EF08F0C3EF08F0C8EF08F06D
:10118600010E2F6E010E52EC0DF0F2A6CDEF08F017
:10119600CFEF08F0EAEF08F0F2A0D4EF08F0D6EFB0
:1011A60008F0EAEF08F081ACDBEF08F0DDEF08F0BD
:1011B600EAEF08F02E04D8A4E3EF08F0E5EF08F014
:1011C600EAEF08F0000E2E6E000E45EC0DF0F2A6CA
:1011D600EFEF08F0F1EF08F00CEF09F0F2A0F6EFF0
:1011E60008F0F8EF08F00CEF09F081BCFDEF08F00D
:1011F600FFEF08F00CEF09F02E50D8A405EF09F028
:1012060007EF09F00CEF09F0010E2E6E010E45EC0A
:101216000DF0F2A611EF09F013EF09F02EEF09F029
:10122600F2A018EF09F01AEF09F02EEF09F081AEDF
:101236001FEF09F021EF09F02EEF09F02D04D8A4D5
:1012460027EF09F029EF09F02EEF09F0000E2D6EB9
:10125600000E38EC0DF0F2A633EF09F035EF09F089
:1012660050EF09F0F2A03AEF09F03CEF09F050EF29
:1012760009F081BE41EF09F043EF09F050EF09F0A4
:101286002D50D8A449EF09F04BEF09F050EF09F0C3
:10129600010E2D6E010E38EC0DF09DAC55EF09F0E8
:1012A60057EF09F060EF09F09EAC5CEF09F05EEFD6
:1012B60009F060EF09F075EC0DF0F2AA65EF09F0A0
:1012C60067EF09F070EF09F0F2A46CEF09F06EEF2A
:1012D60009F070EF09F01DEC0DF065C0FBFF64C06E
:1012E600FAFF79921100010E6E6E66506710D8B43F
:1012F6007FEF09F081EF09F092EF09F066C0D9FFA0
:1013060067C0DAFFDF30E832E832070B686E070E97
:10131600686490EF09F092EF09F0F5EF09F0000E1E
:101326006E6E16EF0AF066C0D9FF67C0DAFFDF30CF
:10133600E832E832070B686E010E696E682AA6EF7E
:1013460009F0D8906936682EA4EF09F06950FF0AB3
:101356006A6E66C0D9FF67C0DAFFDF50070B6B6E97
:101366006B50020D150EF324D96E000EF420DA6EC2
:10137600DECF6CF0DDCF6DF06CC0D9FF6DC0DAFF4B
:101386006A50DF1616EF0AF066C0D9FF67C0DAFFAB
:10139600DF30E832E832070B686E010E696E682AA4
:1013A600D7EF09F0D8906936682ED5EF09F066C0F8
:1013B600D9FF67C0DAFFDF50070B6A6E6A50020D6D
:1013C600150EF324D96E000EF420DA6EDECF6BF024
:1013D600DDCF6CF06BC0D9FF6CC0DAFF6950DF124D
:1013E60016EF0AF066C0D9FF67C0DAFFDFBCFEEF72
:1013F60009F001EF0AF0010E02EF0AF0000E686E26
:10140600696A6950000AD8B40BEF0AF092EF09F046
:101416006850000AD8B496EF09F0010AD8B4C7EFAD
:1014260009F092EF09F06E501200010E6F6E6650D1
:101436006710D8B421EF0AF023EF0AF034EF0AF070
:1014460066C0D9FF67C0DAFFDF30E832E832070B43
:10145600696E070E696432EF0AF034EF0AF097EF0F
:101466000AF0000E6F6EACEF0AF066C0D9FF67C0D7
:10147600DAFFDF30E832E832070B696E010E6A6E7A
:10148600692A48EF0AF0D8906A36692E46EF0AF0C4
:101496006A50FF0A6B6E66C0D9FF67C0DAFFDF507D
:1014A600070B6C6E6C50020D0B0EF324D96E000EFA
:1014B600F420DA6EDECF6DF0DDCF6EF06DC0D9FFB1
:1014C6006EC0DAFF6B50DF16ACEF0AF066C0D9FFCC
:1014D60067C0DAFFDF30E832E832070B696E010ECB
:1014E6006A6E692A79EF0AF0D8906A36692E77EF24
:1014F6000AF066C0D9FF67C0DAFFDF50070B6B6ED4
:101506006B50020D0B0EF324D96E000EF420DA6E2A
:10151600DECF6CF0DDCF6DF06CC0D9FF6DC0DAFFA9
:101526006A50DF12ACEF0AF06850696E6A6A6A5058
:10153600000AD8B4A1EF0AF034EF0AF06950000AA5
:10154600D8B438EF0AF0010AD8B469EF0AF034EFDC
:101556000AF06F50120069506A10D8A4B5EF0AF06D
:10156600B7EF0AF0BBEF0AF0000E6D6EFEEF0AF061
:10157600D59E69C066F06AC067F075EC0CF069C06C
:1015860066F06AC067F089EC0BF069C066F06AC065
:1015960067F0C7EC0CF020EE04F06950D9266A50CB
:1015A600DA22DECF6BF0DDCF6CF06CC06BF06C6ACC
:1015B6006B50D76E20EE04F06950D9266A50DA22B5
:1015C600DF50D66E20EE04F06950D9266A50DA2232
:1015D600DECF3FF0DDCF40F0F28AF29469C0D9FF4A
:1015E6006AC0DAFFDECF41F0DDCF42F0F28EF28C38
:1015F600D58E010E6D6E6D50120066506710D8B410
:1016060007EF0BF009EF0BF01AEF0BF066C0D9FFEE
:1016160067C0DAFFDF30E832E832070B686E070E84
:10162600686418EF0BF01AEF0BF01CEF0BF048EFA5
:101636000BF066C0D9FF67C0DAFFDF30E832E83268
:10164600070B686E010E696E682A2CEF0BF0D890B6
:101656006936682E2AEF0BF066C0D9FF67C0DAFF3D
:10166600DF50070B6A6E6A50020D0B0EF324D96E1B
:10167600000EF420DA6EDECF6BF0DDCF6CF06BC0BF
:10168600D9FF6CC0DAFF6950DF1A1200010E736EC3
:1016960070507110D8A452EF0BF054EF0BF058EFC6
:1016A6000BF0000E736E87EF0BF061C074F070C024
:1016B600D9FF71C0DAFFDF500F0B726E74507218CB
:1016C600F80B7218746E70C0D9FF71C0DAFFDF387C
:1016D600070B726E72467246724674507218C70BCA
:1016E6007218746E749C70C0D9FF71C0DAFFDFAED9
:1016F60002D0748E01D0749E740E666E000E676EF4
:10170600010E686E18EC0AF07350120020EE06F017
:101716006650D9266750DA22DFA494EF0BF096EFD5
:101726000BF099EF0BF0D59AC7EF0BF020EE06F011
:101736006650D9266750DA22DFB4A4EF0BF0A6EF85
:101746000BF0C7EF0BF0D58A20EE06F06650D926CF
:101756006750DA22DFA2B2EF0BF0B4EF0BF0B7EF6F
:101766000BF0D598C7EF0BF020EE06F06650D926A1
:101776006750DA22DFB2C2EF0BF0C4EF0BF0C7EF0F
:101786000BF0D588C7EF0BF01200010E776E62C022
:1017960078F074C0D9FF75C0DAFFDF500F0B766E94
:1017A60078507618F80B7618786E74C0D9FF75C025
:1017B600DAFFDF38070B766E764676467646785041
:1017C6007618C70B7618786E789C74C0D9FF75C0EA
:1017D600DAFFDFAE02D0788E01D0789E7450751095
:1017E600D8A4F8EF0BF0FAEF0BF0FEEF0BF0000EBB
:1017F600776E04EF0CF0780E706E000E716E3FEC93
:101806000CF0775012006D506E10D8A40DEF0CF04E
:101816000FEF0CF011EF0CF03EEF0CF05FC070F024
:101826006DC0D9FF6EC0DAFFDF500F0B6F6E7050C0
:101836006F18F80B6F18706E6DC0D9FF6EC0DAFFA7
:10184600DF38070B6F6E6F466F466F4670506F1826
:10185600C70B6F18706E709C6DC0D9FF6EC0DAFF33
:10186600DFAE02D0708E01D0709E700E666E000ED6
:10187600676E00EC0BF0120070507110D8B446EF92
:101886000CF048EF0CF059EF0CF070C0D9FF71C0A6
:10189600DAFFDF30E832E832070B726E070E726449
:1018A60057EF0CF059EF0CF05DEF0CF0000E736E75
:1018B60073EF0CF070C066F071C067F076EC09F05B
:1018C600736E70C066F071C067F070C0D9FF71C0EA
:1018D600DAFF000EDFBE010E686E18EC0AF0736EBA
:1018E6007350120020EE06F06650D9266750DA22B1
:1018F600DFA080EF0CF082EF0CF092EF0CF0D596A3
:1019060020EE03F06650D9266750DA22DF50686E63
:10191600D5506818F80B6818D56EA0EF0CF020EEBD
:1019260006F06650D9266750DA22DFB09DEF0CF03C
:101936009FEF0CF0A0EF0CF0D5861200380E746EF7
:10194600000E756EC8EC0BF0380E706E000E716EE0
:1019560049EC0BF0310E696E000E6A6EAEEC0AF0C1
:101966005B04D8A4B9EF0CF0BBEF0CF0B3EF0CF0AE
:10197600000E5B6E380E6D6E000E6E6E06EC0CF091
:10198600B3EF0CF007EF00F020EE06F06650D92614
:101996006750DA22DFA6D2EF0CF0D4EF0CF0D7EFC7
:1019A6000CF0D58CE5EF0CF020EE06F06650D9264B
:1019B6006750DA22DFB6E2EF0CF0E4EF0CF0E5EF69
:1019C6000CF0D59C1200800F810F820F830F840FBD
:1019D600890F8A0F8B0F8C0F8D0F920F930F940F19
:1019E600950F960F020A121A626A727A020A121A80
:1019F600222A01010101D81A0003DC0B0502CC0ED4
:101A0600F66E190EF76E000EF86E00EE01F010EE8F
:101A160038F00900F5CFEEFFE550E150FAE100EEAF
:101A260039F02A0EEE6AE806FDE179907992000116
:101A3600A1EF0CF0F2944050D76E3FC0D6FF415054
:101A46004210D8B429EF0DF02BEF0DF037EF0DF063
:101A560002D837EF0DF00500FA6E4150FD6E425088
:101A6600FE6EFF6AFA5012001200636EF290635027
:101A7600D8A440EF0DF042EF0DF044EF0DF044EF27
:101A86000DF01200636EF2906350D8A44DEF0DF086
:101A96004FEF0DF051EF0DF051EF0DF01200636EA8
:101AA600F2906350D8A45AEF0DF05CEF0DF05EEFA4
:101AB6000DF05EEF0DF01200636EF2906350D8A445
:101AC60067EF0DF069EF0DF06BEF0DF06BEF0DF0BA
:101AD6001200010E5B6E1200F0921200F0901200DE
:081AE600F29212009E9C120016
:020000040020DA
:08000000FFFFFFFFFFFFFFFF00
:020000040030CA
:0E000000FF020F1EFF8181FF0FC00FE00F40B7
:00000001FF
