:0400000007EF00F016
:0A000800778280ED0CF066EF16F031
:10100000003738392F3435362A3132332D23303DED
:051010002B2569000022
:101016004C50800B556E4C504C24576E4BAE16EF11
:1010260008F018EF08F019EF08F057805750D8B4B9
:101036001FEF08F021EF08F036EF08F05728D8A484
:1010460027EF08F029EF08F031EF08F0000E496E9F
:10105600000E4A6E000E4B6E000E4C6E4B8E000E4E
:101066004C6E3EEF08F0000E496E000E4A6E000E02
:101076004B6E000E4C6E5050800B566E55505618E7
:10108600D8B448EF08F04AEF08F04BEF08F0558C5B
:1010960050505024566E4FAE53EF08F055EF08F0FF
:1010A60056EF08F056805650D8B45CEF08F05EEF65
:1010B60008F073EF08F05628D8A464EF08F066EF3E
:1010C60008F06EEF08F0000E4D6E000E4E6E000E2C
:1010D6004F6E000E506E4F8E000E506E7BEF08F076
:1010E600000E4D6E000E4E6E000E4F6E000E506ED0
:1010F6005750565CD8B082EF08F084EF08F0ABEF9B
:1011060008F055AC89EF08F08BEF08F08DEF08F08A
:10111600800E551A57C058F056C057F058C056F0B2
:1011260049C058F04DC049F058C04DF04AC058F07B
:101136004EC04AF058C04EF04BC058F04FC04BF06E
:1011460058C04FF04CC058F050C04CF058C050F04A
:10115600000E586E575056C051F0526A515E000E3E
:10116600525A52BEC0EF08F0525009E11A0E515CB5
:10117600D8A0C0EF08F0C2EF08F0F9EF08F0495028
:101186004A104B104C10D8A4CBEF08F0CEEF08F065
:10119600010ECFEF08F0000E586E000E496E000EDD
:1011A6004A6E000E4B6E000E4C6E56C057F002EFA4
:1011B60009F058A0E1EF08F0E3EF08F0E9EF08F0D6
:1011C600D89058300109586EEBEF08F0D890583295
:1011D60049A0F0EF08F0F2EF08F0F3EF08F0588EB0
:1011E6004C344C324B324A324932572A5650575CAD
:1011F600D8A000EF09F002EF09F0DCEF08F055BCCB
:1012060007EF09F009EF09F049EF09F05750D8A4A4
:101216000FEF09F011EF09F01BEF09F0000E496E10
:10122600000E4A6E000E4B6E000E4C6E6AEF0AF010
:101236004D5049264E504A224F504B2250504C2278
:101246004CA028EF09F02AEF09F0D6EF09F058A0D4
:101256002FEF09F031EF09F037EF09F0D890583049
:101266000109586E39EF09F0D890583249A03EEF7F
:1012760009F040EF09F041EF09F0588E4C344C323A
:101286004B324A324932572AD6EF09F04D50495C63
:101296004E504A584F504B584C50800A516E505041
:1012A600800A5158D8B05AEF09F05CEF09F087EF81
:1012B60009F049504D5C516E4A504E58526E4B5093
:1012C6004F58536E4C505058546EFF0E5124496E71
:1012D600FF0E52204A6EFF0E53204B6EFF0E542017
:1012E6004C6E800E551A586C5850D8A47DEF09F0F4
:1012F6007FEF09F08FEF09F0010E4926000E4A2212
:101306004B224C228FEF09F04D50495E4E504A5AFF
:101316004F504B5A50504C5A49504A104B104C1093
:10132600D8A498EF09F09AEF09F0CFEF09F05850DA
:10133600D8A4A0EF09F0A2EF09F0CFEF09F0000E54
:10134600496E000E4A6E000E4B6E000E4C6E6AEF32
:101356000AF0D89049364A364B364C3658AEB6EF78
:1013660009F0B8EF09F0B9EF09F0498058A0BEEFCF
:1013760009F0C0EF09F0C4EF09F0D8805836C6EF7F
:1013860009F0D89058365750D8B4CCEF09F0CEEFC4
:1013960009F0CFEF09F057064BAED4EF09F0D6EFC0
:1013A60009F0ACEF09F0000E566E58AEDDEF09F00D
:1013B600DFEF09F0F7EF09F058C051F07F0E511634
:1013C600D8B4E8EF09F0EAEF09F0EEEF09F0010E04
:1013D600566EF7EF09F049A0F3EF09F0F5EF09F0C3
:1013E600F7EF09F0EAEF09F05650D8B4FDEF09F02F
:1013F600FFEF09F02AEF0AF0010E4926000E4A22F5
:101406004B224C224CA00AEF0AF00CEF0AF02AEF0E
:101416000AF049C051F04AC052F04BC053F04CC0DC
:1014260054F05434543253325232513251C049F08E
:1014360052C04AF053C04BF054C04CF05728D8B4B1
:1014460027EF0AF029EF0AF02AEF0AF0572A572861
:10145600D8B430EF0AF032EF0AF03AEF0AF05750FC
:10146600D8A438EF0AF03AEF0AF04CEF0AF0000E73
:10147600496E000E4A6E000E4B6E000E4C6E5750B3
:10148600D8A448EF0AF04AEF0AF04CEF0AF0000E33
:10149600556E57A051EF0AF053EF0AF056EF0AF0D7
:1014A6004B8E57EF0AF04B9ED89057304C6E55AE88
:1014B6005FEF0AF061EF0AF062EF0AF04C8E49C066
:1014C60049F04AC04AF04BC04BF04CC04CF01200F9
:1014D6001A50800B236E1A501A24296E19AE76EF15
:1014E6000AF078EF0AF079EF0AF029802950D8B48B
:1014F6007FEF0AF081EF0AF094EF0AF02928D8A4CA
:1015060087EF0AF089EF0AF091EF0AF0000E176EE6
:10151600000E186E000E196E000E1A6E198E9CEFD4
:101526000AF0000E176E000E186E000E196E000EF1
:101536001A6E1E50800B231A1E501E24246E1DAEDA
:10154600A7EF0AF0A9EF0AF0AAEF0AF024802450C8
:10155600D8B4B0EF0AF0B2EF0AF0C5EF0AF02428CB
:10156600D8A4B8EF0AF0BAEF0AF0C2EF0AF0000EFC
:101576001B6E000E1C6E000E1D6E000E1E6E1D8E66
:10158600CDEF0AF0000E1B6E000E1C6E000E1D6ED7
:10159600000E1E6E2450D8B4D3EF0AF0D5EF0AF031
:1015A600DDEF0AF02950D8A4DBEF0AF0DDEF0AF0F0
:1015B600E7EF0AF0000E176E000E186E000E196E99
:1015C600000E1A6E7FEF0CF01D501702F3CF2EF0AF
:1015D600F4CF2FF02E50256E266A276A286A2F50E0
:1015E6002A6E2B6A2C6A2D6A1C501802F3CF2EF035
:1015F600F4CF2FF02E502526000E26222722282251
:101606002F502A26000E2B222C222D221B50190287
:10161600F3CF2EF0F4CF2FF02E502526000E2622E3
:10162600272228222F502A26000E2B222C222D225A
:1016360027C028F026C027F025C026F0256A1B50B3
:101646001802F3CF2EF0F4CF2FF02E5025262F5070
:101656002622000E2722000E28221C501702F3CF46
:101666002EF0F4CF2FF02E5025262F502622000ED6
:101676002722000E282227C028F026C027F025C0E2
:1016860026F0256A1B501702F3CF2EF0F4CF2FF069
:101696002E5025262F502622000E2722000E282205
:1016A6001D501802F3CF2EF0F4CF2FF02E502A261D
:1016B6002F502B22000E2C22000E2D221C50190218
:1016C600F3CF2EF0F4CF2FF02E502A262F502B22B8
:1016D600000E2C22000E2D221D501902F3CF2EF0E3
:1016E600F4CF2FF02E501F6E2F50206E216A226AE3
:1016F60021C022F020C021F01FC020F01F6A1F5019
:101706002A2620502B2221502C2222502D2225C061
:101716001FF026C020F027C021F028C022F0190EA5
:101726009AEF0BF0D8902232213220321F32E82E67
:1017360095EF0BF01F502A2620502B2221502C22E9
:1017460022502D2227C028F026C027F025C026F0DB
:10175600256A245029C01FF0206A1F26000E202269
:10176600820E1F242E6EFF0E20202F6ED0EF0BF060
:10177600D8902A362B362C362D3628AEC5EF0BF0F0
:10178600C7EF0BF0C8EF0BF02A80D8902536263627
:10179600273628362E06D8A02F062CAED5EF0BF00E
:1017A600D7EF0BF0BBEF0BF0000E246E28AEDEEF8A
:1017B6000BF0E0EF0BF004EF0CF0FF0E25141F6E9C
:1017C600FF0E2614206EFF0E2714216E7F0E28149E
:1017D600226E1F50201021102210D8B4F5EF0BF006
:1017E600F7EF0BF0FBEF0BF0010E246E04EF0CF09D
:1017F6002AA000EF0CF002EF0CF004EF0CF0F7EF6C
:101806000BF02450D8B40AEF0CF00CEF0CF030EFCC
:101816000CF0010E2A26000E2B222C222D222DA0A2
:1018260017EF0CF019EF0CF030EF0CF02AC01FF098
:101836002BC020F02CC021F02DC022F02234223201
:10184600213220321F321FC02AF020C02BF021C0C7
:101856002CF022C02DF02E4A2F2A2FBE3BEF0CF083
:101866002F5008E12E28D8A03BEF0CF03DEF0CF0EE
:1018760047EF0CF0000E2A6E000E2B6E800E2C6EBB
:101886007F0E2D6E75EF0CF02FBE54EF0CF02F501F
:1018960006E12E04D8B052EF0CF054EF0CF060EFD6
:1018A6000CF0000E2A6E000E2B6E000E2C6E000E33
:1018B6002D6E000E236E75EF0CF02EC029F0FF0E74
:1018C6002A16FF0E2B167F0E2C16000E2D1629A09B
:1018D6006FEF0CF071EF0CF072EF0CF02C8ED890CD
:1018E60029302D6E23502D122AC017F02BC018F068
:1018F6002CC019F02DC01AF012000600FACF05F020
:10190600FBCF06F0D9CF07F0DACF08F0F2A88EEFBA
:101916000CF090EF0CF099EF0CF0F2A295EF0CF0B2
:1019260097EF0CF099EF0CF076EC18F0F0A69EEF1E
:101936000CF0A0EF0CF0A9EF0CF0F0A0A5EF0CF066
:10194600A7EF0CF0A9EF0CF074EC18F0F0A8AEEFCE
:101956000CF0B0EF0CF0B9EF0CF0F0A2B5EF0CF014
:10196600B7EF0CF0B9EF0CF072EC18F0F2A6BEEF80
:101976000CF0C0EF0CF0DBEF0CF0F2A0C5EF0CF0B2
:10198600C7EF0CF0DBEF0CF081A8CCEF0CF0CEEF3C
:101996000CF0DBEF0CF07604D8A4D4EF0CF0D6EF05
:1019A6000CF0DBEF0CF0000E766E000E41EC18F03A
:1019B600F2A6E0EF0CF0E2EF0CF0FDEF0CF0F2A077
:1019C600E7EF0CF0E9EF0CF0FDEF0CF081B8EEEF6D
:1019D6000CF0F0EF0CF0FDEF0CF07650D8A4F6EF1B
:1019E6000CF0F8EF0CF0FDEF0CF0010E766E010E28
:1019F60041EC18F0F2A602EF0DF004EF0DF01FEF28
:101A06000DF0F2A009EF0DF00BEF0DF01FEF0DF04A
:101A160081AA10EF0DF012EF0DF01FEF0DF0750417
:101A2600D8A418EF0DF01AEF0DF01FEF0DF0000E11
:101A3600756E000E34EC18F0F2A624EF0DF026EFCA
:101A46000DF041EF0DF0F2A02BEF0DF02DEF0DF0A4
:101A560041EF0DF081BA32EF0DF034EF0DF041EFAA
:101A66000DF07550D8A43AEF0DF03CEF0DF041EFB4
:101A76000DF0010E756E010E34EC18F0F2A646EF6D
:101A86000DF048EF0DF063EF0DF0F2A04DEF0DF005
:101A96004FEF0DF063EF0DF081AC54EF0DF056EF04
:101AA6000DF063EF0DF07404D8A45CEF0DF05EEF5B
:101AB6000DF063EF0DF0000E746E000E27EC18F0BB
:101AC600F2A668EF0DF06AEF0DF085EF0DF0F2A0CB
:101AD6006FEF0DF071EF0DF085EF0DF081BC76EF35
:101AE6000DF078EF0DF085EF0DF07450D8A47EEF71
:101AF6000DF080EF0DF085EF0DF0010E746E010E06
:101B060027EC18F0F2A68AEF0DF08CEF0DF0A7EF98
:101B16000DF0F2A091EF0DF093EF0DF0A7EF0DF0A1
:101B260081AE98EF0DF09AEF0DF0A7EF0DF073046C
:101B3600D8A4A0EF0DF0A2EF0DF0A7EF0DF0000E68
:101B4600736E000E1AEC18F0F2A6ACEF0DF0AEEFC5
:101B56000DF0C9EF0DF0F2A0B3EF0DF0B5EF0DF0FB
:101B6600C9EF0DF081BEBAEF0DF0BCEF0DF0C9EF75
:101B76000DF07350D8A4C2EF0DF0C4EF0DF0C9EF0D
:101B86000DF0010E736E010E1AEC18F09DACCEEF3F
:101B96000DF0D0EF0DF0D9EF0DF09EACD5EF0DF0B6
:101BA600D7EF0DF0D9EF0DF07CEC18F0F2AADEEFCE
:101BB6000DF0E0EF0DF0E9EF0DF0F2A4E5EF0DF01A
:101BC600E7EF0DF0E9EF0DF05FEC18F09DA0EEEFFA
:101BD6000DF0F0EF0DF0F9EF0DF09EA0F5EF0DF022
:101BE600F7EF0DF0F9EF0DF066EC18F09DA2FEEFA1
:101BF6000DF000EF0EF009EF0EF09EA205EF0EF0CD
:101C060007EF0EF009EF0EF06CEC18F0A0A20EEF45
:101C16000EF010EF0EF019EF0EF0A1A215EF0EF078
:101C260017EF0EF019EF0EF0A1EC17F09DA81EEFBE
:101C36000EF020EF0EF029EF0EF09EA825EF0EF025
:101C460027EF0EF029EF0EF078EC18F09DAA2EEF94
:101C56000EF030EF0EF039EF0EF09EAA35EF0EF0D3
:101C660037EF0EF039EF0EF07EEC18F09DA43EEF44
:101C76000EF040EF0EF049EF0EF09EA445EF0EF089
:101C860047EF0EF049EF0EF0F2EC17F0A0A04EEF82
:101C96000EF050EF0EF059EF0EF0A1A055EF0EF03A
:101CA60057EF0EF059EF0EF07AEC18F008C0DAFF95
:101CB60007C0D9FF06C0FBFF05C0FAFF77921100E7
:101CC6003350800B406E33503324476E32AE6EEF86
:101CD6000EF070EF0EF071EF0EF047804750D8B45B
:101CE60077EF0EF079EF0EF08EEF0EF04728D8A4BE
:101CF6007FEF0EF081EF0EF089EF0EF0000E306EE2
:101D0600000E316E000E326E000E336E328E000EF5
:101D1600336E96EF0EF0000E306E000E316E000E32
:101D2600326E000E336E3750800B401A3750372410
:101D3600486E36AEA1EF0EF0A3EF0EF0A4EF0EF054
:101D460048804850D8B4AAEF0EF0ACEF0EF0C1EFC1
:101D56000EF04828D8A4B2EF0EF0B4EF0EF0BCEFA8
:101D66000EF0000E346E000E356E000E366E000E4E
:101D7600376E368E000E376EC9EF0EF0000E346EDB
:101D8600000E356E000E366E000E376E345035106E
:101D960036103710D8A4D2EF0EF0D4EF0EF0ECEFD9
:101DA6000EF0000E306E000E316E000E326E000E1A
:101DB600336E800E32127F0E33124050331230C013
:101DC60030F031C031F032C032F033C033F02FEF93
:101DD60010F04750D8A4F2EF0EF0F4EF0EF0FEEF3D
:101DE6000EF0000E306E000E316E000E326E000EDA
:101DF600336E2FEF10F0485047C038F0396A385E1E
:101E0600000E395A7F0E3824416E000E3920426E7C
:101E160030C03CF031C03DF032C03EF033C03FF040
:101E2600000E306E000E316E000E326E000E336EF6
:101E3600000E436E000E446E000E456E000E466E9A
:101E4600000E486E5FEF0FF04850D8B42DEF0FF03C
:101E56002FEF0FF046EF0FF0D8903C363D363E366A
:101E66003F36D890303631363236333646AE3EEFD0
:101E76000FF040EF0FF041EF0FF03080D89043366F
:101E860044364536463634503C5C35503D5836501F
:101E96003E5837503F58D8A053EF0FF055EF0FF08C
:101EA6005EEF0FF0468C34503C5E35503D5A36504E
:101EB6003E5A37503F5A482A190E486465EF0FF0CC
:101EC60067EF0FF027EF0FF03C503D103E103F102C
:101ED600D8B470EF0FF072EF0FF08AEF0FF0438077
:101EE6008AEF0FF0D890303631363236333646AE7A
:101EF6007FEF0FF081EF0FF082EF0FF03080D89078
:101F060043364436453646364106D8A0420632AEFA
:101F16008FEF0FF091EF0FF075EF0FF0000E486E98
:101F260046AE98EF0FF09AEF0FF0BEEF0FF0FF0EF0
:101F36004314386EFF0E4414396EFF0E45143A6E84
:101F46007F0E46143B6E385039103A103B10D8B409
:101F5600AFEF0FF0B1EF0FF0B5EF0FF0010E486ED7
:101F6600BEEF0FF030A0BAEF0FF0BCEF0FF0BEEFF0
:101F76000FF0B1EF0FF04850D8B4C4EF0FF0C6EF32
:101F86000FF0EAEF0FF0010E3026000E312232225A
:101F9600332233A0D1EF0FF0D3EF0FF0EAEF0FF0BB
:101FA60030C038F031C039F032C03AF033C03BF0BF
:101FB6003B343B323A323932383238C030F039C0ED
:101FC60031F03AC032F03BC033F0414A422A42BEB9
:101FD600F5EF0FF0425008E14128D8A0F5EF0FF0D9
:101FE600F7EF0FF002EF10F0000E426E4168000EA0
:101FF600306E000E316E000E326E000E336E42BE33
:102006000FEF10F0425006E14104D8B00DEF10F08A
:102016000FEF10F01DEF10F0000E426E000E416E35
:10202600000E306E000E316E000E326E000E336EF4
:10203600000E406E41C047F047A024EF10F026EF97
:1020460010F029EF10F0328E2AEF10F0329ED89061
:102056004730336EE0EF0EF01200000E1B6E000EDE
:102066001C6E800E1D6E400E1E6E20EE05F0635037
:10207600D9266450DA22DECF09F0DECF0AF0DECFB1
:102086000BF0DECF0CF0000E18EC11F009C017F0C3
:102096000AC018F00BC019F00CC01AF06BEC0AF06D
:1020A60017C066F018C067F019C068F01AC069F06A
:1020B60020EE0AF06350D9266450DA22DF50656EAE
:1020C6006550096E0A6A0B6A0C6A000E18EC11F06C
:1020D60009C01BF00AC01CF00BC01DF00CC01EF09E
:1020E60066C017F067C018F068C019F069C01AF02A
:1020F6006BEC0AF017C06AF018C06BF019C06CF0F0
:102106001AC06DF0000E4D6E000E4E6E800E4F6EB4
:10211600BF0E506E20EE09F06350D9266450DA22C5
:10212600DF50656E6550096E0A6A0B6A0C6A000E0E
:1021360018EC11F009C01BF00AC01CF00BC01DF012
:102146000CC01EF06AC017F06BC018F06CC019F016
:102156006DC01AF06BEC0AF017C034F018C035F0F9
:1021660019C036F01AC037F0000E306E240E316EEC
:10217600740E326E4A0E336E63EC0EF030C049F0C8
:1021860031C04AF032C04BF033C04CF00BEC08F0D3
:1021960049C059F04AC05AF04BC05BF04CC05CF0E5
:1021A6001FEC15F05950CB6E63C0D9FF64C0DAFF3F
:1021B600DF50D8A4E1EF10F0E3EF10F0F8EF10F0E5
:1021C60020EE02F06350D9266450DA220C0EDE1897
:1021D600D8A4F0EF10F0F2EF10F017EF11F0BD50A9
:1021E600F00B0C09BD6E17EF11F063C0D9FF64C088
:1021F600DAFFDE04D8A402EF11F004EF11F017EFB6
:1022060011F020EE02F06350D9266450DA220C0E4B
:10221600DE18D8A411EF11F013EF11F017EF11F03B
:10222600BA50F00B0C09BA6E1200116E1150D8B4E8
:102236001FEF11F021EF11F043EF11F00CBE28EF64
:1022460011F026EF11F043EF11F009C00DF00AC0AE
:102256000EF00BC00FF00CC010F00D1E0E1E0F1E60
:10226600101E0D2A000E0E220F2210220DC013F092
:102276000EC014F00FC015F010C016F04BEF11F0A1
:1022860009C013F00AC014F00BC015F00CC016F00C
:1022960009500A100B100C10D8A454EF11F056EF89
:1022A60011F060EF11F0000E096E000E0A6E000EBE
:1022B6000B6E000E0C6EF1EF11F0960E126E6AEFB9
:1022C60011F0122AD8901632153214321332000E3B
:1022D60013140D6E000E14140E6E000E15140F6EF0
:1022E600FE0E1614106E0D500E100F101010D8A4FE
:1022F6007FEF11F081EF11F064EF11F08FEF11F025
:10230600122A010E1326000E142215221622D89028
:102316001632153214321332000E13140D6E000EDF
:1023260014140E6E000E15140F6EFF0E1614106E9A
:102336000D500E100F101010D8A4A4EF11F0A6EF38
:1023460011F083EF11F0AEEF11F01206D8901336AC
:1023560014361536163615BEB3EF11F0B5EF11F07B
:10236600BDEF11F0020E1260BBEF11F0BDEF11F0E0
:10237600A8EF11F012B0C2EF11F0C4EF11F0C5EFE3
:1023860011F0159ED890123212C00DF00E6A0F6A27
:10239600106A0DC010F00F6A0E6A0D6A0D50131206
:1023A6000E5014120F501512105016121150D8B4A8
:1023B600DFEF11F0E1EF11F0E9EF11F00CBEE8EFFD
:1023C60011F0E6EF11F0E9EF11F0168E13C009F0E7
:1023D60014C00AF015C00BF016C00CF01200010E66
:1023E600106E0CC0D9FF0DC0DAFFDF50D8A4FEEF87
:1023F60011F000EF12F04BEF12F024EF12F0BD5087
:10240600F00B0809BD6E9EEF12F0BD50F00B0909E6
:10241600BD6E9EEF12F0BD50F00B0209BD6E9EEF31
:1024260012F0BD50F00B0A09BD6E9EEF12F0BD50C2
:10243600F00B0B09BD6E9EEF12F0000E106E9EEFB4
:1024460012F020EE02F00C50D9260D50DA22DF50A1
:102456000E6E0F6A0F50000AD8B434EF12F020EF58
:1024660012F00E50020AD8B40EEF12F00A0AD8B4CF
:1024760002EF12F0010AD8B408EF12F0030AD8B43A
:1024860014EF12F0010AD8B41AEF12F020EF12F08E
:102496000CC0D9FF0DC0DAFFDE04D8A455EF12F048
:1024A60057EF12F09EEF12F077EF12F0BA50F00BE2
:1024B6000809BA6E9EEF12F0BA50F00B0909BA6E0F
:1024C6009EEF12F0BA50F00B0209BA6E9EEF12F0B0
:1024D600BA50F00B0A09BA6E9EEF12F0BA50F00B22
:1024E6000B09BA6E9EEF12F020EE02F00C50D926C0
:1024F6000D50DA22DF500E6E0F6A0F50000AD8B464
:1025060087EF12F020EF12F00E50020AD8B465EFF2
:1025160012F00A0AD8B459EF12F0010AD8B45FEFE4
:1025260012F0030AD8B46BEF12F0010AD8B471EFB7
:1025360012F020EF12F00CC009F00DC00AF0E5EC25
:1025460016F010501200010E116E09500A10D8B480
:10255600AFEF12F0B1EF12F0C2EF12F009C0D9FFDF
:102566000AC0DAFFDF30E832E832070B0B6E070EDF
:102576000B64C0EF12F0C2EF12F025EF13F0000E5D
:10258600116E46EF13F009C0D9FF0AC0DAFFDF303B
:10259600E832E832070B0B6E010E0C6E0B2AD6EFF3
:1025A60012F0D8900C360B2ED4EF12F00C50FF0A16
:1025B6000D6E09C0D9FF0AC0DAFFDF50070B0E6E99
:1025C6000E50020DE10EF324D96E000EF420DA6EE1
:1025D600DECF0FF0DDCF10F00FC0D9FF10C0DAFF4D
:1025E6000D50DF1646EF13F009C0D9FF0AC0DAFF17
:1025F600DF30E832E832070B0B6E010E0C6E0B2A49
:1026060007EF13F0D8900C360B2E05EF13F009C028
:10261600D9FF0AC0DAFFDF50070B0D6E0D50020D11
:10262600E10EF324D96E000EF420DA6EDECF0EF042
:10263600DDCF0FF00EC0D9FF0FC0DAFF0C50DF124E
:1026460046EF13F009C0D9FF0AC0DAFFDFBC2EEF50
:1026560013F031EF13F0010E32EF13F0000E0B6E94
:102666000C6A0C50000AD8B43BEF13F0C2EF12F01C
:102676000B50000AD8B4C6EF12F0010AD8B4F7EF2F
:1026860012F0C2EF12F01150120001011151121195
:10269600D8A450EF13F052EF13F056EF13F0000EDC
:1026A600136FE7EF13F011C1D9FF12C1DAFFDF5044
:1026B600D8A460EF13F062EF13F066EF13F0F00E9C
:1026C600BD1674EF13F011C1D9FF12C1DAFFDE0493
:1026D600D8A470EF13F072EF13F074EF13F0F00E4E
:1026E600BA1620EE01F01151D9261251DA22DF5026
:1026F600D8A480EF13F082EF13F08AEF13F011C124
:102706000CF012C10DF0E9EC13F0B7EF13F020EE68
:1027160001F01151D9261251DA22DE04D8A496EF1F
:1027260013F098EF13F0A0EF13F011C10CF012C1E3
:102736000DF0F2EC11F0B7EF13F020EE01F01151AD
:10274600D9261251DA22020EDE18D8A4ADEF13F004
:10275600AFEF13F0B7EF13F011C163F012C164F0DD
:1027660030EC10F0B7EF13F0030E01011125136ED4
:10277600000E1221146E1DEC17F011C109F012C1E2
:102786000AF084EC17F011C1D9FF12C1DAFFDF504D
:10279600D8A4D0EF13F0D2EF13F0D6EF13F0F00E6B
:1027A600BD16E4EF13F011C1D9FF12C1DAFFDE0442
:1027B600D8A4E0EF13F0E2EF13F0E4EF13F0F00E1D
:1027C600BA16010E0101136F13511200010E106E9D
:1027D6000CC0D9FF0DC0DAFFDF50D8A4F5EF13F017
:1027E600F7EF13F038EF14F015EF14F0BD50F00BBF
:1027F6000409BD6E81EF14F0BD50F00B0509BD6EE6
:1028060081EF14F0BD50F00B0609BD6E81EF14F098
:10281600BD50F00B0709BD6E81EF14F0000E106E6F
:1028260081EF14F020EE02F00C50D9260D50DA227A
:10283600DF500E6E0F6A0F50000AD8B425EF14F061
:1028460011EF14F00E50040AD8B4F9EF13F0010A90
:10285600D8B4FFEF13F0030AD8B405EF14F0010A59
:10286600D8B40BEF14F011EF14F00CC0D9FF0DC063
:10287600DAFFDE04D8A442EF14F044EF14F081EF3F
:1028860014F05EEF14F0BA50F00B0409BA6E81EF43
:1028960014F0BA50F00B0509BA6E81EF14F0BA5075
:1028A600F00B0609BA6E81EF14F0BA50F00B070967
:1028B600BA6E81EF14F020EE02F00C50D9260D50BE
:1028C600DA22DF500E6E0F6A0F50000AD8B46EEF90
:1028D60014F011EF14F00E50040AD8B446EF14F0B9
:1028E600010AD8B44CEF14F0030AD8B452EF14F02E
:1028F600010AD8B458EF14F011EF14F00CC009F027
:102906000DC00AF0E5EC16F010501200010E126E22
:1029160009500A10D8B492EF14F094EF14F0A5EF12
:1029260014F009C0D9FF0AC0DAFFDF30E832E83216
:10293600070B0C6E070E0C64A3EF14F0A5EF14F052
:1029460008EF15F0000E126E1DEF15F009C0D9FF45
:102956000AC0DAFFDF30E832E832070B0C6E010EF0
:102966000D6E0C2AB9EF14F0D8900D360C2EB7EF79
:1029760014F00D50FF0A0E6E09C0D9FF0AC0DAFF27
:10298600DF50070B0F6E0F50020DD70EF324D96ED2
:10299600000EF420DA6EDECF10F0DDCF11F010C09D
:1029A600D9FF11C0DAFF0E50DF161DEF15F009C072
:1029B600D9FF0AC0DAFFDF30E832E832070B0C6EC7
:1029C600010E0D6E0C2AEAEF14F0D8900D360C2E7F
:1029D600E8EF14F009C0D9FF0AC0DAFFDF50070B91
:1029E6000E6E0E50020DD70EF324D96E000EF42093
:1029F600DA6EDECF0FF0DDCF10F00FC0D9FF10C0BA
:102A0600DAFF0D50DF121DEF15F00B500C6E0D6A3C
:102A16000D50000AD8B412EF15F0A5EF14F00C50C3
:102A2600000AD8B4A9EF14F0010AD8B4DAEF14F00A
:102A3600A5EF14F0125012005B345C34626E6250E3
:102A4600D8A428EF15F02AEF15F034EF15F0000E94
:102A5600596E000E5A6E000E5B6E000E5C6EA1EF94
:102A660015F059C05DF05AC05EF05BC05FF05CC007
:102A760060F0200E44EF15F0D89060325F325E327F
:102A86005D32E82E3FEF15F05D50616E5B8EFF0EF6
:102A96005916FF0E5A16FF0E5B16000E5C16960EA2
:102AA600625E62BE5BEF15F059EF15F071EF15F03F
:102AB6006250800A970FD8B063EF15F065EF15F0F6
:102AC60067EF15F02AEF15F0D8905C325B325A3278
:102AD6005932623E67EF15F089EF15F01F0E6264FA
:102AE60077EF15F079EF15F081EF15F02AEF15F075
:102AF600D89059365A365B365C3662066250D8A490
:102B060087EF15F089EF15F07BEF15F06150D8B41B
:102B16008FEF15F091EF15F099EF15F05C1E5B1E27
:102B26005A1E596C000E5A225B225C2259C059F07B
:102B36005AC05AF05BC05BF05CC05CF01200000E3D
:102B46000101116F010E126F48EC13F0F90E0B6EB6
:102B5600000E0C6E11EC16F0020E7018D8A4B6EF2B
:102B660015F0B8EF15F0AFEF15F0000E706E8AC0D5
:102B760014F18BC015F18CC016F18DC017F115C17B
:102B860017F114C116F10101156B146B0001CB513D
:102B9600010114250001C76FCC5101011521000167
:102BA600C86F000E010116210001C96F000E010158
:102BB60017210001CA6FC7C009F0C8C00AF0C9C012
:102BC6000BF0CAC00CF0000E18EC11F009C034F07E
:102BD6000AC035F00BC036F00CC037F0000E306E70
:102BE600240E316E740E326E490E336E63EC0EF0A7
:102BF60030C059F031C05AF032C05BF033C05CF0DF
:102C06001FEC15F059C086F05AC087F05BC088F0FB
:102C16005CC089F0AFEF15F007EF00F00B500C1019
:102C2600D8A418EF16F01AEF16F01EEF16F0000EE5
:102C36000F6E64EF16F0B19020EE05F00B50D9261A
:102C46000C50DA22DF50030B0D6E0D3AB1500D1801
:102C5600CF0B0D18B16E0BC009F00CC00AF0A6EC34
:102C660016F020EE03F00B50D9260C50DA22DECFF8
:102C76000DF0DDCF0EF00EC00DF00E6A0D50B36EE6
:102C860020EE03F00B50D9260C50DA22DF50B26E3C
:102C960020EE03F00B50D9260C50DA22DECF96F048
:102CA600DDCF97F0A082A1920BC0D9FF0CC0DAFF4E
:102CB600DECF98F0DDCF99F0F28EF28CB180010E66
:102CC6000F6E0F5012009C0EF66E300EF76E000E51
:102CD600F86E01EE00F010EE11F00900F5CFEEFFF0
:102CE600E550E150FAE1B20EF66E2F0EF76E000EC9
:102CF600F86E00EECDF010EE32F00900F5CFEEFFE3
:102D0600E550E150FAE1E00EF66E300EF76E000E79
:102D1600F86E00EE73F010EE04F00900F5CFEEFF4A
:102D2600E550E150FAE100EE80F04D0EEE6AE8065D
:102D3600FDE1726A716A706A6F6A6E6A779077925D
:102D46000001A2EF15F020EE05F00950D9260A5031
:102D5600DA22DFB4B1EF16F0B3EF16F0B6EF16F0E5
:102D6600B192E4EF16F020EE05F00950D9260A508C
:102D7600DA22DFA4C1EF16F0C3EF16F0E4EF16F087
:102D8600B18220EE05F00950D9260A50DA22DFA6D4
:102D9600CFEF16F0D1EF16F0D4EF16F0B184E4EFD2
:102DA60016F020EE05F00950D9260A50DA22DFB6D1
:102DB600DFEF16F0E1EF16F0E4EF16F0B194E4EF72
:102DC60016F0120020EE04F00950D9260A50DA2235
:102DD600DF50D8A4F1EF16F0F3EF16F0F7EF16F088
:102DE600B196B18C1CEF17F020EE04F00950D926ED
:102DF6000A50DA22DE04D8A403EF17F005EF17F025
:102E060009EF17F0B186B19C1CEF17F020EE04F025
:102E16000950D9260A50DA22020EDE18D8A416EF77
:102E260017F018EF17F01CEF17F0B196B19C1CEFD6
:102E360017F0120013501410D8B424EF17F026EF31
:102E460017F037EF17F013C0D9FF14C0DAFFDF30E1
:102E5600E832E832070B156E070E156435EF17F0EA
:102E660037EF17F03BEF17F0000E166E51EF17F025
:102E760013C009F014C00AF0A6EC12F0166E13C0C7
:102E860009F014C00AF013C0D9FF14C0DAFF000E0F
:102E9600DFBE010E0B6E89EC14F0166E1650120092
:102EA600712A702A7104D8A45BEF17F05DEF17F052
:102EB60069EF17F0F90E016E000E026E000E046E39
:102EC600000E036E0AEC18F083EF17F0020E71186D
:102ED600D8A470EF17F072EF17F083EF17F0000E1B
:102EE60000018A6F000E8B6F000E8C6F000E8D6FC7
:102EF600000E716ECB0E016E000E026EBDEC17F069
:102F060012009D849E9420EE0BF00950D9260A509B
:102F1600DA22DECFBCF0DDCFBDF0F28EF28CA080DF
:102F2600A19020EE0EF00950D9260A50DA22DECF03
:102F3600BAF0DDCFBBF0F28EF28C1200A192000146
:102F46009751B36E96C0B2FF98519911D8B4AEEFAF
:102F560017F0B0EF17F0BCEF17F002D8BCEF17F080
:102F66000500FA6E9851FD6E9951FE6EFF6AFA5091
:102F760012001200B8C003F0B9C004F001500210EC
:102F8600D8A4C8EF17F0CAEF17F0CCEF17F0D8EFB8
:102F960017F0BECF03F0BFCF04F001C0D9FF02C0C7
:102FA600DAFF03C0DEFF04C0DDFF1200800F810FD1
:102FB600820F830F840F890F8A0F8B0F8C0F8D0F53
:102FC600920F930F940F950F960F020A121A626AC8
:102FD600727A020A121A222AAE30000000009E946B
:102FE6000001BC51BD11D8B4FBEF17F0FDEF17F08F
:102FF60009EF18F002D809EF18F00500FA6EBC5177
:10300600FD6EBD51FE6EFF6AFA50120012000150AD
:103016000210D8A411EF18F013EF18F015EF18F0FE
:1030260019EF18F00450B36E03C0B2FF1200016E20
:10303600F2900150D8A422EF18F024EF18F026EFF2
:1030460018F026EF18F01200016EF2900150D8A485
:103056002FEF18F031EF18F033EF18F033EF18F0C8
:103066001200016EF2900150D8A43CEF18F03EEF2A
:1030760018F040EF18F040EF18F01200016EF290D1
:103086000150D8A449EF18F04BEF18F04DEF18F0A7
:103096004DEF18F01200000005520000000000007D
:0730A60000A62E000000004F
:1030AE00010E00018A27000E8B238C238D23120024
:1030BE00F29400019F51D76E9EC0D6FF12009E90D3
:1030CE006F50CF6E6EC0CEFF12009E92C0C0CCFF6E
:1030DE00120001010101F0921200F0901200F29222
:1030EE0012009D981200A19012009E9C12001200D8
:020000040020DA
:08000000FFFFFFFFFFFFFFFF00
:020000040030CA
:0E000000FF020F1EFF8181FF0FC00FE00F40B7
:00000001FF
