:0400000007EF00F016
:0A0008007E826BED0AF059EF10F054
:10100000003738392F3435362A3132332D23303DED
:051010002B2569000022
:101016002C50800B356E2C502C24376E2BAE16EFD1
:1010260008F018EF08F019EF08F037803750D8B4F9
:101036001FEF08F021EF08F036EF08F03728D8A4A4
:1010460027EF08F029EF08F031EF08F0000E296EBF
:10105600000E2A6E000E2B6E000E2C6E2B8E000ECE
:101066002C6E3EEF08F0000E296E000E2A6E000E62
:101076002B6E000E2C6E3050800B366E35503618A7
:10108600D8B448EF08F04AEF08F04BEF08F0358C7B
:1010960030503024366E2FAE53EF08F055EF08F07F
:1010A60056EF08F036803650D8B45CEF08F05EEFA5
:1010B60008F073EF08F03628D8A464EF08F066EF5E
:1010C60008F06EEF08F0000E2D6E000E2E6E000E6C
:1010D6002F6E000E306E2F8E000E306E7BEF08F0F6
:1010E600000E2D6E000E2E6E000E2F6E000E306E50
:1010F6003750365CD8B082EF08F084EF08F0ABEFDB
:1011060008F035AC89EF08F08BEF08F08DEF08F0AA
:10111600800E351A37C038F036C037F038C036F092
:1011260029C038F02DC029F038C02DF02AC038F07B
:101136002EC02AF038C02EF02BC038F02FC02BF06E
:1011460038C02FF02CC038F030C02CF038C030F04A
:10115600000E386E375036C031F0326A315E000EFE
:10116600325A32BEC0EF08F0325009E11A0E315C35
:10117600D8A0C0EF08F0C2EF08F0F9EF08F0295048
:101186002A102B102C10D8A4CBEF08F0CEEF08F0C5
:10119600010ECFEF08F0000E386E000E296E000E1D
:1011A6002A6E000E2B6E000E2C6E36C037F002EF44
:1011B60009F038A0E1EF08F0E3EF08F0E9EF08F0F6
:1011C600D89038300109386EEBEF08F0D8903832F5
:1011D60029A0F0EF08F0F2EF08F0F3EF08F0388EF0
:1011E6002C342C322B322A322932372A3650375CAD
:1011F600D8A000EF09F002EF09F0DCEF08F035BCEB
:1012060007EF09F009EF09F049EF09F03750D8A4C4
:101216000FEF09F011EF09F01BEF09F0000E296E30
:10122600000E2A6E000E2B6E000E2C6E6AEF0AF070
:101236002D5029262E502A222F502B2230502C2278
:101246002CA028EF09F02AEF09F0D6EF09F038A014
:101256002FEF09F031EF09F037EF09F0D890383069
:101266000109386E39EF09F0D890383229A03EEFDF
:1012760009F040EF09F041EF09F0388E2C342C329A
:101286002B322A322932372AD6EF09F02D50295C23
:101296002E502A582F502B582C50800A316E305021
:1012A600800A3158D8B05AEF09F05CEF09F087EFA1
:1012B60009F029502D5C316E2A502E58326E2B5073
:1012C6002F58336E2C503058346EFF0E3124296E51
:1012D600FF0E32202A6EFF0E33202B6EFF0E3420B7
:1012E6002C6E800E351A386C3850D8A47DEF09F074
:1012F6007FEF09F08FEF09F0010E2926000E2A2252
:101306002B222C228FEF09F02D50295E2E502A5ABF
:101316002F502B5A30502C5A29502A102B102C1093
:10132600D8A498EF09F09AEF09F0CFEF09F03850FA
:10133600D8A4A0EF09F0A2EF09F0CFEF09F0000E54
:10134600296E000E2A6E000E2B6E000E2C6E6AEFB2
:101356000AF0D89029362A362B362C3638AEB6EF18
:1013660009F0B8EF09F0B9EF09F0298038A0BEEF0F
:1013760009F0C0EF09F0C4EF09F0D8803836C6EF9F
:1013860009F0D89038363750D8B4CCEF09F0CEEF04
:1013960009F0CFEF09F037062BAED4EF09F0D6EF00
:1013A60009F0ACEF09F0000E366E38AEDDEF09F04D
:1013B600DFEF09F0F7EF09F038C031F07F0E311694
:1013C600D8B4E8EF09F0EAEF09F0EEEF09F0010E04
:1013D600366EF7EF09F029A0F3EF09F0F5EF09F003
:1013E600F7EF09F0EAEF09F03650D8B4FDEF09F04F
:1013F600FFEF09F02AEF0AF0010E2926000E2A2235
:101406002B222C222CA00AEF0AF00CEF0AF02AEF6E
:101416000AF029C031F02AC032F02BC033F02CC0BC
:1014260034F03434343233323232313231C029F08E
:1014360032C02AF033C02BF034C02CF03728D8B491
:1014460027EF0AF029EF0AF02AEF0AF0372A3728A1
:10145600D8B430EF0AF032EF0AF03AEF0AF037501C
:10146600D8A438EF0AF03AEF0AF04CEF0AF0000E73
:10147600296E000E2A6E000E2B6E000E2C6E375053
:10148600D8A448EF0AF04AEF0AF04CEF0AF0000E33
:10149600356E37A051EF0AF053EF0AF056EF0AF017
:1014A6002B8E57EF0AF02B9ED89037302C6E35AE28
:1014B6005FEF0AF061EF0AF062EF0AF02C8E29C0A6
:1014C60029F02AC02AF02BC02BF02CC02CF01200D9
:1014D6000600F2A871EF0AF073EF0AF07CEF0AF04B
:1014E600F2A278EF0AF07AEF0AF07CEF0AF06AECE3
:1014F60011F0F0A681EF0AF083EF0AF08CEF0AF004
:10150600F0A088EF0AF08AEF0AF08CEF0AF068EC98
:1015160011F0F0A891EF0AF093EF0AF09CEF0AF0B1
:10152600F0A298EF0AF09AEF0AF09CEF0AF066EC48
:1015360011F0F2A6A1EF0AF0A3EF0AF0BEEF0AF04F
:10154600F2A0A8EF0AF0AAEF0AF0BEEF0AF081A80F
:10155600AFEF0AF0B1EF0AF0BEEF0AF07D04D8A4AF
:10156600B7EF0AF0B9EF0AF0BEEF0AF0000E7D6E93
:10157600000E3AEC11F0F2A6C3EF0AF0C5EF0AF03E
:10158600E0EF0AF0F2A0CAEF0AF0CCEF0AF0E0EFC3
:101596000AF081B8D1EF0AF0D3EF0AF0E0EF0AF0D3
:1015A6007D50D8A4D9EF0AF0DBEF0AF0E0EF0AF09D
:1015B600010E7D6E010E3AEC11F0F2A6E5EF0AF08F
:1015C600E7EF0AF002EF0BF0F2A0ECEF0AF0EEEF15
:1015D6000AF002EF0BF081AAF3EF0AF0F5EF0AF03A
:1015E60002EF0BF07C04D8A4FBEF0AF0FDEF0AF043
:1015F60002EF0BF0000E7C6E000E2DEC11F0F2A641
:1016060007EF0BF009EF0BF024EF0BF0F2A00EEF53
:101616000BF010EF0BF024EF0BF081BA15EF0BF087
:1016260017EF0BF024EF0BF07C50D8A41DEF0BF056
:101636001FEF0BF024EF0BF0010E7C6E010E2DEC6C
:1016460011F0F2A629EF0BF02BEF0BF046EF0BF0A3
:10165600F2A030EF0BF032EF0BF046EF0BF081AC5F
:1016660037EF0BF039EF0BF046EF0BF07B04D8A405
:101676003FEF0BF041EF0BF046EF0BF0000E7B6EE9
:10168600000E20EC11F0F2A64BEF0BF04DEF0BF035
:1016960068EF0BF0F2A052EF0BF054EF0BF068EF8F
:1016A6000BF081BC59EF0BF05BEF0BF068EF0BF022
:1016B6007B50D8A461EF0BF063EF0BF068EF0BF0F3
:1016C600010E7B6E010E20EC11F0F2A66DEF0BF011
:1016D6006FEF0BF08AEF0BF0F2A074EF0BF076EFE2
:1016E6000BF08AEF0BF081AE7BEF0BF07DEF0BF08A
:1016F6008AEF0BF07A04D8A483EF0BF085EF0BF09A
:101706008AEF0BF0000E7A6E000E13EC11F0F2A6C3
:101716008FEF0BF091EF0BF0ACEF0BF0F2A096EF22
:101726000BF098EF0BF0ACEF0BF081BE9DEF0BF0DA
:101736009FEF0BF0ACEF0BF07A50D8A4A5EF0BF0AF
:10174600A7EF0BF0ACEF0BF0010E7A6E010E13EC67
:1017560011F09DACB1EF0BF0B3EF0BF0BCEF0BF05B
:101766009EACB8EF0BF0BAEF0BF0BCEF0BF072ECDF
:1017760011F0F2AAC1EF0BF0C3EF0BF0CCEF0BF0B8
:10178600F2A4C8EF0BF0CAEF0BF0CCEF0BF053EC62
:1017960011F09DA0D1EF0BF0D3EF0BF0DCEF0BF0C7
:1017A6009EA0D8EF0BF0DAEF0BF0DCEF0BF04DEC70
:1017B60011F09DA2E1EF0BF0E3EF0BF0ECEF0BF075
:1017C6009EA2E8EF0BF0EAEF0BF0ECEF0BF05FEC0C
:1017D60011F0A0A2F1EF0BF0F3EF0BF0FCEF0BF022
:1017E600A1A2F8EF0BF0FAEF0BF0FCEF0BF047ECD1
:1017F60011F09DA801EF0CF003EF0CF00CEF0CF0CC
:101806009EA808EF0CF00AEF0CF00CEF0CF06CEC55
:1018160011F09DAA11EF0CF013EF0CF01CEF0CF079
:101826009EAA18EF0CF01AEF0CF01CEF0CF074ECFB
:1018360011F09DA421EF0CF023EF0CF02CEF0CF02F
:101846009EA428EF0CF02AEF0CF02CEF0CF070ECB5
:1018560011F0A0A031EF0CF033EF0CF03CEF0CF0E0
:10186600A1A038EF0CF03AEF0CF03CEF0CF06EEC68
:1018760011F07E9211001350800B206E135013242A
:10188600276E12AE49EF0CF04BEF0CF04CEF0CF05C
:1018960027802750D8B452EF0CF054EF0CF069EFC4
:1018A6000CF02728D8A45AEF0CF05CEF0CF064EF8C
:1018B6000CF0000E106E000E116E000E126E000E71
:1018C600136E128E000E136E71EF0CF0000E106E7A
:1018D600000E116E000E126E000E136E1750800B66
:1018E600201A17501724286E16AE7CEF0CF07EEFE8
:1018F6000CF07FEF0CF028802850D8B485EF0CF060
:1019060087EF0CF09CEF0CF02828D8A48DEF0CF094
:101916008FEF0CF097EF0CF0000E146E000E156EA4
:10192600000E166E000E176E168E000E176EA4EFC2
:101936000CF0000E146E000E156E000E166E000EE4
:10194600176E1450151016101710D8A4ADEF0CF022
:10195600AFEF0CF0C7EF0CF0000E106E000E116E1C
:10196600000E126E000E136E800E12127F0E1312F0
:101976002050131210C010F011C011F012C012F056
:1019860013C013F00AEF0EF02750D8A4CDEF0CF0D9
:10199600CFEF0CF0D9EF0CF0000E106E000E116EAA
:1019A600000E126E000E136E0AEF0EF0285027C0BE
:1019B60018F0196A185E000E195A7F0E1824216E47
:1019C600000E1920226E10C01CF011C01DF012C0AE
:1019D6001EF013C01FF0000E106E000E116E000EEA
:1019E600126E000E136E000E236E000E246E000E95
:1019F600256E000E266E000E286E3AEF0DF028506A
:101A0600D8B408EF0DF00AEF0DF021EF0DF0D890E5
:101A16001C361D361E361F36D89010361136123635
:101A2600133626AE19EF0DF01BEF0DF01CEF0DF07F
:101A36001080D890233624362536263614501C5C62
:101A460015501D5816501E5817501F58D8A02EEF67
:101A56000DF030EF0DF039EF0DF0268C14501C5EB2
:101A660015501D5A16501E5A17501F5A282A190E5D
:101A7600286440EF0DF042EF0DF002EF0DF01C5020
:101A86001D101E101F10D8B44BEF0DF04DEF0DF0CA
:101A960065EF0DF0238065EF0DF0D8901036113606
:101AA6001236133626AE5AEF0DF05CEF0DF05DEFF1
:101AB6000DF01080D890233624362536263621069A
:101AC600D8A0220612AE6AEF0DF06CEF0DF050EFC3
:101AD6000DF0000E286E26AE73EF0DF075EF0DF0CB
:101AE60099EF0DF0FF0E2314186EFF0E2414196ED5
:101AF600FF0E25141A6E7F0E26141B6E1850191031
:101B06001A101B10D8B48AEF0DF08CEF0DF090EF81
:101B16000DF0010E286E99EF0DF010A095EF0DF067
:101B260097EF0DF099EF0DF08CEF0DF02850D8B42B
:101B36009FEF0DF0A1EF0DF0C5EF0DF0010E102691
:101B4600000E11221222132213A0ACEF0DF0AEEFFD
:101B56000DF0C5EF0DF010C018F011C019F012C04D
:101B66001AF013C01BF01B341B321A32193218320A
:101B760018C010F019C011F01AC012F01BC013F0F3
:101B8600214A222A22BED0EF0DF0225008E1212858
:101B9600D8A0D0EF0DF0D2EF0DF0DDEF0DF0000E76
:101BA600226E2168000E106E000E116E000E126E6F
:101BB600000E136E22BEEAEF0DF0225006E121045C
:101BC600D8B0E8EF0DF0EAEF0DF0F8EF0DF0000EEB
:101BD600226E000E216E000E106E000E116E000EAB
:101BE600126E000E136E000E206E21C027F027A085
:101BF600FFEF0DF001EF0EF004EF0EF0128E05EF81
:101C06000EF0129ED8902730136EBBEF0CF0120028
:101C16000A6E0A50D8B412EF0EF014EF0EF036EF3B
:101C26000EF005BE1BEF0EF019EF0EF036EF0EF0BC
:101C360002C006F003C007F004C008F005C009F0B2
:101C4600061E071E081E091E062A000E0722082267
:101C5600092206C00CF007C00DF008C00EF009C03E
:101C66000FF03EEF0EF002C00CF003C00DF004C002
:101C76000EF005C00FF00250031004100510D8A492
:101C860047EF0EF049EF0EF053EF0EF0000E026E26
:101C9600000E036E000E046E000E056EE4EF0EF0ED
:101CA600960E0B6E5DEF0EF00B2AD8900F320E32A9
:101CB6000D320C32000E0C14066E000E0D14076E5B
:101CC600000E0E14086EFE0E0F14096E0650071055
:101CD60008100910D8A472EF0EF074EF0EF057EF4B
:101CE6000EF082EF0EF00B2A010E0C26000E0D22CE
:101CF6000E220F22D8900F320E320D320C32000E09
:101D06000C14066E000E0D14076E000E0E14086EEF
:101D1600FF0E0F14096E0650071008100910D8A4FC
:101D260097EF0EF099EF0EF076EF0EF0A1EF0EF0B2
:101D36000B06D8900C360D360E360F360EBEA6EFB5
:101D46000EF0A8EF0EF0B0EF0EF0020E0B60AEEF45
:101D56000EF0B0EF0EF09BEF0EF00BB0B5EF0EF0FD
:101D6600B7EF0EF0B8EF0EF00E9ED8900B320BC008
:101D760006F0076A086A096A06C009F0086A076A6F
:101D8600066A06500C1207500D1208500E12095022
:101D96000F120A50D8B4D2EF0EF0D4EF0EF0DCEFEB
:101DA6000EF005BEDBEF0EF0D9EF0EF0DCEF0EF015
:101DB6000F8E0CC002F00DC003F00EC004F00FC071
:101DC60005F0120046504710D8A4ECEF0EF0EEEFE7
:101DD6000EF0F3EF0EF0000E0001CA6F87EF0FF062
:101DE600C69A20EE06F04650D9264750DA22DFA0E2
:101DF600FFEF0EF001EF0FF009EF0FF046C043F0D2
:101E060047C044F00CEC10F045EF0FF020EE06F062
:101E16004650D9264750DA22DFB014EF0FF016EFFE
:101E26000FF045EF0FF020EE06F04650D92647504A
:101E3600DA22DFA621EF0FF023EF0FF026EF0FF0E7
:101E4600C58E34EF0FF020EE06F04650D9264750E7
:101E5600DA22DFB631EF0FF033EF0FF034EF0FF089
:101E6600C59EC69EC69CC68820EE05F04650D9265D
:101E76004750DA22DF50C86E46C002F047C003F072
:101E860005EC11F063EC11F020EE06F04650D92671
:101E96004750DA22DFA252EF0FF054EF0FF057EF60
:101EA6000FF0C78E65EF0FF020EE06F04650D926EC
:101EB6004750DA22DFB262EF0FF064EF0FF065EF02
:101EC6000FF0C79E20EE06F04650D9264750DA227C
:101ED600DFA470EF0FF072EF0FF075EF0FF0C78C05
:101EE60083EF0FF020EE06F04650D9264750DA224F
:101EF600DFB480EF0FF082EF0FF083EF0FF0C79C97
:101F0600C68A010E0001CA6FCA5112003B343C3426
:101F1600426E4250D8A492EF0FF094EF0FF09EEF6E
:101F26000FF0000E396E000E3A6E000E3B6E000E7C
:101F36003C6E0BEF10F039C03DF03AC03EF03BC0AE
:101F46003FF03CC040F0200EAEEF0FF0D89040328C
:101F56003F323E323D32E82EA9EF0FF03D50416E42
:101F66003B8EFF0E3916FF0E3A16FF0E3B16000E7D
:101F76003C16960E425E42BEC5EF0FF0C3EF0FF061
:101F8600DBEF0FF04250800A970FD8B0CDEF0FF07D
:101F9600CFEF0FF0D1EF0FF094EF0FF0D8903C3267
:101FA6003B323A323932423ED1EF0FF0F3EF0FF0C7
:101FB6001F0E4264E1EF0FF0E3EF0FF0EBEF0FF0CF
:101FC60094EF0FF0D89039363A363B363C36420617
:101FD6004250D8A4F1EF0FF0F3EF0FF0E5EF0FF05A
:101FE6004150D8B4F9EF0FF0FBEF0FF003EF10F00C
:101FF6003C1E3B1E3A1E396C000E3A223B223C2206
:1020060039C039F03AC03AF03BC03BF03CC03CF036
:10201600120020EE04F04350D9264450DA22DF5055
:10202600456EC6504518F00B4518C66E000E2D6E4F
:10203600000E2E6E800E2F6EBF0E306E43C0D9FF7F
:1020460044C0DAFFDECF02F0DECF03F0DECF04F0CD
:10205600DECF05F0000E0BEC0EF002C014F003C04C
:1020660015F004C016F005C017F0000E106E240E11
:10207600116EF40E126E490E136E3EEC0CF010C08B
:1020860029F011C02AF012C02BF013C02CF00BEC73
:1020960008F029C039F02AC03AF02BC03BF02CC01A
:1020A6003CF089EC0FF03950C86E1200DE0EF66E69
:1020B600210EF76E000EF86E00EE80F010EE2CF09A
:1020C6000900F5CFEEFFE550E150FAE1B20EF66EEB
:1020D600220EF76E000EF86E00EE73F010EE0BF0A7
:1020E6000900F5CFEEFFE550E150FAE100EEACF065
:1020F6001E0EEE6AE806FDE100EE48F02B0EEE6AD3
:10210600E806FDE17E907E9200018AEF10F0A00EB7
:102116006C6E860E6D6E010E6E6E000E6F6E7280A8
:10212600080E706E729472826C0E466E000E476ECA
:10213600E5EC0EF06C0E026E000E036ECEEC10F0A7
:102146006C0E026E000E036EADEC10F0A9EF10F0EF
:1021560007EF00F002500310D8A4B4EF10F0B6EF6A
:1021660010F0BAEF10F0000E046ECCEF10F0C5843C
:10217600C5B4C0EF10F0C2EF10F0BBEF10F09E96A2
:10218600C7A8C8EF10F0CAEF10F0B6EF10F0010EB6
:10219600046E0450120002500310D8A4D5EF10F0BC
:1021A600D7EF10F0DBEF10F0000E046EEDEF10F03D
:1021B600C580C5B0E1EF10F0E3EF10F0DCEF10F0F2
:1021C6009E96C7A6E9EF10F0EBEF10F0D7EF10F0F0
:1021D600010E046E04501200800F810F820F830FD0
:1021E600840F890F8A0F8B0F8C0F8D0F920F930F11
:1021F600940F950F960F020A121A626A727A020AF1
:10220600121A222A20EE04F00250D9260350DA22AE
:10221600DF50046EC6500418F00B0418C66E120088
:10222600016EF2900150D8A41BEF11F01DEF11F0D2
:102236001FEF11F01FEF11F01200016EF290015026
:10224600D8A428EF11F02AEF11F02CEF11F02CEFA3
:1022560011F01200016EF2900150D8A435EF11F082
:1022660037EF11F039EF11F039EF11F01200016E6E
:10227600F2900150D8A442EF11F044EF11F046EF6E
:1022860011F046EF11F01200A1924950B36E48C00A
:10229600B2FF12009E904B50CF6E4AC0CEFF120086
:1022A600F2944D50D76E4CC0D6FF1200685A622A7F
:0722B6001A622A0101010177
:1022BE009E9264C0CCFF1200948694881200F09215
:1022CE001200F0901200F29212009D981200A1904E
:0C22DE0012009E9412009E9C1200120040
:020000040020DA
:08000000FFFFFFFFFFFFFFFF00
:020000040030CA
:0E000000FF020F1EFF8181FF0FC00FE00F40B7
:00000001FF
