:0400000007EF00F016
:0A00080073821DED08F07AEF13F08B
:10100000003738392F3435362A3132332D23303DED
:101010002B414443205465737400506F74303A2060
:1010200000506F74313A2000506F74323A200050F3
:101030006F74333A2000256900000600FACF09F0EA
:10104000FBCF0AF0D9CF0BF0DACF0CF0F2A82BEFE0
:1010500008F02DEF08F036EF08F0F2A232EF08F0BA
:1010600034EF08F036EF08F08EEC16F0F0A63BEF08
:1010700008F03DEF08F046EF08F0F0A042EF08F06E
:1010800044EF08F046EF08F08CEC16F0F0A84BEFB8
:1010900008F04DEF08F056EF08F0F0A252EF08F01C
:1010A00054EF08F056EF08F08AEC16F0F2A65BEF6A
:1010B00008F05DEF08F078EF08F0F2A062EF08F0BA
:1010C00064EF08F078EF08F081A869EF08F06BEFA3
:1010D00008F078EF08F07204D8A471EF08F073EF0D
:1010E00008F078EF08F0000E726E000E73EC16F048
:1010F000F2A67DEF08F07FEF08F09AEF08F0F2A07B
:1011000084EF08F086EF08F09AEF08F081B88BEFD3
:1011100008F08DEF08F09AEF08F07250D8A493EF22
:1011200008F095EF08F09AEF08F0010E726E010ECC
:1011300073EC16F0F2A69FEF08F0A1EF08F0BCEFF9
:1011400008F0F2A0A6EF08F0A8EF08F0BCEF08F056
:1011500081AAADEF08F0AFEF08F0BCEF08F0710422
:10116000D8A4B5EF08F0B7EF08F0BCEF08F0000E18
:10117000716E000E66EC16F0F2A6C1EF08F0C3EF38
:1011800008F0DEEF08F0F2A0C8EF08F0CAEF08F0B0
:10119000DEEF08F081BACFEF08F0D1EF08F0DEEF14
:1011A00008F07150D8A4D7EF08F0D9EF08F0DEEFBF
:1011B00008F0010E716E010E66EC16F0F2A6E3EF78
:1011C00008F0E5EF08F000EF09F0F2A0EAEF08F010
:1011D000ECEF08F000EF09F081ACF1EF08F0F3EF6D
:1011E00008F000EF09F07004D8A4F9EF08F0FBEF65
:1011F00008F000EF09F0000E706E000E59EC16F0CA
:10120000F2A605EF09F007EF09F022EF09F0F2A0CE
:101210000CEF09F00EEF09F022EF09F081BC13EF9B
:1012200009F015EF09F022EF09F07050D8A41BEF78
:1012300009F01DEF09F022EF09F0010E706E010EAA
:1012400059EC16F0F2A627EF09F029EF09F044EF68
:1012500009F0F2A02EEF09F030EF09F044EF09F0A9
:1012600081AE35EF09F037EF09F044EF09F06F0474
:10127000D8A43DEF09F03FEF09F044EF09F0000E6C
:101280006F6E000E4CEC16F0F2A649EF09F04BEF32
:1012900009F066EF09F0F2A050EF09F052EF09F003
:1012A00066EF09F081BE57EF09F059EF09F066EFDC
:1012B00009F06F50D8A45FEF09F061EF09F066EF15
:1012C00009F0010E6F6E010E4CEC16F09DAC6BEF49
:1012D00009F06DEF09F076EF09F09EAC72EF09F0BE
:1012E00074EF09F076EF09F00DEC16F00CC0DAFFA0
:1012F0000BC0D9FF0AC0FBFF09C0FAFF73921100AF
:101300002AC040F02BC041F02CC042F02DC043F069
:101310002EC044F02FC045F030C046F031C047F039
:1013200047BE95EF09F098EF09F0010E99EF09F02B
:10133000000E486E4850D8B4A0EF09F0A2EF09F0B3
:10134000B2EF09F0471E461E451E441E431E421EB4
:10135000411E406C000E412242224322442245227B
:1013600046224722000189BFC0EF09F0895106E1FA
:101370008805D8B0BEEF09F0C0EF09F0C6EF09F05C
:10138000000E3D6E010E3C6ECAEF09F088C03CF0C5
:1013900089C03DF086C03EF087C03FF04850D8B4C9
:1013A000D4EF09F0D6EF09F0EDEF09F03E06D8A032
:1013B0003F064850D8A4DFEF09F0E1EF09F0E7EF6E
:1013C00009F0000E3B6E2B0E3A6EEBEF09F0000EAB
:1013D0003B6E2D0E3A6E3AC048F0000E4A6E1F0E5C
:1013E000496E000E01011F6F72EF0AF04906D8A086
:1013F0004A06000E4924D96E010E4A20DA6E40C01A
:101400000DF041C00EF042C00FF043C010F044C0D8
:1014100011F045C012F046C013F047C014F00A0E98
:10142000156E000E166E000E176E000E186E000E72
:10143000196E000E1A6E000E1B6E000E1C6E5DEC17
:101440000DF00DC032F00EC033F00FC034F010C0FC
:1014500035F011C036F012C037F013C038F014C0A8
:1014600039F032C01FF033C020F0B6EC15F01F5039
:10147000300FDF6E3C06D8A03D063E06D8A03F06E2
:1014800040C00DF041C00EF042C00FF043C010F05C
:1014900044C011F045C012F046C013F047C014F02C
:1014A0000A0E156E000E166E000E176E000E186EE8
:1014B000000E196E000E1A6E000E1B6E000E1C6ED2
:1014C000DEEC0BF00DC040F00EC041F00FC042F05A
:1014D00010C043F011C044F012C045F013C046F0F4
:1014E00014C047F04ABE7DEF0AF04A5008E14904B3
:1014F000D8A07DEF0AF07FEF0AF09BEF0AF0405092
:101500004110421043104410451046104710D8A413
:101510008CEF0AF08EEF0AF0F6EF09F03DBE9BEF7C
:101520000AF03D5006E13C04D8B099EF0AF09BEF79
:101530000AF0F6EF09F04850D8B4A1EF0AF0A3EF93
:101540000AF0AEEF0AF04906D8A04A06000E492478
:10155000D96E010E4A20DA6E48C0DFFF28C01DF0A8
:1015600029C01EF0000E49241F6E010E4A20206E75
:101570003EC021F03FC022F0C1EC13F0120085EC18
:1015800016F0DE0E106E000E116E1BEC12F0E50E62
:101590001F6E000E206E5CEC0FF0E50E266E000E46
:1015A000276E010E286E070E296E110E2A6E100E80
:1015B0002B6E2AEC13F00B0E0001FF6F260EFE6F50
:1015C0005D0EE82EFED7FE2FFCD7FF2FFAD700D0F6
:1015D000E50E1B6E000E1C6E010E1D6E37EC14F036
:1015E000E50E266E000E276E010E286E010E296E86
:1015F0001A0E2A6E100E2B6E2AEC13F0E50E266ED4
:10160000000E276E020E286E010E296E210E2A6E24
:10161000100E2B6E2AEC13F0E50E266E000E276ED0
:10162000030E286E010E296E280E2A6E100E2B6EE8
:101630002AEC13F0E50E266E000E276E040E286EBF
:10164000010E296E2F0E2A6E100E2B6E2AEC13F04F
:101650006750D8A42EEF0BF030EF0BF03AEF0BF001
:10166000DE0E156E000E166E000E176E72EC15F083
:1016700072EF0BF06704D8A440EF0BF042EF0BF0D1
:101680004CEF0BF0DE0E156E000E166E010E176E8F
:1016900072EC15F072EF0BF0020E6718D8A453EF3E
:1016A0000BF055EF0BF05FEF0BF0DE0E156E000E3A
:1016B000166E020E176E72EC15F072EF0BF0030E41
:1016C0006718D8A466EF0BF068EF0BF072EF0BF021
:1016D000DE0E156E000E166E030E176E72EC15F010
:1016E00072EF0BF0C0C020F1C1C021F1B40E0101B6
:1016F000226F000E236FBBEC11F0656EBEC020F1AF
:10170000BFC021F1AE0E0101226F000E236FBBECB2
:1017100011F0656EBCC020F1BDC021F1A80E010121
:10172000226F000E236FBBEC11F0656EBAC020F182
:10173000BBC021F1A20E0101226F000E236FBBEC92
:1017400011F0656EE50E266E000E276E010E286EF6
:10175000070E296EB40E2A6E000E2B6E2AEC13F0C3
:10176000E50E266E000E276E020E286E070E296EFD
:10177000AE0E2A6E000E2B6E2AEC13F0E50E266ECE
:10178000000E276E030E286E070E296EA80E2A6E15
:10179000000E2B6E2AEC13F0E50E266E000E276E5F
:1017A000040E286E070E296EA20E2A6E000E2B6EF6
:1017B0002AEC13F028EF0BF007EF00F0000E1E6E7E
:1017C0001CBEE7EF0BF0E5EF0BF0F9EF0BF01C1E82
:1017D0001B1E1A1E191E181E171E161E156C000E33
:1017E00016221722182219221A221B221C22010E4D
:1017F0001E6E14BE00EF0CF0FEEF0BF012EF0CF0BB
:10180000141E131E121E111E101E0F1E0E1E0D6C16
:10181000000E0E220F221022112212221322142255
:10182000010E1E1A20EE1FF0070EDE6AE806FDE22A
:10183000155016101710181019101A101B101C1024
:10184000D8B425EF0CF027EF0CF079EF0CF0010E77
:101850001D6E35EF0CF0D890153616361736183643
:1018600019361A361B361C361D2A1CAE3AEF0CF000
:101870003CEF0CF02BEF0CF0D8901F3620362136C1
:101880002236233624362536263615500D5C165062
:101890000E5817500F5818501058195011581A5008
:1018A00012581B5013581C501458D8A05AEF0CF063
:1018B0005CEF0CF06DEF0CF015500D5E16500E5AEB
:1018C00017500F5A1850105A1950115A1A50125ACC
:1018D0001B50135A1C50145A1F80D8901C321B32B4
:1018E0001A32193218321732163215321D2E3CEFC9
:1018F0000CF01E50D8B47FEF0CF081EF0CF091EF9C
:101900000CF0261E251E241E231E221E211E201E14
:101910001F6C000E20222122222223222422252293
:1019200026221FC00DF020C00EF021C00FF022C0F3
:1019300010F023C011F024C012F025C013F026C00F
:1019400014F012000DC017F00EC018F01150121054
:10195000D8A4ADEF0CF0AFEF0CF0B1EF0CF05CEFF2
:101960000DF017C0D9FF18C0DAFF0FC0DFFF11500C
:101970001724136E12501820146EFF0E1324D96E04
:10198000FF0E1420DA6E0FC0DFFF125007E1030EC6
:10199000115CD8B0CEEF0CF0D0EF0CF0D2EF0CF021
:1019A0005CEF0DF020EE01F01750D9261850DA2226
:1019B0000FC0DFFF20EE02F01750D9261850DA22B0
:1019C0000FC0DFFF11501724136E12501820146E31
:1019D000FE0E1324D96EFF0E1420DA6E0FC0DFFF47
:1019E00011501724136E12501820146EFD0E13247C
:1019F000D96EFF0E1420DA6E0FC0DFFF125007E120
:101A0000070E115CD8B007EF0DF009EF0DF00BEFEA
:101A10000DF05CEF0DF020EE03F01750D9261850B2
:101A2000DA220FC0DFFF11501724136E1250182056
:101A3000146EFC0E1324D96EFF0E1420DA6E0FC044
:101A4000DFFF125007E1090E115CD8B02AEF0DF04C
:101A50002CEF0DF02EEF0DF05CEF0DF017C013F032
:101A600018C014F0131E141E134A142A030E131464
:101A7000156E166A15501726165018221550115E4D
:101A80001650125AFC0E1116FF0E121653EF0DF0DF
:101A900017C0D9FF18C0DAFF0FC0DFFF1106D8A0AA
:101AA0001206174A182A11501210D8A45AEF0DF036
:101AB0005CEF0DF048EF0DF01200000E1E6E14BE2C
:101AC00066EF0DF064EF0DF078EF0DF0141E131EAD
:101AD000121E111E101E0F1E0E1E0D6C000E0E2269
:101AE0000F2210221122122213221422010E1E6E26
:101AF0001CBE7FEF0DF07DEF0DF08FEF0DF01C1E83
:101B00001B1E1A1E191E181E171E161E156C000EFF
:101B100016221722182219221A221B221C221550C3
:101B200016101710181019101A101B101C10D8B40A
:101B30009CEF0DF09EEF0DF0E6EF0DF0010E1D6E27
:101B4000ACEF0DF0D8901536163617361836193614
:101B50001A361B361C361D2A1CAEB1EF0DF0B3EF42
:101B60000DF0A2EF0DF015500D5C16500E581750E9
:101B70000F5818501058195011581A5012581B501D
:101B800013581C501458D8A0C8EF0DF0CAEF0DF030
:101B9000DAEF0DF015500D5E16500E5A17500F5A11
:101BA0001850105A1950115A1A50125A1B50135AE1
:101BB0001C50145AD8901C321B321A321932183267
:101BC0001732163215321D2EB3EF0DF01E50D8B459
:101BD000ECEF0DF0EEEF0DF0FEEF0DF0141E131E06
:101BE000121E111E101E0F1E0E1E0D6C000E0E2258
:101BF0000F22102211221222132214220DC00DF0E6
:101C00000EC00EF00FC00FF010C010F011C011F098
:101C100012C012F013C013F014C014F012004DC023
:101C2000D9FF4EC0DAFFDECFF6FFDDCFF7FFF86A4F
:101C30000800F550250AD8A420EF0EF022EF0EF090
:101C4000A4EF0EF04DC0D9FF4EC0DAFFDE2A000E21
:101C5000DD22000E0001876F000E866F86C066F0E1
:101C6000886989694DC0D9FF4EC0DAFFDECF5BF0CD
:101C7000DDCF5CF05BC0F6FF5CC0F7FFF86A0800E0
:101C8000F550640AD8B447EF0EF049EF0EF058EF64
:101C90000EF05BC0F6FF5CC0F7FFF86A0800F55075
:101CA000690AD8A456EF0EF058EF0EF09BEF0EF035
:101CB0004FC0D9FF50C0DAFFDFCF51F0020EDE2651
:101CC000DFCF52F0000EDD2251C0D9FF52C0DAFF43
:101CD000DECF53F0DDCF54F0000E54BEFF0E556E34
:101CE000566E576E586E596E5A6E010E5B24516EC9
:101CF000000E5C20526E4DC0D9FF4EC0DAFF51C0BD
:101D0000DEFF52C0DDFF4BC028F04CC029F053C0AD
:101D10002AF054C02BF055C02CF056C02DF057C0FF
:101D20002EF058C02FF059C030F05AC031F080EC7E
:101D300009F0B9EF0EF04DC0D9FF4EC0DAFFDE2A30
:101D4000000EDD22B9EF0EF04DC0D9FF4EC0DAFF14
:101D5000DECFF6FFDDCFF7FFF86A0800F5500D6E15
:101D60000E6A4BC00FF04CC010F0F4EC10F09BEF7B
:101D70000EF01200010E156E0D500E10D8B4C3EF08
:101D80000EF0C5EF0EF0D6EF0EF00DC0D9FF0EC06D
:101D9000DAFFDF30E832E832070B0F6E070E0F6410
:101DA000D4EF0EF0D6EF0EF039EF0FF0000E156EF7
:101DB0005AEF0FF00DC0D9FF0EC0DAFFDF30E83266
:101DC000E832070B0F6E010E106E0F2AEAEF0EF0CD
:101DD000D89010360F2EE8EF0EF01050FF0A116E5B
:101DE0000DC0D9FF0EC0DAFFDF50070B126E125084
:101DF000020DCC0EF324D96E000EF420DA6EDECF85
:101E000013F0DDCF14F013C0D9FF14C0DAFF115066
:101E1000DF165AEF0FF00DC0D9FF0EC0DAFFDF302A
:101E2000E832E832070B0F6E010E106E0F2A1BEF1F
:101E30000FF0D89010360F2E19EF0FF00DC0D9FF0C
:101E40000EC0DAFFDF50070B116E1150020DCC0EE1
:101E5000F324D96E000EF420DA6EDECF12F0DDCF5F
:101E600013F012C0D9FF13C0DAFF1050DF125AEF7F
:101E70000FF00DC0D9FF0EC0DAFFDFBC42EF0FF04C
:101E800045EF0FF0010E46EF0FF0000E0F6E106AD7
:101E90001050000AD8B44FEF0FF0D6EF0EF00F50ED
:101EA000000AD8B4DAEF0EF0010AD8B40BEF0FF045
:101EB000D6EF0EF015501200000E236E1F502010AA
:101EC000D8A465EF0FF067EF0FF06BEF0FF0000E87
:101ED000246EF0EF0FF01FC017F020C018F070EC68
:101EE00014F0246E010E1F24176E000E2020186EB1
:101EF00070EC14F0246E000E236E23501F24216E0C
:101F0000000E2020226E020E2124176E000E2220C9
:101F1000186E70EC14F0232A030E236492EF0FF076
:101F200094EF0FF07DEF0FF01A0E216EF80EE82EF1
:101F3000FED7212EFCD700D01FC01BF020C01CF004
:101F4000380E1D6E37EC14F0070E216E7D0EE82E54
:101F5000FED7212EFCD700F01FC01BF020C01CF0C4
:101F6000380E1D6E37EC14F0320EE82EFED71FC06F
:101F70001BF020C01CF0380E1D6E37EC14F01FC093
:101F80001BF020C01CF0010E1D6E37EC14F01FC0BA
:101F90001BF020C01CF0020E1D6E37EC14F01FC0A9
:101FA0001BF020C01CF0060E1D6E37EC14F01FC095
:101FB0001BF020C01CF00C0E1D6E37EC14F01FC07F
:101FC0001BF020C01CF0280E1D6E37EC14F01FC053
:101FD0001BF020C01CF0800E1D6E37EC14F0246E38
:101FE00024501200010E166E0D500E10D8B4FBEFE7
:101FF0000FF0FDEF0FF00EEF10F00DC0D9FF0EC087
:10200000DAFFDF30E832E832070B106E070E10649B
:102010000CEF10F00EEF10F071EF10F0000E166ED6
:1020200086EF10F00DC0D9FF0EC0DAFFDF30E832C6
:10203000E832070B106E010E116E102A22EF10F01D
:10204000D8901136102E20EF10F01150FF0A126EAA
:102050000DC0D9FF0EC0DAFFDF50070B136E13500F
:10206000020DC20EF324D96E000EF420DA6EDECF1C
:1020700014F0DDCF15F014C0D9FF15C0DAFF1250EF
:10208000DF1686EF10F00DC0D9FF0EC0DAFFDF308B
:10209000E832E832070B106E010E116E102A53EF72
:1020A00010F0D8901136102E51EF10F00DC0D9FF5E
:1020B0000EC0DAFFDF50070B126E1250020DC20E77
:1020C000F324D96E000EF420DA6EDECF13F0DDCFEC
:1020D00014F013C0D9FF14C0DAFF1150DF1286EFDD
:1020E00010F00F50106E116A1150000AD8B47BEF37
:1020F00010F00EEF10F01050000AD8B412EF10F0EC
:10210000010AD8B443EF10F00EEF10F01650120091
:102110000F6EB2EF10F09280F3EF10F09282F3EFB7
:1021200010F09284F3EF10F09286F3EF10F0928AA1
:10213000F3EF10F09680F3EF10F09682F3EF10F0CB
:102140009684F3EF10F09384F3EF10F09386F3EF9F
:1021500010F09382F3EF10F09388F3EF10F0938078
:10216000F3EF10F00F500D6E0E6A0E50000AD8B447
:10217000BCEF10F0F3EF10F00D50000AD8B48BEF65
:1021800010F0010AD8B48EEF10F0030AD8B491EF22
:1021900010F0010AD8B494EF10F0070AD8B497EF02
:1021A00010F0010AD8B49AEF10F0030AD8B49DEFEA
:1021B00010F0010AD8B4A0EF10F00F0AD8B4A3EFC2
:1021C00010F0010AD8B4A6EF10F0030AD8B4A9EFB2
:1021D00010F0010AD8B4ACEF10F0070AD8B4AFEF92
:1021E00010F0F3EF10F012000F501010D8B4FBEF06
:1021F00010F0FDEF10F006EF11F00F501010D8A402
:1022000004EF11F006EF11F00BEF11F00D5090EC10
:1022100016F058EF11F020EE09F00F50D9261050AB
:10222000DA22DE50DE10D8B418EF11F01AEF11F0F8
:1022300035EF11F020EE09F00F50D9261050DA22B8
:1022400010EE03F00F50E1261050E222DE50E65C63
:10225000E650800A156EDE50800A1558D8B033EF6C
:1022600011F035EF11F058EF11F020EE03F00F50A0
:10227000D9261050DA22DECF11F0DDCF12F00FC0D8
:10228000D9FF10C0DAFFDECF13F0DDCF14F011500C
:102290001324D96E12501420DA6E0DC0DFFF20EE29
:1022A00003F00F50D9261050DA22DE2A000EDD226C
:1022B000120001500210D8B460EF11F062EF11F07B
:1022C0006BEF11F003500410D8A469EF11F06BEF1D
:1022D00011F06FEF11F0000E086EB9EF11F020EE63
:1022E00006F00150D9260250DA22DFA27AEF11F06F
:1022F0007CEF11F090EF11F0C350C4CF05F0066AE7
:1023000005C006F0056A0526000E062203C0D9FFA7
:1023100004C0DAFF05C0DEFF06C0DDFFB7EF11F035
:1023200020EE06F00150D9260250DA22DFB29BEFF0
:1023300011F09DEF11F07CEF11F0C350C4CF05F008
:10234000066A05C006F0056A0526000E0622060E7E
:10235000076E063406320532072EA9EF11F003C0CE
:10236000D9FF04C0DAFF05C0DEFF06C0DDFF010EA5
:10237000086E08501200010E01012A6F21EE24F0B0
:10238000050EDE6AE806FDE2000E2B6F22512311D6
:10239000D8A4CDEF11F0CFEF11F0D3EF11F0000E74
:1023A0002A6F19EF12F022C10DF023C10EF0000EBA
:1023B000106E200E0F6E000E126E050E116EA2EC46
:1023C0000CF0010120EE05F02251D9262351DA222A
:1023D000000EDF6E240E0001EB6F010EEC6F360E67
:1023E000ED6F100EEE6F20C1EFF021C1F0F0DAECCE
:1023F00014F00AEF12F0240E2B25D96EDA6A010EC2
:10240000DA222B512225E16E000E2321E26EDFCF6E
:10241000E7FF2B2B240E01012B25D96EDA6A010E62
:10242000DA22DF50D8A417EF12F019EF12F0FBEF09
:1024300011F02A51120010501110D8A422EF12F0FE
:1024400024EF12F028EF12F0000E136E79EF12F065
:10245000C29020EE03F01050D9261150DA22DF503E
:10246000126E124612461246C0501218C70B1218AE
:10247000C06E20EE04F01050D9261150DA22DF5041
:10248000126EC0501218F80B1218C06E20EE05F034
:102490001050D9261150DA22DF50126E1246124621
:1024A000C2501218C30B1218C26E20EE05F0105065
:1024B000D9261150DA22DF5088EC10F0F28EF28C1F
:1024C0009D8C9E9C10C0D9FF11C0DAFFDECF8AF030
:1024D000DDCF8BF010C00DF011C00EF094EC15F0B4
:1024E00010C00DF011C00EF02BEC15F0C280010EE3
:1024F000136E135012006750D8A481EF12F083EFCF
:1025000012F091EF12F0DE0E016E000E026EC00EA0
:10251000036E000E046E59EC11F0010E676ED5EFDC
:1025200012F06704D8A497EF12F099EF12F0A7EF1A
:1025300012F0DE0E016E000E026EBE0E036E000E75
:10254000046E59EC11F0020E676ED5EF12F0020E18
:102550006718D8A4AEEF12F0B0EF12F0BEEF12F091
:10256000DE0E016E000E026EBC0E036E000E046ED7
:1025700059EC11F0030E676ED5EF12F0030E6718D9
:10258000D8A4C5EF12F0C7EF12F0D5EF12F0DE0EAF
:10259000016E000E026EBA0E036E000E046E59EC50
:1025A00011F0000E676ED5EF12F01200010E256ECD
:1025B00022060BEF13F01FC01BF020C01CF02250AE
:1025C000800F1D6E37EC14F0256E28EF13F01FC03E
:1025D0001BF020C01CF02250C00F1D6E37EC14F011
:1025E000256E28EF13F01FC01BF020C01CF02250F6
:1025F000940F1D6E37EC14F0256E28EF13F01FC0FA
:102600001BF020C01CF02250D40F1D6E37EC14F0CC
:10261000256E28EF13F02150236E246A2450000AFF
:10262000D8B415EF13F028EF13F02350010AD8B4F3
:10263000DBEF12F0030AD8B4E7EF12F0010AD8B4C6
:10264000F3EF12F0070AD8B4FFEF12F028EF13F0FF
:102650002550120026502710D8A431EF13F033EF85
:1026600013F037EF13F0000E2C6E78EF13F026C046
:102670001FF027C020F028C021F029C022F0D6EC9E
:1026800012F02C6E5FEF13F026C01BF027C01CF079
:102690002AC0F6FF2BC0F7FF000EF86E0F0EF7648E
:1026A00003D00800F55005D0F6CFE9FFF7CFEAFFD9
:1026B000EF501D6EFEEC13F02C6E2A4A2B2A2AC016
:1026C000F6FF2BC0F7FF000EF86E0F0EF76403D075
:1026D0000800F55005D0F6CFE9FFF7CFEAFFEF503D
:1026E0000009D8A476EF13F078EF13F044EF13F05D
:1026F0002C501200000EF66E2D0EF76E000EF86EC6
:1027000001EE2CF010EE0AF00900F5CFEEFFE550D7
:10271000E150FAE14A0EF66E2C0EF76E000EF86EDE
:1027200000EEC2F010EE29F00900F5CFEEFFE55003
:10273000E150FAE1100EF66E2D0EF76E000EF86EF7
:1027400000EE6FF010EE04F00900F5CFEEFFE5505B
:10275000E150FAE101EE00F0200EEE6AE806FDE13C
:1027600000EE80F0420EEE6AE806FDE100EE66F053
:10277000090EEE6AE806FDE1739073920001BFEF67
:102780000AF022BEC6EF13F0C8EF13F0CEEF13F03D
:1027900021C026F022C027F0D2EF13F0000E276EE2
:1027A000000E266E000E256E000E246EE4EF13F070
:1027B000000E0E6E200E0D6E1DC00FF01EC010F02C
:1027C000F4EC10F0244A252A2650245C2550800A77
:1027D000236E2750800A2358D8A0F1EF13F0F3EFAF
:1027E00013F0D8EF13F01FC016F020C017F01DC073
:1027F00018F01EC019F050EC15F012001B501C1000
:10280000D8A405EF14F007EF14F00BEF14F0000E4E
:102810001E6E35EF14F01BC00DF01CC00EF0010E43
:102820000F6EF2EC0FF01E6E1BC017F01CC018F0FC
:102830001D380F0B196EA6EC14F01E6E1BC017F09E
:102840001CC018F0F3EC15F01E6E1BC017F01CC076
:1028500018F01DC019F0A6EC14F01E6E1BC017F086
:102860001CC018F0F3EC15F01E6E1E5012001B5029
:102870001C10D8A43EEF14F040EF14F044EF14F015
:10288000000E1E6E6EEF14F01BC00DF01CC00EF09B
:10289000000E0F6EF2EC0FF01E6E1BC017F01CC086
:1028A00018F01D380F0B196EA6EC14F01E6E1BC02D
:1028B00017F01CC018F0F3EC15F01E6E1BC017F0DB
:1028C0001CC018F01DC019F0A6EC14F01E6E1BC041
:1028D00017F01CC018F0F3EC15F01E6E1E5012001D
:1028E00017501810D8B477EF14F079EF14F08AEF7E
:1028F00014F017C0D9FF18C0DAFFDF30E832E83231
:10290000070B196E070E196488EF14F08AEF14F0A4
:102910008EEF14F0000E1A6EA4EF14F017C00DF035
:1029200018C00EF0BAEC0EF01A6E17C00DF018C0F9
:102930000EF017C0D9FF18C0DAFF000EDFBE010E7F
:102940000F6EF2EC0FF01A6E1A501200020E1724DE
:102950000D6E000E18200E6E1950010B0F6EF2EC6A
:102960000FF0030E17240D6E000E18200E6ED89077
:102970001930010B0F6EF2EC0FF0040E17240D6EE0
:10298000000E18200E6E1940E8423F0B010B0F6E2F
:10299000F2EC0FF0050E17240D6E000E18200E6ECF
:1029A0001938E8461F0B010B0F6EF2EC0FF01A6E90
:1029B0001A501200EF0E0001F16F000EF26FEBC023
:1029C000F3F0ECC0F4F0000EF76F000EF66F000E9F
:1029D000FD6F000EFC6FF30E5D6E000E5E6EEDC0BF
:1029E0005FF0EEC060F0F10E616E000E626E03ECFF
:1029F00015F00001F651EB25D96EF751EC21DA6E96
:102A0000000EDF6E12005FC063F060C064F017EF6D
:102A100015F05DC04BF05EC04CF0630E4D6E000EC5
:102A20004E6E61C04FF062C050F00FEC0EF063C00C
:102A3000F6FF64C0F7FFF86A0800F5500009D8A453
:102A400024EF15F026EF15F009EF15F0000E5E6E7D
:102A5000000E5D6E120020EE06F00D50D9260E50CD
:102A6000DA22DFA036EF15F038EF15F03CEF15F065
:102A7000C18AC1884FEF15F020EE06F00D50D9261F
:102A80000E50DA22DFB047EF15F049EF15F04DEFA9
:102A900015F0C19AC1984FEF15F0C19AC198120074
:102AA000000E1C6E000E1B6E61EF15F01AC00DF0CB
:102AB0000E6A18C00FF019C010F0F4EC10F01B4AA9
:102AC0001C2A1B501624D96E1C501720DA6EDF50BA
:102AD0001A6E1A50D8A46FEF15F071EF15F056EF7B
:102AE00015F0120015501610D8A479EF15F07BEFF1
:102AF00015F07FEF15F0000E186E92EF15F09E9C0A
:102B000015C010F016C011F017C012F0D6EC15F079
:102B1000186E15C00DF016C00EF03AEC16F0186ED7
:102B2000010E186E1850120020EE06F00D50D92636
:102B30000E50DA22DFA29FEF15F0A1EF15F0A4EFFF
:102B400015F0C08EB5EF15F020EE06F00D50D92629
:102B50000E50DA22DFB2AFEF15F0B1EF15F0B4EF9F
:102B600015F0C09EB5EF15F0C08E120020BEC3EF69
:102B700015F0205006E11F04D8B0C1EF15F0C3EFE7
:102B800015F0D1EF15F01FC021F020C022F0211E5A
:102B9000221E214A222A21C01FF022C020F0D5EF98
:102BA00015F01FC01FF020C020F0120010501110AF
:102BB000D8A4DDEF15F0DFEF15F0E3EF15F0000E10
:102BC000146EF1EF15F012C013F013461346C25005
:102BD0001318C30B1318C26E125088EC10F0010EBC
:102BE000146E14501200010E17240D6E000E1820E2
:102BF0000E6E010E0F6EF2EC0FF000D000D000F060
:102C0000010E17240D6E000E18200E6E000E0F6EB2
:102C1000F2EC0FF0196E195012009E9C00018A51BF
:102C20008B11D8B416EF16F018EF16F024EF16F04B
:102C300002D824EF16F00500FA6E8A51FD6E8B5112
:102C4000FE6EFF6AFA5012001200890F8A0F8B0F76
:102C50008C0F8D0F920F930F940F950F960F020A02
:102C6000121A626A727AF6240005050002020A123C
:032C70001A222AFB
:102C74000D500E10D8A441EF16F043EF16F047EFB5
:102C840016F0000E0F6E4AEF16F0C282010E0F6EA0
:102C94000F501200016EF2900150D8A454EF16F0B8
:102CA40056EF16F058EF16F058EF16F01200016EBA
:102CB400F2900150D8A461EF16F063EF16F065EFBF
:102CC40016F065EF16F01200016EF2900150D8A4D0
:102CD4006EEF16F070EF16F072EF16F072EF16F05A
:102CE4001200016EF2900150D8A47BEF16F07DEF34
:102CF40016F07FEF16F07FEF16F01200800F810FB1
:102D0400820F830F840F91EC16F012000101010170
:102D1400F0921200F0901200F292120012001200CF
:020000040020DA
:08000000FFFFFFFFFFFFFFFF00
:020000040030CA
:0E000000FF020F1EFF8181FF0FC00FE00F40B7
:00000001FF
