:0400000007EF00F016
:0A0008007C824DED0EF0E8EF15F0DC
:10100000003738392F3435362A3132332D23303DED
:051010002B2569000022
:101016004750800B506E47504724526E46AE16EF2F
:1010260008F018EF08F019EF08F052805250D8B4C3
:101036001FEF08F021EF08F036EF08F05228D8A489
:1010460027EF08F029EF08F031EF08F0000E446EA4
:10105600000E456E000E466E000E476E468E000E62
:10106600476E3EEF08F0000E446E000E456E000E11
:10107600466E000E476E4B50800B516E5050511805
:10108600D8B448EF08F04AEF08F04BEF08F0508C60
:101096004B504B24516E4AAE53EF08F055EF08F013
:1010A60056EF08F051805150D8B45CEF08F05EEF6F
:1010B60008F073EF08F05128D8A464EF08F066EF43
:1010C60008F06EEF08F0000E486E000E496E000E36
:1010D6004A6E000E4B6E4A8E000E4B6E7BEF08F08A
:1010E600000E486E000E496E000E4A6E000E4B6EE4
:1010F6005250515CD8B082EF08F084EF08F0ABEFA5
:1011060008F050AC89EF08F08BEF08F08DEF08F08F
:10111600800E501A52C053F051C052F053C051F0D5
:1011260044C053F048C044F053C048F045C053F0A3
:1011360049C045F053C049F046C053F04AC046F096
:1011460053C04AF047C053F04BC047F053C04BF072
:10115600000E536E525051C04CF04D6A4C5E000E5C
:101166004D5A4DBEC0EF08F04D5009E11A0E4C5CC9
:10117600D8A0C0EF08F0C2EF08F0F9EF08F044502D
:10118600451046104710D8A4CBEF08F0CEEF08F074
:10119600010ECFEF08F0000E536E000E446E000EE7
:1011A600456E000E466E000E476E51C052F002EFBD
:1011B60009F053A0E1EF08F0E3EF08F0E9EF08F0DB
:1011C600D89053300109536EEBEF08F0D8905332A4
:1011D60044A0F0EF08F0F2EF08F0F3EF08F0538EBA
:1011E60047344732463245324432522A5150525CD5
:1011F600D8A000EF09F002EF09F0DCEF08F050BCD0
:1012060007EF09F009EF09F049EF09F05250D8A4A9
:101216000FEF09F011EF09F01BEF09F0000E446E15
:10122600000E456E000E466E000E476E6AEF0AF01F
:1012360048504426495045224A5046224B504722A0
:1012460047A028EF09F02AEF09F0D6EF09F053A0DE
:101256002FEF09F031EF09F037EF09F0D89053304E
:101266000109536E39EF09F0D890533244A03EEF8E
:1012760009F040EF09F041EF09F0538E4734473249
:10128600463245324432522AD6EF09F04850445C81
:10129600495045584A5046584750800A4C6E4B5064
:1012A600800A4C58D8B05AEF09F05CEF09F087EF86
:1012B60009F04450485C4C6E455049584D6E4650B6
:1012C6004A584E6E47504B584F6EFF0E4C24446E94
:1012D600FF0E4D20456EFF0E4E20466EFF0E4F2030
:1012E600476E800E501A536C5350D8A47DEF09F008
:1012F6007FEF09F08FEF09F0010E4426000E45221C
:10130600462247228FEF09F04850445E4950455A1D
:101316004A50465A4B50475A4450451046104710BB
:10132600D8A498EF09F09AEF09F0CFEF09F05350DF
:10133600D8A4A0EF09F0A2EF09F0CFEF09F0000E54
:10134600446E000E456E000E466E000E476E6AEF46
:101356000AF0D890443645364636473653AEB6EF91
:1013660009F0B8EF09F0B9EF09F0448053A0BEEFD9
:1013760009F0C0EF09F0C4EF09F0D8805336C6EF84
:1013860009F0D89053365250D8B4CCEF09F0CEEFCE
:1013960009F0CFEF09F0520646AED4EF09F0D6EFCA
:1013A60009F0ACEF09F0000E516E53AEDDEF09F017
:1013B600DFEF09F0F7EF09F053C04CF07F0E4C1643
:1013C600D8B4E8EF09F0EAEF09F0EEEF09F0010E04
:1013D600516EF7EF09F044A0F3EF09F0F5EF09F0CD
:1013E600F7EF09F0EAEF09F05150D8B4FDEF09F034
:1013F600FFEF09F02AEF0AF0010E4426000E4522FF
:101406004622472247A00AEF0AF00CEF0AF02AEF1D
:101416000AF044C04CF045C04DF046C04EF047C0FF
:101426004FF04F344F324E324D324C324CC044F0B6
:101436004DC045F04EC046F04FC047F05228D8B4D4
:1014460027EF0AF029EF0AF02AEF0AF0522A52286B
:10145600D8B430EF0AF032EF0AF03AEF0AF0525001
:10146600D8A438EF0AF03AEF0AF04CEF0AF0000E73
:10147600446E000E456E000E466E000E476E5250CC
:10148600D8A448EF0AF04AEF0AF04CEF0AF0000E33
:10149600506E52A051EF0AF053EF0AF056EF0AF0E1
:1014A600468E57EF0AF0469ED8905230476E50AEA1
:1014B6005FEF0AF061EF0AF062EF0AF0478E44C070
:1014C60044F045C045F046C046F047C047F012001C
:1014D6001550800B1E6E15501524246E14AE76EF33
:1014E6000AF078EF0AF079EF0AF024802450D8B495
:1014F6007FEF0AF081EF0AF094EF0AF02428D8A4CF
:1015060087EF0AF089EF0AF091EF0AF0000E126EEB
:10151600000E136E000E146E000E156E148E9CEFE8
:101526000AF0000E126E000E136E000E146E000E00
:10153600156E1950800B1E1A195019241F6E18AEFD
:10154600A7EF0AF0A9EF0AF0AAEF0AF01F801F50D2
:10155600D8B4B0EF0AF0B2EF0AF0C5EF0AF01F28D0
:10156600D8A4B8EF0AF0BAEF0AF0C2EF0AF0000EFC
:10157600166E000E176E000E186E000E196E188E7F
:10158600CDEF0AF0000E166E000E176E000E186EE6
:10159600000E196E1F50D8B4D3EF0AF0D5EF0AF03B
:1015A600DDEF0AF02450D8A4DBEF0AF0DDEF0AF0F5
:1015B600E7EF0AF0000E126E000E136E000E146EA8
:1015C600000E156E7FEF0CF018501202F3CF29F0C3
:1015D600F4CF2AF02950206E216A226A236A2A5003
:1015E600256E266A276A286A17501302F3CF29F058
:1015F600F4CF2AF029502026000E2122222223226F
:101606002A502526000E26222722282216501402AA
:10161600F3CF29F0F4CF2AF029502026000E2122FC
:10162600222223222A502526000E2622272228227D
:1016360022C023F021C022F020C021F0206A1650DB
:101646001302F3CF29F0F4CF2AF0295020262A508E
:101656002122000E2222000E232217501202F3CF5F
:1016660029F0F4CF2AF0295020262A502122000EF4
:101676002222000E232222C023F021C022F020C005
:1016860021F0206A16501202F3CF29F0F4CF2AF087
:10169600295020262A502122000E2222000E232223
:1016A60018501302F3CF29F0F4CF2AF0295025263B
:1016B6002A502622000E2722000E28221750140236
:1016C600F3CF29F0F4CF2AF0295025262A502622D6
:1016D600000E2722000E282218501402F3CF29F0FC
:1016E600F4CF2AF029501A6E2A501B6E1C6A1D6A06
:1016F6001CC01DF01BC01CF01AC01BF01A6A1A5041
:1017060025261B5026221C5027221D50282220C089
:101716001AF021C01BF022C01CF023C01DF0190EC8
:101726009AEF0BF0D8901D321C321B321A32E82E7B
:1017360095EF0BF01A5025261B5026221C50272207
:101746001D50282222C023F021C022F020C021F003
:10175600206A1F5024C01AF01B6A1A26000E1B228C
:10176600820E1A24296EFF0E1B202A6ED0EF0BF074
:10177600D890253626362736283623AEC5EF0BF009
:10178600C7EF0BF0C8EF0BF02580D8902036213636
:10179600223623362906D8A02A0627AED5EF0BF027
:1017A600D7EF0BF0BBEF0BF0000E1F6E23AEDEEF94
:1017B6000BF0E0EF0BF004EF0CF0FF0E20141A6EA6
:1017C600FF0E21141B6EFF0E22141C6E7F0E2314B7
:1017D6001D6E1A501B101C101D10D8B4F5EF0BF01F
:1017E600F7EF0BF0FBEF0BF0010E1F6E04EF0CF0A2
:1017F60025A000EF0CF002EF0CF004EF0CF0F7EF71
:101806000BF01F50D8B40AEF0CF00CEF0CF030EFD1
:101816000CF0010E2526000E26222722282228A0BB
:1018260017EF0CF019EF0CF030EF0CF025C01AF0A2
:1018360026C01BF027C01CF028C01DF01D341D3229
:101846001C321B321A321AC025F01BC026F01CC0EF
:1018560027F01DC028F0294A2A2A2ABE3BEF0CF0A1
:101866002A5008E12928D8A03BEF0CF03DEF0CF0F8
:1018760047EF0CF0000E256E000E266E800E276ECA
:101886007F0E286E75EF0CF02ABE54EF0CF02A502E
:1018960006E12904D8B052EF0CF054EF0CF060EFDB
:1018A6000CF0000E256E000E266E000E276E000E42
:1018B600286E000E1E6E75EF0CF029C024F0FF0E88
:1018C6002516FF0E26167F0E2716000E281624A0B4
:1018D6006FEF0CF071EF0CF072EF0CF0278ED890D2
:1018E6002430286E1E50281225C012F026C013F090
:1018F60027C014F028C015F012002E50800B3B6E46
:101906002E502E24426E2DAE8BEF0CF08DEF0CF088
:101916008EEF0CF042804250D8B494EF0CF096EF64
:101926000CF0ABEF0CF04228D8A49CEF0CF09EEF25
:101936000CF0A6EF0CF0000E2B6E000E2C6E000EB7
:101946002D6E000E2E6E2D8E000E2E6EB3EF0CF049
:10195600000E2B6E000E2C6E000E2D6E000E2E6EDF
:101966003250800B3B1A32503224436E31AEBEEFFA
:101976000CF0C0EF0CF0C1EF0CF043804350D8B42C
:10198600C7EF0CF0C9EF0CF0DEEF0CF04328D8A43B
:10199600CFEF0CF0D1EF0CF0D9EF0CF0000E2F6E5C
:1019A600000E306E000E316E000E326E318E000E5D
:1019B600326EE6EF0CF0000E2F6E000E306E000E4B
:1019C600316E000E326E2F50301031103210D8A406
:1019D600EFEF0CF0F1EF0CF009EF0DF0000E2B6EAF
:1019E600000E2C6E000E2D6E000E2E6E800E2D1229
:1019F6007F0E2E123B502E122BC02BF02CC02CF03B
:101A06002DC02DF02EC02EF04CEF0EF04250D8A473
:101A16000FEF0DF011EF0DF01BEF0DF0000E2B6E1A
:101A2600000E2C6E000E2D6E000E2E6E4CEF0EF07C
:101A3600435042C033F0346A335E000E345A7F0E90
:101A460033243C6E000E34203D6E2BC037F02CC084
:101A560038F02DC039F02EC03AF0000E2B6E000E75
:101A66002C6E000E2D6E000E2E6E000E3E6E000EBB
:101A76003F6E000E406E000E416E000E436E7CEF10
:101A86000DF04350D8B44AEF0DF04CEF0DF063EF74
:101A96000DF0D8903736383639363A36D8902B3658
:101AA6002C362D362E3641AE5BEF0DF05DEF0DF088
:101AB6005EEF0DF02B80D8903E363F3640364136ED
:101AC6002F50375C305038583150395832503A58C8
:101AD600D8A070EF0DF072EF0DF07BEF0DF0418C9A
:101AE6002F50375E3050385A3150395A32503A5AA0
:101AF600432A190E436482EF0DF084EF0DF044EF94
:101B06000DF03750381039103A10D8B48DEF0DF06B
:101B16008FEF0DF0A7EF0DF03E80A7EF0DF0D890F8
:101B26002B362C362D362E3641AE9CEF0DF09EEF21
:101B36000DF09FEF0DF02B80D8903E363F364036A5
:101B460041363C06D8A03D062DAEACEF0DF0AEEF0B
:101B56000DF092EF0DF0000E436E41AEB5EF0DF0B5
:101B6600B7EF0DF0DBEF0DF0FF0E3E14336EFF0EF8
:101B76003F14346EFF0E4014356E7F0E4114366EE0
:101B86003350341035103610D8B4CCEF0DF0CEEFFC
:101B96000DF0D2EF0DF0010E436EDBEF0DF02BA032
:101BA600D7EF0DF0D9EF0DF0DBEF0DF0CEEF0DF026
:101BB6004350D8B4E1EF0DF0E3EF0DF007EF0EF070
:101BC600010E2B26000E2C222D222E222EA0EEEF09
:101BD6000DF0F0EF0DF007EF0EF02BC033F02CC038
:101BE60034F02DC035F02EC036F03634363235326C
:101BF6003432333233C02BF034C02CF035C02DF0E4
:101C060036C02EF03C4A3D2A3DBE12EF0EF03D5046
:101C160008E13C28D8A012EF0EF014EF0EF01FEFEB
:101C26000EF0000E3D6E3C68000E2B6E000E2C6E04
:101C3600000E2D6E000E2E6E3DBE2CEF0EF03D50AA
:101C460006E13C04D8B02AEF0EF02CEF0EF03AEF86
:101C56000EF0000E3D6E000E3C6E000E2B6E000E5A
:101C66002C6E000E2D6E000E2E6E000E3B6E3CC0CE
:101C760042F042A041EF0EF043EF0EF046EF0EF0B9
:101C86002D8E47EF0EF02D9ED89042302E6EFDEF32
:101C96000CF012000600FACF02F0FBCF03F0F2A818
:101CA60057EF0EF059EF0EF062EF0EF0F2A25EEF74
:101CB6000EF060EF0EF062EF0EF0DAEC16F0F0A622
:101CC60067EF0EF069EF0EF072EF0EF0F0A06EEF18
:101CD6000EF070EF0EF072EF0EF0D8EC16F0F0A8E2
:101CE60077EF0EF079EF0EF082EF0EF0F0A27EEFB6
:101CF6000EF080EF0EF082EF0EF0D6EC16F0F2A6A4
:101D060087EF0EF089EF0EF0A4EF0EF0F2A08EEF43
:101D16000EF090EF0EF0A4EF0EF081A895EF0EF006
:101D260097EF0EF0A4EF0EF07B04D8A49DEF0EF013
:101D36009FEF0EF0A4EF0EF0000E7B6E000EA9ECE6
:101D460016F0F2A6A9EF0EF0ABEF0EF0C6EF0EF00E
:101D5600F2A0B0EF0EF0B2EF0EF0C6EF0EF081B8C3
:101D6600B7EF0EF0B9EF0EF0C6EF0EF07B50D8A429
:101D7600BFEF0EF0C1EF0EF0C6EF0EF0010E7B6E58
:101D8600010EA9EC16F0F2A6CBEF0EF0CDEF0EF099
:101D9600E8EF0EF0F2A0D2EF0EF0D4EF0EF0E8EF7F
:101DA6000EF081AAD9EF0EF0DBEF0EF0E8EF0EF0A1
:101DB6007A04D8A4E1EF0EF0E3EF0EF0E8EF0EF0B0
:101DC600000E7A6E000E9CEC16F0F2A6EDEF0EF009
:101DD600EFEF0EF00AEF0FF0F2A0F4EF0EF0F6EFD1
:101DE6000EF00AEF0FF081BAFBEF0EF0FDEF0EF0EA
:101DF6000AEF0FF07A50D8A403EF0FF005EF0FF0BB
:101E06000AEF0FF0010E7A6E010E9CEC16F0F2A6A8
:101E16000FEF0FF011EF0FF02CEF0FF0F2A016EF0F
:101E26000FF018EF0FF02CEF0FF081AC1DEF0FF055
:101E36001FEF0FF02CEF0FF07904D8A425EF0FF069
:101E460027EF0FF02CEF0FF0000E796E000E8FECDF
:101E560016F0F2A631EF0FF033EF0FF04EEF0FF062
:101E6600F2A038EF0FF03AEF0FF04EEF0FF081BC13
:101E76003FEF0FF041EF0FF04EEF0FF07950D8A47F
:101E860047EF0FF049EF0FF04EEF0FF0010E796EAE
:101E9600010E8FEC16F0F2A653EF0FF055EF0FF090
:101EA60070EF0FF0F2A05AEF0FF05CEF0FF070EF4B
:101EB6000FF081AE61EF0FF063EF0FF070EF0FF0F0
:101EC6007804D8A469EF0FF06BEF0FF070EF0FF006
:101ED600000E786E000E82EC16F0F2A675EF0FF08B
:101EE60077EF0FF092EF0FF0F2A07CEF0FF07EEF9E
:101EF6000FF092EF0FF081BE83EF0FF085EF0FF03A
:101F060092EF0FF07850D8A48BEF0FF08DEF0FF013
:101F160092EF0FF0010E786E010E82EC16F09DAC7A
:101F260097EF0FF099EF0FF0A2EF0FF09EAC9EEF38
:101F36000FF0A0EF0FF0A2EF0FF0DEEC16F0F2AA12
:101F4600A7EF0FF0A9EF0FF0B2EF0FF0F2A4AEEF8C
:101F56000FF0B0EF0FF0B2EF0FF0CAEC16F09DA045
:101F6600B7EF0FF0B9EF0FF0C2EF0FF09EA0BEEF84
:101F76000FF0C0EF0FF0C2EF0FF0C4EC16F09DA209
:101F8600C7EF0FF0C9EF0FF0D2EF0FF09EA2CEEF22
:101F96000FF0D0EF0FF0D2EF0FF0D0EC16F0A0A2BA
:101FA600D7EF0FF0D9EF0FF0E2EF0FF0A1A2DEEFBF
:101FB6000FF0E0EF0FF0E2EF0FF0BEEC16F09DA48D
:101FC600E7EF0FF0E9EF0FF0F2EF0FF09EA4EEEF60
:101FD6000FF0F0EF0FF0F2EF0FF054EC16F0A0A0B8
:101FE600F7EF0FF0F9EF0FF002EF10F0A1A0FEEF00
:101FF6000FF000EF10F002EF10F0DCEC16F003C06B
:10200600FBFF02C0FAFF7C921100000E166E000E56
:10201600176E800E186E400E196E20EE05F05E509B
:10202600D9265F50DA22DECF04F0DECF05F0DECF10
:1020360006F0DECF07F0000EF0EC10F004C012F050
:1020460005C013F006C014F007C015F06BEC0AF0DB
:1020560012C061F013C062F014C063F015C064F0E2
:1020660020EE0AF05E50D9265F50DA22DF50606E0D
:102076006050046E056A066A076A000EF0EC10F0FE
:1020860004C016F005C017F006C018F007C019F016
:1020960061C012F062C013F063C014F064C015F0A2
:1020A6006BEC0AF012C065F013C066F014C067F05E
:1020B60015C068F0000E486E000E496E800E4A6E1E
:1020C600BF0E4B6E20EE09F05E50D9265F50DA2225
:1020D600DF50606E6050046E056A066A076A000E7D
:1020E600F0EC10F004C016F005C017F006C018F0AA
:1020F60007C019F065C012F066C013F067C014F08F
:1021060068C015F06BEC0AF012C02FF013C030F067
:1021160014C031F015C032F0000E2B6E240E2C6E5A
:10212600740E2D6E4A0E2E6E80EC0CF02BC044F011
:102136002CC045F02DC046F02EC047F00BEC08F041
:1021460044C054F045C055F046C056F047C057F05D
:10215600F7EC14F05450CB6E5EC0D9FF5FC0DAFFC7
:10216600DF50D8A4B9EF10F0BBEF10F0D0EF10F0AD
:1021760020EE02F05E50D9265F50DA220C0EDE18F1
:10218600D8A4C8EF10F0CAEF10F0EFEF10F0BD5072
:10219600F00B0C09BD6EEFEF10F05EC0D9FF5FC00B
:1021A600DAFFDE04D8A4DAEF10F0DCEF10F0EFEF80
:1021B60010F020EE02F05E50D9265F50DA220C0EA7
:1021C600DE18D8A4E9EF10F0EBEF10F0EFEF10F007
:1021D600BA50F00B0C09BA6E12000C6E0C50D8B443
:1021E600F7EF10F0F9EF10F01BEF11F007BE00EF5C
:1021F60011F0FEEF10F01BEF11F004C008F005C05F
:1022060009F006C00AF007C00BF0081E091E0A1ED8
:102216000B1E082A000E09220A220B2208C00EF005
:1022260009C00FF00AC010F00BC011F023EF11F037
:1022360004C00EF005C00FF006C010F007C011F084
:102246000450051006100710D8A42CEF11F02EEF3D
:1022560011F038EF11F0000E046E000E056E000E40
:10226600066E000E076EC9EF11F0960E0D6E42EF68
:1022760011F00D2AD890113210320F320E32000EA4
:102286000E14086E000E0F14096E000E10140A6E5E
:10229600FE0E11140B6E085009100A100B10D8A46C
:1022A60057EF11F059EF11F03CEF11F067EF11F015
:1022B6000D2A010E0E26000E0F2210221122D89092
:1022C600113210320F320E32000E0E14086E000E4E
:1022D6000F14096E000E10140A6EFF0E11140B6E09
:1022E600085009100A100B10D8A47CEF11F07EEFED
:1022F60011F05BEF11F086EF11F00D06D8900E3657
:102306000F361036113610BE8BEF11F08DEF11F02F
:1023160095EF11F0020E0D6093EF11F095EF11F0AD
:1023260080EF11F00DB09AEF11F09CEF11F09DEFD8
:1023360011F0109ED8900D320DC008F0096A0A6A95
:102346000B6A08C00BF00A6A096A086A08500E127E
:1023560009500F120A5010120B5011120C50D8B41B
:10236600B7EF11F0B9EF11F0C1EF11F007BEC0EFF2
:1023760011F0BEEF11F0C1EF11F0118E0EC004F096
:102386000FC005F010C006F011C007F01200010ED4
:102396000B6E07C0D9FF08C0DAFFDF50D8A4D6EF0E
:1023A60011F0D8EF11F023EF12F0FCEF11F0BD5051
:1023B600F00B0809BD6E76EF12F0BD50F00B09095F
:1023C600BD6E76EF12F0BD50F00B0209BD6E76EFD2
:1023D60012F0BD50F00B0A09BD6E76EF12F0BD503B
:1023E600F00B0B09BD6E76EF12F0000E0B6E76EF5A
:1023F60012F020EE02F00750D9260850DA22DF50FC
:10240600096E0A6A0A50000AD8B40CEF12F0F8EF07
:1024160011F00950020AD8B4E6EF11F00A0AD8B44E
:10242600DAEF11F0010AD8B4E0EF11F0030AD8B4DC
:10243600ECEF11F0010AD8B4F2EF11F0F8EF11F059
:1024460007C0D9FF08C0DAFFDE04D8A42DEF12F0CA
:102456002FEF12F076EF12F04FEF12F0BA50F00BAA
:102466000809BA6E76EF12F0BA50F00B0909BA6E87
:1024760076EF12F0BA50F00B0209BA6E76EF12F050
:10248600BA50F00B0A09BA6E76EF12F0BA50F00B9A
:102496000B09BA6E76EF12F020EE02F00750D9263D
:1024A6000850DA22DF50096E0A6A0A50000AD8B4C8
:1024B6005FEF12F0F8EF11F00950020AD8B43DEFC1
:1024C60012F00A0AD8B431EF12F0010AD8B437EF85
:1024D60012F0030AD8B443EF12F0010AD8B449EF58
:1024E60012F0F8EF11F007C004F008C005F07AEC1E
:1024F60015F00B501200010E0C6E04500510D8B4E6
:1025060087EF12F089EF12F09AEF12F004C0D9FFAC
:1025160005C0DAFFDF30E832E832070B066E070E39
:10252600066498EF12F09AEF12F0FDEF12F0000E2B
:102536000C6E1EEF13F004C0D9FF05C0DAFFDF30C2
:10254600E832E832070B066E010E076E062AAEEF7A
:1025560012F0D8900736062EACEF12F00750FF0A9D
:10256600086E04C0D9FF05C0DAFFDF50070B096EFD
:102576000950020DD90EF324D96E000EF420DA6E3E
:10258600DECF0AF0DDCF0BF00AC0D9FF0BC0DAFFB1
:102596000850DF161EEF13F004C0D9FF05C0DAFF9E
:1025A600DF30E832E832070B066E010E076E062AA8
:1025B600DFEF12F0D8900736062EDDEF12F004C0DA
:1025C600D9FF05C0DAFFDF50070B086E0850020D71
:1025D600D90EF324D96E000EF420DA6EDECF09F0A0
:1025E600DDCF0AF009C0D9FF0AC0DAFF0750DF12B3
:1025F6001EEF13F004C0D9FF05C0DAFFDFBC06EFFB
:1026060013F009EF13F0010E0AEF13F0000E066E39
:10261600076A0750000AD8B413EF13F09AEF12F0C6
:102626000650000AD8B49EEF12F0010AD8B4CFEFD4
:1026360012F09AEF12F00C5012000001F151F21153
:10264600D8A428EF13F02AEF13F02EEF13F0000EA4
:10265600F36FBFEF13F0F1C0D9FFF2C0DAFFDF501E
:10266600D8A438EF13F03AEF13F03EEF13F0F00E64
:10267600BD164CEF13F0F1C0D9FFF2C0DAFFDE044D
:10268600D8A448EF13F04AEF13F04CEF13F0F00E16
:10269600BA1620EE01F0F151D926F251DA22DF50B6
:1026A600D8A458EF13F05AEF13F062EF13F0F1C00D
:1026B60007F0F2C008F0C1EC13F08FEF13F020EE34
:1026C60001F0F151D926F251DA22DE04D8A46EEFD8
:1026D60013F070EF13F078EF13F0F1C007F0F2C0CB
:1026E60008F0CAEC11F08FEF13F020EE01F0F15173
:1026F600D926F251DA22020EDE18D8A485EF13F09D
:1027060087EF13F08FEF13F0F1C05EF0F2C05FF0C9
:1027160008EC10F08FEF13F0030E0001F1250E6E9A
:10272600000EF2210F6EB2EC15F0F1C004F0F2C00B
:1027360005F037EC16F0F1C0D9FFF2C0DAFFDF5032
:10274600D8A4A8EF13F0AAEF13F0AEEF13F0F00E33
:10275600BD16BCEF13F0F1C0D9FFF2C0DAFFDE04FC
:10276600D8A4B8EF13F0BAEF13F0BCEF13F0F00EE5
:10277600BA16010E0001F36FF3511200010E0B6E33
:1027860007C0D9FF08C0DAFFDF50D8A4CDEF13F099
:10279600CFEF13F010EF14F0EDEF13F0BD50F00B88
:1027A6000409BD6E59EF14F0BD50F00B0509BD6E5E
:1027B60059EF14F0BD50F00B0609BD6E59EF14F039
:1027C600BD50F00B0709BD6E59EF14F0000E0B6EED
:1027D60059EF14F020EE02F00750D9260850DA22FD
:1027E600DF50096E0A6A0A50000AD8B4FDEF13F0EA
:1027F600E9EF13F00950040AD8B4D1EF13F0010A37
:10280600D8B4D7EF13F0030AD8B4DDEF13F0010AFA
:10281600D8B4E3EF13F0E9EF13F007C0D9FF08C00F
:10282600DAFFDE04D8A41AEF14F01CEF14F059EF07
:1028360014F036EF14F0BA50F00B0409BA6E59EFE3
:1028460014F0BA50F00B0509BA6E59EF14F0BA50ED
:10285600F00B0609BA6E59EF14F0BA50F00B0709DF
:10286600BA6E59EF14F020EE02F00750D926085040
:10287600DA22DF50096E0A6A0A50000AD8B446EF17
:1028860014F0E9EF13F00950040AD8B41EEF14F05F
:10289600010AD8B424EF14F0030AD8B42AEF14F0CE
:1028A600010AD8B430EF14F0E9EF13F007C004F0D2
:1028B60008C005F07AEC15F00B501200010E0D6EF3
:1028C60004500510D8B46AEF14F06CEF14F07DEFE5
:1028D60014F004C0D9FF05C0DAFFDF30E832E83271
:1028E600070B076E070E07647BEF14F07DEF14F0FD
:1028F600E0EF14F0000E0D6EF5EF14F004C0D9FFF2
:1029060005C0DAFFDF30E832E832070B076E010E4A
:10291600086E072A91EF14F0D8900836072E8FEF2D
:1029260014F00850FF0A096E04C0D9FF05C0DAFF8B
:10293600DF50070B0A6E0A50020DCF0EF324D96E34
:10294600000EF420DA6EDECF0BF0DDCF0CF00BC0FC
:10295600D9FF0CC0DAFF0950DF16F5EF14F004C0FA
:10296600D9FF05C0DAFFDF30E832E832070B076E21
:10297600010E086E072AC2EF14F0D8900836072E0B
:10298600C0EF14F004C0D9FF05C0DAFFDF50070B13
:10299600096E0950020DCF0EF324D96E000EF420F5
:1029A600DA6EDECF0AF0DDCF0BF00AC0D9FF0BC01E
:1029B600DAFF0850DF12F5EF14F00650076E086ACA
:1029C6000850000AD8B4EAEF14F07DEF14F007506F
:1029D600000AD8B481EF14F0010AD8B4B2EF14F0AB
:1029E6007DEF14F00D501200563457345D6E5D5075
:1029F600D8A400EF15F002EF15F00CEF15F0000E5D
:102A0600546E000E556E000E566E000E576E79EF20
:102A160015F054C058F055C059F056C05AF057C07A
:102A26005BF0200E1CEF15F0D8905B325A3259320B
:102A36005832E82E17EF15F058505C6E568EFF0E82
:102A46005416FF0E5516FF0E5616000E5716960E06
:102A56005D5E5DBE33EF15F031EF15F049EF15F011
:102A66005D50800A970FD8B03BEF15F03DEF15F09B
:102A76003FEF15F002EF15F0D89057325632553227
:102A860054325D3E3FEF15F061EF15F01F0E5D64A9
:102A96004FEF15F051EF15F059EF15F002EF15F065
:102AA600D89054365536563657365D065D50D8A4FE
:102AB6005FEF15F061EF15F053EF15F05C50D8B4E9
:102AC60067EF15F069EF15F071EF15F0571E561EFA
:102AD600551E546C000E55225622572254C054F0EF
:102AE60055C055F056C056F057C057F0120020EEAC
:102AF60004F00450D9260550DA22DF50D8A486EF18
:102B060015F088EF15F08CEF15F0B196B18CB1EF9A
:102B160015F020EE04F00450D9260550DA22DE0422
:102B2600D8A498EF15F09AEF15F09EEF15F0B18640
:102B3600B19CB1EF15F020EE04F00450D9260550F3
:102B4600DA22020EDE18D8A4ABEF15F0ADEF15F0C1
:102B5600B1EF15F0B196B19CB1EF15F012000E5021
:102B66000F10D8B4B9EF15F0BBEF15F0CCEF15F098
:102B76000EC0D9FF0FC0DAFFDF30E832E832070BAC
:102B8600106E070E1064CAEF15F0CCEF15F0D0EFFB
:102B960015F0000E116EE6EF15F00EC004F00FC032
:102BA60005F07EEC12F0116E0EC004F00FC005F0B9
:102BB6000EC0D9FF0FC0DAFF000EDFBE010E066E93
:102BC60061EC14F0116E11501200D80EF66E2C0E38
:102BD600F76E000EF86E00EEC5F010EE2CF0090050
:102BE600F5CFEEFFE550E150FAE1A80EF66E2D0E98
:102BF600F76E000EF86E00EE78F010EE04F00900A5
:102C0600F5CFEEFFE550E150FAE100EE80F0450E1B
:102C1600EE6AE806FDE100EE6AF00E0EEE6AE806E0
:102C2600FDE17C907C92000119EF16F06C0E00011C
:102C3600BF6F2D0EC06F000EB46F000EB56F050E80
:102C4600B66FB751F80B0209B76FB751C70B10092A
:102C5600B76FB78DB40EF16F000EF26F20EC13F064
:102C660033EF16F007EF00F09D849E9420EE0BF0F4
:102C76000450D9260550DA22DECF92F0DDCF93F04C
:102C8600F28EF28CA080A19020EE0EF00450D92690
:102C96000550DA22DECF90F0DDCF91F0F28EF28C85
:102CA60012009E94000192519311D8B45DEF16F074
:102CB6005FEF16F06BEF16F002D86BEF16F005001B
:102CC600FA6E9251FD6E9351FE6EFF6AFA50120033
:102CD6001200800F810F820F830F840F890F8A0FD6
:102CE6008B0F8C0F8D0F920F930F940F950F960FDE
:102CF600020A121A626A727A020A121A222A016EEB
:102D0600F2900150D8A48AEF16F08CEF16F08EEFF1
:102D160016F08EEF16F01200016EF2900150D8A454
:102D260097EF16F099EF16F09BEF16F09BEF16F063
:102D36001200016EF2900150D8A4A4EF16F0A6EF8F
:102D460016F0A8EF16F0A8EF16F01200016EF2903A
:102D56000150D8A4B1EF16F0B3EF16F0B5EF16F0A8
:102D6600B5EF16F01200010E00018C27000E8D2320
:102D76008E238F231200A1926B50B36E6AC0B2FFEE
:102D860012009E906D50CF6E6CC0CEFF1200F29472
:102D96006F50D76E6EC0D6FF12009E9270C0CCFFE9
:102DA600120001010101F0921200F0901200F2925D
:0A2DB6001200A19012009E9C120072
:020000040020DA
:08000000FFFFFFFFFFFFFFFF00
:020000040030CA
:0E000000FF020F1EFF8181FF0FC00FE00F40B7
:00000001FF
