:04000000DEEF7EF0C1
:10FD6C00C1EC7EF0C00E236E020E3BEC7FF0B8EFC0
:10FD7C007EF000EF00F0210E2C6E000E2D6EF9ECD3
:10FD8C007EF0800E236E020E18EC7FF01200800FB6
:10FD9C00810F820F830F840F890F8A0F8B0F8C0FAB
:10FDAC008D0F920F930F940F950F960F121A020A44
:10FDBC009A0EF66EFD0EF76E000EF86E00EE01F068
:10FDCC0010EE22F00900F5CFEEFFE550E150FAE11C
:10FDDC0000EE2FF0070EEE6AE806FDE1000EF86E5D
:10FDEC000001B6EF7EF0010E2E6E2C502D10D8A413
:10FDFC0002EF7FF004EF7FF008EF7FF0000E2E6E25
:10FE0C0016EF7FF02CC023F02DC024F05EEC7FF0B9
:10FE1C00010E2C24236E000E2D20246E5EEC7FF040
:10FE2C002E501200276E010E266E040E276421EF51
:10FE3C007FF023EF7FF027EF7FF0000E266E39EF77
:10FE4C007FF02750020D150EF324D96E000EF4200E
:10FE5C00DA6EDECF24F0DDCF25F024C0D9FF25C02B
:10FE6C00DAFF23C0DFFF26501200276E010E266E2C
:10FE7C00040E276444EF7FF046EF7FF04AEF7FF0EB
:10FE8C00000E266E5CEF7FF02750020D0B0EF32454
:10FE9C00D96E000EF420DA6EDECF24F0DDCF25F023
:10FEAC0024C0D9FF25C0DAFF23C0DFFF2650120083
:10FEBC00010E2B6E23502410D8B467EF7FF069EF3E
:10FECC007FF07AEF7FF023C0D9FF24C0DAFFDF3058
:10FEDC00E832E832070B256E070E256478EF7FF0C9
:10FEEC007AEF7FF0DDEF7FF0000E2B6EFEEF7FF0F0
:10FEFC0023C0D9FF24C0DAFFDF30E832E832070B29
:10FF0C00256E010E266E252A8EEF7FF0D8902636B0
:10FF1C00252E8CEF7FF02650FF0A276E23C0D9FFC9
:10FF2C0024C0DAFFDF50070B286E2850020D150E87
:10FF3C00F324D96E000EF420DA6EDECF29F0DDCF7B
:10FF4C002AF029C0D9FF2AC0DAFF2750DF16FEEFAE
:10FF5C007FF023C0D9FF24C0DAFFDF30E832E8326B
:10FF6C00070B256E010E266E252ABFEF7FF0D89069
:10FF7C002636252EBDEF7FF023C0D9FF24C0DAFF33
:10FF8C00DF50070B276E2750020D150EF324D96E88
:10FF9C00000EF420DA6EDECF28F0DDCF29F028C079
:10FFAC00D9FF29C0DAFF2650DF12FEEF7FF023C005
:10FFBC00D9FF24C0DAFFDFBCE6EF7FF0E9EF7FF07A
:10FFCC00010EEAEF7FF0000E256E266A2650000A1D
:10FFDC00D8B4F3EF7FF07AEF7FF02550000AD8B455
:10FFEC007EEF7FF0010AD8B4AFEF7FF07AEF7FF0AD
:04FFFC002B50120074
:020000040020DA
:08000000FFFFFFFFFFFFFFFF00
:020000040030CA
:0E000000FF020F1EFF8181FF0FC00FE00F40B7
:00000001FF
