:0400000099EF7DF007
:10FAD600800F810F820F830F840F890F8A0F8B0F80
:10FAE6008C0F8D0F920F930F940F950F960F121A7E
:10FAF6002D020A121A00020A0B03270E346E000E9C
:10FB0600356EB4EC7DF0220E396E000E3A6ED3ECF3
:10FB16007DF02A0E356E000E366E04EC7EF0290E50
:10FB2600356E000E366E04EC7EF01200D60EF66EC2
:10FB3600FA0EF76E000EF86E00EE01F010EE2AF0E7
:10FB46000900F5CFEEFFE550E150FAE100EE3DF099
:10FB5600070EEE6AE806FDE1000EF86E00013AEFC8
:10FB66007EF0010E366E34503510D8A4BDEF7DF010
:10FB7600BFEF7DF0C3EF7DF0000E366ED1EF7DF066
:10FB860034C02BF035C02CF05EEC7FF0010E34242F
:10FB96002B6E000E35202C6E5EEC7FF03650120078
:10FBA60039503A10D8A4DAEF7DF0DCEF7DF0E0EFC3
:10FBB6007DF0000E3B6E02EF7EF039C035F03AC0A4
:10FBC60036F004EC7EF03B6E010E3924356E000EE5
:10FBD6003A20366E04EC7EF03B6E020E3924356E0A
:10FBE600000E3A20366E04EC7EF03B6E030E39248E
:10FBF600356E000E3A20366E04EC7EF03B6E3B50BE
:10FC0600120035503610D8B40BEF7EF00DEF7EF0B3
:10FC16001EEF7EF035C0D9FF36C0DAFFDF30E8329E
:10FC2600E832070B376E070E37641CEF7EF01EEFC7
:10FC36007EF022EF7EF0000E386E38EF7EF035C093
:10FC46002BF036C02CF05EEC7FF0386E35C02BF012
:10FC560036C02CF035C0D9FF36C0DAFF000EDFBE45
:10FC6600010E2D6EC8EC7EF0386E3850120080EC16
:10FC76007DF0220E356E000E366E050E376E7EEC6A
:10FC86007EF0290E2B6E000E2C6E010E2D6EC8EC2A
:10FC96007EF00D0E3C6EFC0EE82EFED73C2EFCD7F9
:10FCA600290E2B6E000E2C6E000E2D6EC8EC7EF00B
:10FCB600220E356E000E366E040E376E7EEC7EF02A
:10FCC6002A0E2B6E000E2C6E010E2D6EC8EC7EF0E9
:10FCD6000D0E3C6EFC0EE82EFED73C2EFCD72A0EEF
:10FCE6002B6E000E2C6E000E2D6EC8EC7EF03CEFD7
:10FCF6007EF000EF00F035503610D8A485EF7EF088
:10FD060087EF7EF093EF7EF0090E37648DEF7EF07D
:10FD16008FEF7EF093EF7EF0000E386EC6EF7EF02A
:10FD260035C02BF036C02CF03750010B2D6EC8ECC9
:10FD36007EF0386E010E35242B6E000E36202C6EAA
:10FD4600D8903730010B2D6EC8EC7EF0386E020E5F
:10FD560035242B6E000E36202C6E3740E8423F0BC2
:10FD6600010B2D6EC8EC7EF0386E030E35242B6E1B
:10FD7600000E36202C6E3738E8461F0B010B2D6E11
:10FD8600C8EC7EF0386E38501200010E346E2B50DF
:10FD96002C10D8B4D1EF7EF0D3EF7EF0E4EF7EF0F6
:10FDA6002BC0D9FF2CC0DAFFDF30E832E832070B70
:10FDB6002E6E070E2E64E2EF7EF0E4EF7EF047EF44
:10FDC6007FF0000E346E5CEF7FF02BC0D9FF2CC0A5
:10FDD600DAFFDF30E832E832070B2E6E010E2F6EA7
:10FDE6002E2AF8EF7EF0D8902F362E2EF6EF7EF0E4
:10FDF6002F50FF0A306E2BC0D9FF2CC0DAFFDF5020
:10FE0600070B316E3150020D0B0EF324D96E000E26
:10FE1600F420DA6EDECF32F0DDCF33F032C0D9FF18
:10FE260033C0DAFF3050DF165CEF7FF02BC0D9FF0E
:10FE36002CC0DAFFDF30E832E832070B2E6E010EF7
:10FE46002F6E2E2A29EF7FF0D8902F362E2E27EFF1
:10FE56007FF02BC0D9FF2CC0DAFFDF50070B306EC6
:10FE66003050020D0B0EF324D96E000EF420DA6E1C
:10FE7600DECF31F0DDCF32F031C0D9FF32C0DAFF4C
:10FE86002F50DF125CEF7FF02D502E6E2F6A2F5011
:10FE9600000AD8B451EF7FF0E4EF7EF02E50000A4E
:10FEA600D8B4E8EF7EF0010AD8B419EF7FF0E4EF9A
:10FEB6007EF034501200010E336E2B502C10D8B445
:10FEC60067EF7FF069EF7FF07AEF7FF02BC0D9FF05
:10FED6002CC0DAFFDF30E832E832070B2D6E070E52
:10FEE6002D6478EF7FF07AEF7FF0DDEF7FF0000E84
:10FEF600336EFEEF7FF02BC0D9FF2CC0DAFFDF3068
:10FF0600E832E832070B2D6E010E2E6E2D2A8EEF8B
:10FF16007FF0D8902E362D2E8CEF7FF02E50FF0AD4
:10FF26002F6E2BC0D9FF2CC0DAFFDF50070B306EC7
:10FF36003050020D150EF324D96E000EF420DA6E41
:10FF4600DECF31F0DDCF32F031C0D9FF32C0DAFF7B
:10FF56002F50DF16FEEF7FF02BC0D9FF2CC0DAFF43
:10FF6600DF30E832E832070B2D6E010E2E6E2D2A99
:10FF7600BFEF7FF0D8902E362D2EBDEF7FF02BC031
:10FF8600D9FF2CC0DAFFDF50070B2F6E2F50020D62
:10FF9600150EF324D96E000EF420DA6EDECF30F0A3
:10FFA600DDCF31F030C0D9FF31C0DAFF2E50DF127D
:10FFB600FEEF7FF02BC0D9FF2CC0DAFFDFBCE6EFE7
:10FFC6007FF0E9EF7FF0010EEAEF7FF0000E2D6E75
:10FFD6002E6A2E50000AD8B4F3EF7FF07AEF7FF046
:10FFE6002D50000AD8B47EEF7FF0010AD8B4AFEFE7
:0AFFF6007FF07AEF7FF03350120025
:020000040020DA
:08000000FFFFFFFFFFFFFFFF00
:020000040030CA
:0E000000FF020F1EFF8181FF0FC00FE00F40B7
:00000001FF
