:0400000098EF0AF07B
:10100000003738392F3435362A3132332D23303DED
:101010002B00010E306E28502910D8B412EF08F0C2
:1010200014EF08F025EF08F028C0D9FF29C0DAFF37
:10103000DF30E832E832070B2A6E070E2A6423EF0E
:1010400008F025EF08F088EF08F0000E306EA9EFE9
:1010500008F028C0D9FF29C0DAFFDF30E832E832D3
:10106000070B2A6E010E2B6E2A2A39EF08F0D89052
:101070002B362A2E37EF08F02B50FF0A2C6E28C093
:10108000D9FF29C0DAFFDF50070B2D6E2D50020D5E
:10109000150EF324D96E000EF420DA6EDECF2EF09A
:1010A000DDCF2FF02EC0D9FF2FC0DAFF2C50DF1676
:1010B000A9EF08F028C0D9FF29C0DAFFDF30E832F5
:1010C000E832070B2A6E010E2B6E2A2A6AEF08F00F
:1010D000D8902B362A2E68EF08F028C0D9FF29C0F7
:1010E000DAFFDF50070B2C6E2C50020D150EF32487
:1010F000D96E000EF420DA6EDECF2DF0DDCF2EF0AB
:101100002DC0D9FF2EC0DAFF2B50DF12A9EF08F057
:1011100028C0D9FF29C0DAFFDFBC91EF08F094EFB7
:1011200008F0010E95EF08F0000E2A6E2B6A2B5086
:10113000000AD8B49EEF08F025EF08F02A50000A04
:10114000D8B429EF08F0010AD8B45AEF08F025EF17
:1011500008F030501200010E316E28502910D8B41A
:10116000B4EF08F0B6EF08F0C7EF08F028C0D9FFD9
:1011700029C0DAFFDF30E832E832070B2B6E070EAA
:101180002B64C5EF08F0C7EF08F02AEF09F0000E56
:10119000316E3FEF09F028C0D9FF29C0DAFFDF30F8
:1011A000E832E832070B2B6E010E2C6E2B2ADBEF98
:1011B00008F0D8902C362B2ED9EF08F02C50FF0ACF
:1011C0002D6E28C0D9FF29C0DAFFDF50070B2E6E25
:1011D0002E50020D0B0EF324D96E000EF420DA6EA1
:1011E000DECF2FF0DDCF30F02FC0D9FF30C0DAFFD7
:1011F0002D50DF163FEF09F028C0D9FF29C0DAFFD4
:10120000DF30E832E832070B2B6E010E2C6E2B2AF2
:101210000CEF09F0D8902C362B2E0AEF09F028C0DD
:10122000D9FF29C0DAFFDF50070B2D6E2D50020DBC
:101230000B0EF324D96E000EF420DA6EDECF2EF002
:10124000DDCF2FF02EC0D9FF2FC0DAFF2C50DF12D8
:101250003FEF09F02A502B6E2C6A2C50000AD8B4AC
:1012600034EF09F0C7EF08F02B50000AD8B4CBEFE9
:1012700008F0010AD8B4FCEF08F0C7EF08F03150CD
:101280001200000E3B6E000E3C6E000E3A6E000E19
:10129000396E32503310D8B450EF09F052EF09F0E4
:1012A0005BEF09F034503510D8A459EF09F05BEF2B
:1012B00009F05FEF09F0000E386ECDEF09F0000E77
:1012C0003B6E000E3A6E3A503224286E000E3320E8
:1012D000296E000E2A6EABEC08F03A2A030E3A642F
:1012E00074EF09F076EF09F063EF09F03B50322418
:1012F000286E000E3320296E010E2A6EABEC08F02A
:101300000D0E366EFC0EE82EFED7362EFCD7000EE4
:101310003C6E3C503224366E000E3320376E040E85
:101320003624286E000E3720296E390E2A6E000EE4
:101330002B6ECFEC09F0386E3904D8A4A2EF09F077
:10134000A4EF09F0BBEF09F03B50040D010EF324AC
:10135000366E100EF420376E3C503626000E3722C3
:1013600036C0F6FF37C0F7FF34C0D9FF35C0DAFF0B
:101370000800F5CFDFFF3C2A030E3C64C2EF09F002
:10138000C4EF09F089EF09F03B2A030E3B64CBEF71
:1013900009F0CDEF09F061EF09F038501200010EAD
:1013A000316E28502910D8B4D8EF09F0DAEF09F0DF
:1013B000EBEF09F028C0D9FF29C0DAFFDF30E832AF
:1013C000E832070B2C6E070E2C64E9EF09F0EBEF07
:1013D00009F0EFEF09F0000E316E20EF0AF028C09F
:1013E000D9FF29C0DAFFDF30E832E832070B2C6E74
:1013F00028C0D9FF29C0DAFFDF50070B2D6E2D5012
:10140000020D010EF324D96E000EF420DA6EDECF49
:101410002EF0DDCF2FF02EC0D9FF2FC0DAFFDF5026
:10142000306E2C2A16EF0AF0D89030322C2E14EFA2
:101430000AF03050010B2AC0D9FF2BC0DAFFDF6E53
:1014400031501200000E3B6E000E3C6E36503710CD
:10145000D8A42DEF0AF02FEF0AF033EF0AF0000EB8
:101460003A6E60EF0AF0000E3B6E3B503624326E4F
:10147000000E3720336E62EC0AF03B2A030E3B6409
:1014800044EF0AF046EF0AF035EF0AF0000E3C6E2A
:101490003C503624386E000E3720396E040E382446
:1014A000286E000E3920296E09EC08F03A6E3C2AAD
:1014B000030E3C645EEF0AF060EF0AF048EF0AF0BA
:1014C0003A50120032503310D8B469EF0AF06BEF83
:1014D0000AF07CEF0AF032C0D9FF33C0DAFFDF3008
:1014E000E832E832070B346E070E34647AEF0AF004
:1014F0007CEF0AF080EF0AF0000E356E96EF0AF0EE
:1015000032C028F033C029F009EC08F0356E32C043
:1015100028F033C029F032C0D9FF33C0DAFF000E03
:10152000DFBE010E2A6EABEC08F0356E35501200AE
:10153000660EF66E150EF76E000EF86E00EE01F0F8
:1015400010EE27F00900F5CFEEFFE550E150FAE18B
:1015500000EE3DF0080EEE6AE806FDE1000EF86EC2
:101560000001C7EF0AF0800F810F820F830F840FF5
:10157000890F8A0F8B0F8C0F8D0F920F930F940F83
:0D158000950F960F2D020A121A626A727AF8
:10158E00DEEC0AF0200E326E000E336E440E346E18
:10159E00000E356E41EC09F0C9EF0AF000EF00F0D5
:1015AE00200E366E000E376E22EC0AF01200D7ECCB
:0415BE000AF012001D
:020000040020DA
:08000000FFFFFFFFFFFFFFFF00
:020000040030CA
:0E000000FF020F1EFF8181FF0FC00FE00F40B7
:00000001FF
