:0400000007EF00F016
:0A0008007B820BED08F005EF0DF010
:10100000003738392F3435362A3132332D23303DED
:051010002B2569000022
:101016000600FACF68F0FBCF69F0F2A815EF08F0EA
:1010260017EF08F020EF08F0F2A21CEF08F01EEF11
:1010360008F020EF08F076EC0DF0F0A625EF08F0AA
:1010460027EF08F030EF08F0F0A02CEF08F02EEFB5
:1010560008F030EF08F074EC0DF0F0A835EF08F06A
:1010660037EF08F040EF08F0F0A23CEF08F03EEF53
:1010760008F040EF08F072EC0DF0F2A645EF08F02C
:1010860047EF08F062EF08F0F2A04CEF08F04EEFE1
:1010960008F062EF08F081A853EF08F055EF08F06A
:1010A60062EF08F03004D8A45BEF08F05DEF08F0BB
:1010B60062EF08F0000E306E000E62EC0DF0F2A644
:1010C60067EF08F069EF08F084EF08F0F2A06EEF22
:1010D60008F070EF08F084EF08F081B875EF08F0BB
:1010E60077EF08F084EF08F03050D8A47DEF08F0D1
:1010F6007FEF08F084EF08F0010E306E010E62EC0F
:101106000DF0F2A689EF08F08BEF08F0A6EF08F0D5
:10111600F2A090EF08F092EF08F0A6EF08F081AA8F
:1011260097EF08F099EF08F0A6EF08F02F04D8A47F
:101136009FEF08F0A1EF08F0A6EF08F0000E2F6E63
:10114600000E55EC0DF0F2A6ABEF08F0ADEF08F08F
:10115600C8EF08F0F2A0B2EF08F0B4EF08F0C8EF5D
:1011660008F081BAB9EF08F0BBEF08F0C8EF08F055
:101176002F50D8A4C1EF08F0C3EF08F0C8EF08F06D
:10118600010E2F6E010E55EC0DF0F2A6CDEF08F014
:10119600CFEF08F0EAEF08F0F2A0D4EF08F0D6EFB0
:1011A60008F0EAEF08F081ACDBEF08F0DDEF08F0BD
:1011B600EAEF08F02E04D8A4E3EF08F0E5EF08F014
:1011C600EAEF08F0000E2E6E000E48EC0DF0F2A6C7
:1011D600EFEF08F0F1EF08F00CEF09F0F2A0F6EFF0
:1011E60008F0F8EF08F00CEF09F081BCFDEF08F00D
:1011F600FFEF08F00CEF09F02E50D8A405EF09F028
:1012060007EF09F00CEF09F0010E2E6E010E48EC07
:101216000DF0F2A611EF09F013EF09F02EEF09F029
:10122600F2A018EF09F01AEF09F02EEF09F081AEDF
:101236001FEF09F021EF09F02EEF09F02D04D8A4D5
:1012460027EF09F029EF09F02EEF09F0000E2D6EB9
:10125600000E3BEC0DF0F2A633EF09F035EF09F086
:1012660050EF09F0F2A03AEF09F03CEF09F050EF29
:1012760009F081BE41EF09F043EF09F050EF09F0A4
:101286002D50D8A449EF09F04BEF09F050EF09F0C3
:10129600010E2D6E010E3BEC0DF09DAC55EF09F0E5
:1012A60057EF09F060EF09F09EAC5CEF09F05EEFD6
:1012B60009F060EF09F078EC0DF0F2AA65EF09F09D
:1012C60067EF09F070EF09F0F2A46CEF09F06EEF2A
:1012D60009F070EF09F020EC0DF069C0FBFF68C063
:1012E600FAFF7B921100010E726E6A506B10D8B431
:1012F6007FEF09F081EF09F092EF09F06AC0D9FF9C
:101306006BC0DAFFDF30E832E832070B6C6E070E8F
:101316006C6490EF09F092EF09F0F5EF09F0000E1A
:10132600726E16EF0AF06AC0D9FF6BC0DAFFDF30C3
:10133600E832E832070B6C6E010E6D6E6C2AA6EF72
:1013460009F0D8906D366C2EA4EF09F06D50FF0AA7
:101356006E6E6AC0D9FF6BC0DAFFDF50070B6F6E87
:101366006F50020D150EF324D96E000EF420DA6EBE
:10137600DECF70F0DDCF71F070C0D9FF71C0DAFF3B
:101386006E50DF1616EF0AF06AC0D9FF6BC0DAFF9F
:10139600DF30E832E832070B6C6E010E6D6E6C2A98
:1013A600D7EF09F0D8906D366C2ED5EF09F06AC0EC
:1013B600D9FF6BC0DAFFDF50070B6E6E6E50020D61
:1013C600150EF324D96E000EF420DA6EDECF6FF020
:1013D600DDCF70F06FC0D9FF70C0DAFF6D50DF123D
:1013E60016EF0AF06AC0D9FF6BC0DAFFDFBCFEEF6A
:1013F60009F001EF0AF0010E02EF0AF0000E6C6E22
:101406006D6A6D50000AD8B40BEF0AF092EF09F03E
:101416006C50000AD8B496EF09F0010AD8B4C7EFA9
:1014260009F092EF09F072501200010E736E6A50C5
:101436006B10D8B421EF0AF023EF0AF034EF0AF06C
:101446006AC0D9FF6BC0DAFFDF30E832E832070B3B
:101456006D6E070E6D6432EF0AF034EF0AF097EF07
:101466000AF0000E736EACEF0AF06AC0D9FF6BC0CB
:10147600DAFFDF30E832E832070B6D6E010E6E6E72
:101486006D2A48EF0AF0D8906E366D2E46EF0AF0B8
:101496006E50FF0A6F6E6AC0D9FF6BC0DAFFDF506D
:1014A600070B706E7050020D0B0EF324D96E000EF2
:1014B600F420DA6EDECF71F0DDCF72F071C0D9FFA5
:1014C60072C0DAFF6F50DF16ACEF0AF06AC0D9FFC0
:1014D6006BC0DAFFDF30E832E832070B6D6E010EC3
:1014E6006E6E6D2A79EF0AF0D8906E366D2E77EF14
:1014F6000AF06AC0D9FF6BC0DAFFDF50070B6F6EC8
:101506006F50020D0B0EF324D96E000EF420DA6E26
:10151600DECF70F0DDCF71F070C0D9FF71C0DAFF99
:101526006E50DF12ACEF0AF06C506D6E6E6A6E5044
:10153600000AD8B4A1EF0AF034EF0AF06D50000AA1
:10154600D8B438EF0AF0010AD8B469EF0AF034EFDC
:101556000AF0735012006D506E10D8A4B5EF0AF061
:10156600B7EF0AF0BBEF0AF0000E716EFEEF0AF05D
:10157600D59E6DC06AF06EC06BF078EC0CF06DC055
:101586006AF06EC06BF0CAEC0BF06DC06AF06EC00C
:101596006BF0CAEC0CF020EE04F06D50D9266E50BC
:1015A600DA22DECF6FF0DDCF70F070C06FF0706AB8
:1015B6006F50D76E20EE04F06D50D9266E50DA22A9
:1015C600DF50D66E20EE04F06D50D9266E50DA222A
:1015D600DECF43F0DDCF44F0F28AF2946DC0D9FF3E
:1015E6006EC0DAFFDECF45F0DDCF46F0F28EF28C2C
:1015F600D58E010E716E715012006A506B10D8B400
:1016060007EF0BF009EF0BF01AEF0BF06AC0D9FFEA
:101616006BC0DAFFDF30E832E832070B6C6E070E7C
:101626006C6418EF0BF01AEF0BF01CEF0BF048EFA1
:101636000BF06AC0D9FF6BC0DAFFDF30E832E83260
:10164600070B6C6E010E6D6E6C2A2CEF0BF0D890AA
:101656006D366C2E2AEF0BF06AC0D9FF6BC0DAFF2D
:10166600DF50070B6E6E6E50020D0B0EF324D96E13
:10167600000EF420DA6EDECF6FF0DDCF70F06FC0B3
:10168600D9FF70C0DAFF6D50DF1A1200010E00019B
:10169600806F66C081F078C0D9FF79C0DAFFDF506D
:1016A6000F0B7A6E81517A18F80B7A18816F78C011
:1016B600D9FF79C0DAFFDF38070B7A6E7A467A46A9
:1016C6007A4681517A18C70B7A18816F819D78C046
:1016D600D9FF79C0DAFFDFAE02D0818F02D00001D8
:1016E600819F78507910D8A47BEF0BF07DEF0BF03B
:1016F60081EF0BF0000E806F87EF0BF0810E746E9A
:10170600000E756E42EC0CF0000180511200010EC5
:10171600776E74507510D8A493EF0BF095EF0BF01D
:1017260099EF0BF0000E776EC8EF0BF065C078F0FE
:1017360074C0D9FF75C0DAFFDF500F0B766E785094
:101746007618F80B7618786E74C0D9FF75C0DAFF74
:10175600DF38070B766E76467646764678507618EC
:10176600C70B7618786E789C74C0D9FF75C0DAFFFF
:10177600DFAE02D0788E01D0789E780E6A6E000EAB
:101786006B6E010E6C6E18EC0AF07750120020EEAC
:1017960006F06A50D9266B50DA22DFA4D5EF0BF09B
:1017A600D7EF0BF0DAEF0BF0D59A08EF0CF020EE3E
:1017B60006F06A50D9266B50DA22DFB4E5EF0BF05B
:1017C600E7EF0BF008EF0CF0D58A20EE06F06A5032
:1017D600D9266B50DA22DFA2F3EF0BF0F5EF0BF010
:1017E600F8EF0BF0D59808EF0CF020EE06F06A50F3
:1017F600D9266B50DA22DFB203EF0CF005EF0CF0BE
:1018060008EF0CF0D58808EF0CF01200715072103A
:10181600D8A410EF0CF012EF0CF014EF0CF041EF1F
:101826000CF063C074F071C0D9FF72C0DAFFDF50EC
:101836000F0B736E74507318F80B7318746E71C0B7
:10184600D9FF72C0DAFFDF38070B736E7346734633
:10185600734674507318C70B7318746E749C71C0FA
:10186600D9FF72C0DAFFDFAE02D0748E01D0749E4B
:10187600740E6A6E000E6B6E00EC0BF01200745064
:101886007510D8B449EF0CF04BEF0CF05CEF0CF090
:1018960074C0D9FF75C0DAFFDF30E832E832070BD3
:1018A600766E070E76645AEF0CF05CEF0CF060EF84
:1018B6000CF0000E776E76EF0CF074C06AF075C00F
:1018C6006BF076EC09F0776E74C06AF075C06BF059
:1018D60074C0D9FF75C0DAFF000EDFBE010E6C6E54
:1018E60018EC0AF0776E7750120020EE06F06A5078
:1018F600D9266B50DA22DFA083EF0CF085EF0CF0CF
:1019060095EF0CF0D59620EE03F06A50D9266B5071
:10191600DA22DF506C6ED5506C18F80B6C18D56E49
:10192600A3EF0CF020EE06F06A50D9266B50DA22AF
:10193600DFB0A0EF0CF0A2EF0CF0A3EF0CF0D58611
:101946001200380E786E000E796E49EC0BF0380EE8
:10195600746E000E756E8AEC0BF0310E6D6E000E15
:101966006E6EAEEC0AF05F04D8A4BCEF0CF0BEEFCE
:101976000CF0B6EF0CF0000E5F6E380E716E000EB6
:10198600726E09EC0CF0B6EF0CF007EF00F020EEEB
:1019960006F06A50D9266B50DA22DFA6D5EF0CF096
:1019A600D7EF0CF0DAEF0CF0D58CE8EF0CF020EE68
:1019B60006F06A50D9266B50DA22DFB6E5EF0CF056
:1019C600E7EF0CF0E8EF0CF0D59C1200800F810FCA
:1019D600820F830F840F890F8A0F8B0F8C0F8D0F49
:1019E600920F930F940F950F960F020A121A626ABE
:1019F600727A020A121A222A01010101DE1A000372
:101A0600DC0B0502D20EF66E190EF76E000EF86E9E
:101A160000EE01F010EE38F00900F5CFEEFFE550CC
:101A2600E150FAE100EE39F02E0EEE6AE806FDE12D
:101A36007B907B920001A4EF0CF0F2944450D76E99
:101A460043C0D6FF45504610D8B42CEF0DF02EEF0C
:101A56000DF03AEF0DF002D83AEF0DF00500FA6EF0
:101A66004550FD6E4650FE6EFF6AFA501200120097
:101A7600676EF2906750D8A443EF0DF045EF0DF076
:101A860047EF0DF047EF0DF01200676EF2906750CA
:101A9600D8A450EF0DF052EF0DF054EF0DF054EFC7
:101AA6000DF01200676EF2906750D8A45DEF0DF04E
:101AB6005FEF0DF061EF0DF061EF0DF01200676E54
:101AC600F2906750D8A46AEF0DF06CEF0DF06EEF50
:101AD6000DF06EEF0DF01200010E5F6E1200F09227
:0E1AE6001200F0901200F29212009E9C12006C
:020000040020DA
:08000000FFFFFFFFFFFFFFFF00
:020000040030CA
:0E000000FF020F1EFF8181FF0FC00FE00F40B7
:00000001FF
