:020000040000FA
:0400000007EF00F016
:0A0008007F8212ED0DF0D9EF0FF02A
:10100000003738392F3435362A3132332D23303DED
:051010002B2569000022
:101016002B50800B346E2B502B24366E2AAE16EFD7
:1010260008F018EF08F019EF08F036803650D8B4FB
:101036001FEF08F021EF08F036EF08F03628D8A4A5
:1010460027EF08F029EF08F031EF08F0000E286EC0
:10105600000E296E000E2A6E000E2B6E2A8E000ED2
:101066002B6E3EEF08F0000E286E000E296E000E65
:101076002A6E000E2B6E2F50800B356E34503518AD
:10108600D8B448EF08F04AEF08F04BEF08F0348C7C
:101096002F502F24356E2EAE53EF08F055EF08F083
:1010A60056EF08F035803550D8B45CEF08F05EEFA7
:1010B60008F073EF08F03528D8A464EF08F066EF5F
:1010C60008F06EEF08F0000E2C6E000E2D6E000E6E
:1010D6002E6E000E2F6E2E8E000E2F6E7BEF08F0FA
:1010E600000E2C6E000E2D6E000E2E6E000E2F6E54
:1010F6003650355CD8B082EF08F084EF08F0ABEFDD
:1011060008F034AC89EF08F08BEF08F08DEF08F0AB
:10111600800E341A36C037F035C036F037C035F099
:1011260028C037F02CC028F037C02CF029C037F083
:101136002DC029F037C02DF02AC037F02EC02AF076
:1011460037C02EF02BC037F02FC02BF037C02FF052
:10115600000E376E365035C030F0316A305E000E04
:10116600315A31BEC0EF08F0315009E11A0E305C39
:10117600D8A0C0EF08F0C2EF08F0F9EF08F0285049
:1011860029102A102B10D8A4CBEF08F0CEEF08F0C8
:10119600010ECFEF08F0000E376E000E286E000E1F
:1011A600296E000E2A6E000E2B6E35C036F002EF49
:1011B60009F037A0E1EF08F0E3EF08F0E9EF08F0F7
:1011C600D89037300109376EEBEF08F0D8903732F8
:1011D60028A0F0EF08F0F2EF08F0F3EF08F0378EF2
:1011E6002B342B322A3229322832362A3550365CB5
:1011F600D8A000EF09F002EF09F0DCEF08F034BCEC
:1012060007EF09F009EF09F049EF09F03650D8A4C5
:101216000FEF09F011EF09F01BEF09F0000E286E31
:10122600000E296E000E2A6E000E2B6E6AEF0AF073
:101236002C5028262D5029222E502A222F502B2280
:101246002BA028EF09F02AEF09F0D6EF09F037A016
:101256002FEF09F031EF09F037EF09F0D89037306A
:101266000109376E39EF09F0D890373228A03EEFE2
:1012760009F040EF09F041EF09F0378E2B342B329D
:101286002A3229322832362AD6EF09F02C50285C29
:101296002D5029582E502A582B50800A306E2F5028
:1012A600800A3058D8B05AEF09F05CEF09F087EFA2
:1012B60009F028502C5C306E29502D58316E2A507A
:1012C6002E58326E2B502F58336EFF0E3024286E58
:1012D600FF0E3120296EFF0E32202A6EFF0E3320BC
:1012E6002B6E800E341A376C3750D8A47DEF09F078
:1012F6007FEF09F08FEF09F0010E2826000E292254
:101306002A222B228FEF09F02C50285E2D50295AC5
:101316002E502A5A2F502B5A285029102A102B109B
:10132600D8A498EF09F09AEF09F0CFEF09F03750FB
:10133600D8A4A0EF09F0A2EF09F0CFEF09F0000E54
:10134600286E000E296E000E2A6E000E2B6E6AEFB6
:101356000AF0D890283629362A362B3637AEB6EF1D
:1013660009F0B8EF09F0B9EF09F0288037A0BEEF11
:1013760009F0C0EF09F0C4EF09F0D8803736C6EFA0
:1013860009F0D89037363650D8B4CCEF09F0CEEF06
:1013960009F0CFEF09F036062AAED4EF09F0D6EF02
:1013A60009F0ACEF09F0000E356E37AEDDEF09F04F
:1013B600DFEF09F0F7EF09F037C030F07F0E301697
:1013C600D8B4E8EF09F0EAEF09F0EEEF09F0010E04
:1013D600356EF7EF09F028A0F3EF09F0F5EF09F005
:1013E600F7EF09F0EAEF09F03550D8B4FDEF09F050
:1013F600FFEF09F02AEF0AF0010E2826000E292237
:101406002A222B222BA00AEF0AF00CEF0AF02AEF71
:101416000AF028C030F029C031F02AC032F02BC0C3
:1014260033F03334333232323132303230C028F096
:1014360031C029F032C02AF033C02BF03628D8B498
:1014460027EF0AF029EF0AF02AEF0AF0362A3628A3
:10145600D8B430EF0AF032EF0AF03AEF0AF036501D
:10146600D8A438EF0AF03AEF0AF04CEF0AF0000E73
:10147600286E000E296E000E2A6E000E2B6E365058
:10148600D8A448EF0AF04AEF0AF04CEF0AF0000E33
:10149600346E36A051EF0AF053EF0AF056EF0AF019
:1014A6002A8E57EF0AF02A9ED89036302B6E34AE2D
:1014B6005FEF0AF061EF0AF062EF0AF02B8E28C0A8
:1014C60028F029C029F02AC02AF02BC02BF01200E0
:1014D6001250800B1F6E12501224266E11AE76EF3C
:1014E6000AF078EF0AF079EF0AF026802650D8B491
:1014F6007FEF0AF081EF0AF096EF0AF02628D8A4CB
:1015060087EF0AF089EF0AF091EF0AF0000E0F6EEE
:10151600000E106E000E116E000E126E118E000E71
:10152600126E9EEF0AF0000E0F6E000E106E000E89
:10153600116E000E126E1650800B1F1A16501624CE
:10154600276E15AEA9EF0AF0ABEF0AF0ACEF0AF082
:1015560027802750D8B4B2EF0AF0B4EF0AF0C9EFEB
:101566000AF02728D8A4BAEF0AF0BCEF0AF0C4EFB5
:101576000AF0000E136E000E146E000E156E000EAD
:10158600166E158E000E166ED1EF0AF0000E136E53
:10159600000E146E000E156E000E166E135014100B
:1015A60015101610D8A4DAEF0AF0DCEF0AF0F4EF03
:1015B6000AF0000E0F6E000E106E000E116E000E79
:1015C600126E800E11127F0E12121F5012120FC0D1
:1015D6000FF010C010F011C011F012C012F037EF6A
:1015E6000CF02650D8A4FAEF0AF0FCEF0AF006EF4A
:1015F6000BF0000E0F6E000E106E000E116E000E38
:10160600126E37EF0CF0275026C017F0186A175ED7
:10161600000E185A7F0E1724206E000E1820216E19
:101626000FC01BF010C01CF011C01DF012C01EF040
:10163600000E0F6E000E106E000E116E000E126E72
:10164600000E226E000E236E000E246E000E256E16
:10165600000E276E67EF0BF02750D8B435EF0BF06E
:1016660037EF0BF04EEF0BF0D8901B361C361D36BD
:101676001E36D8900F3610361136123625AE46EF86
:101686000BF048EF0BF049EF0BF00F80D8902236A5
:1016960023362436253613501B5C14501C5815501F
:1016A6001D5816501E58D8A05BEF0BF05DEF0BF0DF
:1016B60066EF0BF0258C13501B5E14501C5A155008
:1016C6001D5A16501E5A272A190E27646DEF0BF065
:1016D6006FEF0BF02FEF0BF01B501C101D101E10A0
:1016E600D8B478EF0BF07AEF0BF092EF0BF0228084
:1016F60092EF0BF0D8900F3610361136123625AE13
:1017060087EF0BF089EF0BF08AEF0BF00F80D89084
:1017160022362336243625362006D8A0210611AED9
:1017260097EF0BF099EF0BF07DEF0BF0000E276EA5
:1017360025AEA0EF0BF0A2EF0BF0C6EF0BF0FF0EFD
:101746002214176EFF0E2314186EFF0E2414196E42
:101756007F0E25141A6E1750181019101A10D8B4C7
:10176600B7EF0BF0B9EF0BF0BDEF0BF0010E276EE4
:10177600C6EF0BF00FA0C2EF0BF0C4EF0BF0C6EFF5
:101786000BF0B9EF0BF02750D8B4CCEF0BF0CEEF3F
:101796000BF0F2EF0BF0010E0F26000E10221122B5
:1017A600122212A0D9EF0BF0DBEF0BF0F2EF0BF0E9
:1017B6000FC017F010C018F011C019F012C01AF0BF
:1017C6001A341A3219321832173217C00FF018C0ED
:1017D60010F019C011F01AC012F0204A212A21BEB9
:1017E600FDEF0BF0215008E12028D8A0FDEF0BF00B
:1017F600FFEF0BF00AEF0CF0000E216E2068000ED2
:101806000F6E000E106E000E116E000E126E21BECF
:1018160017EF0CF0215006E12004D8B015EF0CF0BC
:1018260017EF0CF025EF0CF0000E216E000E206E67
:10183600000E0F6E000E106E000E116E000E126E70
:10184600000E1F6E20C026F026A02CEF0CF02EEF07
:101856000CF031EF0CF0118E32EF0CF0119ED89097
:101866002630126EE8EF0AF01200096E0950D8B45D
:101876003FEF0CF041EF0CF063EF0CF004BE48EFC5
:101886000CF046EF0CF063EF0CF001C005F002C05F
:1018960006F003C007F004C008F0051E061E071E6A
:1018A600081E052A000E06220722082205C00BF094
:1018B60006C00CF007C00DF008C00EF06BEF0CF080
:1018C60001C00BF002C00CF003C00DF004C00EF016
:1018D6000150021003100410D8A474EF0CF076EF38
:1018E6000CF080EF0CF0000E016E000E026E000E82
:1018F600036E000E046E11EF0DF0960E0A6E8AEF5F
:101906000CF00A2AD8900E320D320C320B32000E31
:101916000B14056E000E0C14066E000E0D14076EE9
:10192600FE0E0E14086E0550061007100810D8A4F7
:101936009FEF0CF0A1EF0CF084EF0CF0AFEF0CF082
:101946000A2A010E0B26000E0C220D220E22D8901A
:101956000E320D320C320B32000E0B14056E000ED9
:101966000C14066E000E0D14076EFF0E0E14086E94
:101976000550061007100810D8A4C4EF0CF0C6EFE7
:101986000CF0A3EF0CF0CEEF0CF00A06D8900B3655
:101996000C360D360E360DBED3EF0CF0D5EF0CF02F
:1019A600DDEF0CF0020E0A60DBEF0CF0DDEF0CF061
:1019B600C8EF0CF00AB0E2EF0CF0E4EF0CF0E5EF44
:1019C6000CF00D9ED8900A320AC005F0066A076A26
:1019D600086A05C008F0076A066A056A05500B1210
:1019E60006500C1207500D1208500E120950D8B4AA
:1019F600FFEF0CF001EF0DF009EF0DF004BE08EF5C
:101A06000DF006EF0DF009EF0DF00E8E0BC001F094
:101A16000CC002F00DC003F00EC004F01200060068
:101A2600F2A818EF0DF01AEF0DF023EF0DF0F2A269
:101A36001FEF0DF021EF0DF023EF0DF0B1EC10F0DC
:101A4600F0A628EF0DF02AEF0DF033EF0DF0F0A021
:101A56002FEF0DF031EF0DF033EF0DF0AFEC10F08E
:101A6600F0A838EF0DF03AEF0DF043EF0DF0F0A2CD
:101A76003FEF0DF041EF0DF043EF0DF0ADEC10F040
:101A86009DAC48EF0DF04AEF0DF053EF0DF09EAC14
:101A96004FEF0DF051EF0DF053EF0DF0B5EC10F0E8
:101AA600F2AA58EF0DF05AEF0DF063EF0DF0F2A425
:101AB6005FEF0DF061EF0DF063EF0DF09AEC10F0B3
:101AC6009DA068EF0DF06AEF0DF073EF0DF09EA08C
:101AD6006FEF0DF071EF0DF073EF0DF094EC10F069
:101AE6009DA278EF0DF07AEF0DF083EF0DF09EA238
:101AF6007FEF0DF081EF0DF083EF0DF0A0EC10F00D
:101B0600A0A288EF0DF08AEF0DF093EF0DF0A1A2E1
:101B16008FEF0DF091EF0DF093EF0DF08EEC10F0CE
:101B26009DA898EF0DF09AEF0DF0A3EF0DF09EA88B
:101B36009FEF0DF0A1EF0DF0A3EF0DF0B3EC10F059
:101B46009DAAA8EF0DF0AAEF0DF0B3EF0DF09EAA37
:101B5600AFEF0DF0B1EF0DF0B3EF0DF0BAEC10F002
:101B66009DA6B8EF0DF0BAEF0DF0C3EF0DF09EA6EF
:101B7600BFEF0DF0C1EF0DF0C3EF0DF0B8EC10F0B4
:101B8600A0A6C8EF0DF0CAEF0DF0D3EF0DF0A1A699
:101B9600CFEF0DF0D1EF0DF0D3EF0DF0B9EC10F063
:101BA6007F92110046504710D8A4DCEF0DF0DEEF0F
:101BB6000DF0E2EF0DF0000E486E75EF0EF0C69ACE
:101BC60020EE04F04650D9264750DA22DFA0EEEF89
:101BD6000DF0F0EF0DF0F8EF0DF046C042F047C003
:101BE60043F051EC0FF034EF0EF020EE04F04650C7
:101BF600D9264750DA22DFB003EF0EF005EF0EF0DC
:101C060034EF0EF020EE04F04650D9264750DA2283
:101C1600DFA610EF0EF012EF0EF015EF0EF0C58EE8
:101C260023EF0EF020EE04F04650D9264750DA2274
:101C3600DFB620EF0EF022EF0EF023EF0EF0C59E7A
:101C4600C69EC69CC68820EE03F04650D92647504D
:101C5600DA22DF50C86E46C001F047C002F080ECC1
:101C660010F0AAEC10F020EE04F04650D9264750AA
:101C7600DA22DFA241EF0EF043EF0EF046EF0EF050
:101C8600C78E54EF0EF020EE04F04650D92647508A
:101C9600DA22DFB251EF0EF053EF0EF054EF0EF0F2
:101CA600C79E20EE04F04650D9264750DA22DFA41C
:101CB6005FEF0EF061EF0EF064EF0EF0C78C72EF7F
:101CC6000EF020EE04F04650D9264750DA22DFB453
:101CD6006FEF0EF071EF0EF072EF0EF0C79CC68A32
:101CE600010E486E485012003A343B34416E415062
:101CF600D8A480EF0EF082EF0EF08CEF0EF0000EFF
:101D0600386E000E396E000E3A6E000E3B6EF9EF1D
:101D16000EF038C03CF039C03DF03AC03EF03BC052
:101D26003FF0200E9CEF0EF0D8903F323E323D320F
:101D36003C32E82E97EF0EF03C50406E3A8EFF0E86
:101D46003816FF0E3916FF0E3A16000E3B16960E83
:101D5600415E41BEB3EF0EF0B1EF0EF0C9EF0EF0EB
:101D66004150800A970FD8B0BBEF0EF0BDEF0EF0D2
:101D7600BFEF0EF082EF0EF0D8903B323A32393296
:101D86003832413EBFEF0EF0E1EF0EF01F0E416418
:101D9600CFEF0EF0D1EF0EF0D9EF0EF082EF0EF08E
:101DA600D890383639363A363B3641064150D8A4B3
:101DB600DFEF0EF0E1EF0EF0D3EF0EF04050D8B4A7
:101DC600E7EF0EF0E9EF0EF0F1EF0EF03B1E3A1ED4
:101DD600391E386C000E39223A223B2238C038F0C0
:101DE60039C039F03AC03AF03BC03BF01200A7ECDC
:101DF60010F0860E746EA00E736E7780080E756EE8
:101E060077947782730E466E000E476ED5EC0DF012
:101E1600610E076E600E04EC10F0060E4A6E130E8D
:101E2600496EAE0EE82EFED7492EFCD74A2EFAD7BB
:101E3600620E076E620E04EC10F0060E4A6E130E6A
:101E4600496EAE0EE82EFED7492EFCD74A2EFAD79B
:101E5600630E076E600E04EC10F0060E4A6E130E4B
:101E6600496EAE0EE82EFED7492EFCD74A2EFAD77B
:101E7600640E076E620E04EC10F0060E4A6E130E28
:101E8600496EAE0EE82EFED7492EFCD74A2EFAD75B
:101E96004B4A4C2A0BEF0FF007EF00F020EE02F052
:101EA6004250D9264350DA22DF50446EC6504418B9
:101EB600F00B4418C66E000E2C6E000E2D6E800EB2
:101EC6002E6EBF0E2F6E42C0D9FF43C0DAFFDECFA3
:101ED60044F0DDCF45F044C001F045C002F0036A8E
:101EE600046A000E38EC0CF001C013F002C014F0C6
:101EF60003C015F004C016F0000E0F6E240E106E0F
:101F0600F40E116E490E126E6BEC0AF00FC028F03B
:101F160010C029F011C02AF012C02BF00BEC08F00B
:101F260028C038F029C039F02AC03AF02BC03BF05F
:101F360077EC0EF03850C86E120001500210D8B47B
:101F4600A7EF0FF0A9EF0FF0B2EF0FF00450051056
:101F5600D8A4B0EF0FF0B2EF0FF0B6EF0FF0000E0F
:101F6600066ED7EF0FF003C0C9FF9EA6BDEF0FF0B8
:101F7600BFEF0FF0B8EF0FF09E96C5BCC5EF0FF0A0
:101F8600C7EF0FF0CFEF0FF004C0D9FF05C0DAFF9F
:101F9600000EDF6ED5EF0FF004C0D9FF05C0DAFFE3
:101FA600010EDF6E010E066E06501200D80EF66E9A
:101FB600200EF76E000EF86E00EE80F010EE28F0A0
:101FC6000900F5CFEEFFE550E150FAE1480EF66E56
:101FD600210EF76E000EF86E00EE79F010EE06F0A8
:101FE6000900F5CFEEFFE550E150FAE100EE4BF0C7
:101FF6002E0EEE6AE806FDE17F907F920001FAEF71
:102006000EF0086E730E016E000E026E4BEC10F0B1
:10201600730E016E000E026E08C003F0780E046E99
:10202600000E056EA0EC0FF0730E016E000E026E30
:1020360007C003F0780E046E000E056EA0EC0FF0DC
:10204600730E016E000E026E2AEC10F012000150A3
:102056000210D8A431EF10F033EF10F037EF10F084
:10206600000E036E49EF10F0C584C5B43DEF10F0C5
:102076003FEF10F038EF10F09E96C7A845EF10F02E
:1020860047EF10F033EF10F0010E036E035012000D
:1020960001500210D8A452EF10F054EF10F058EF90
:1020A60010F0000E036E6AEF10F0C580C5B05EEF4B
:1020B60010F060EF10F059EF10F09E96C7A666EF8D
:1020C60010F068EF10F054EF10F0010E036E03509D
:1020D6001200800F810F820F830F840F890F8A0FE2
:1020E6008B0F8C0F8D0F920F930F940F950F960FEA
:1020F600323A030B131B232B333B20EE02F0015025
:10210600D9260250DA22DF50036EC6500318F00BB0
:102116000318C66E1200A1925650B36E55C0B2FF98
:1021260012009E905C50CF6E5BC0CEFF1200F29400
:102136006050D76E5FC0D6FF12009E926BC0CCFF78
:102146001200020A121A222AB7EC10F01200948624
:1021560094881200F0921200F0901200F29212008F
:102166009D9812009E9C120012001200120012008E
:020000040020DA
:08000000FFFFFFFFFFFFFFFF00
:020000040030CA
:0E000000FF020912FF8181FF0FC00FE00F40C9
:00000001FF
