:0400000062EF00F0BB
:100008004D82FACF3FF0FBCF40F0D9CF41F0DACFA5
:1000180042F0F3CF43F0F4CF44F0F6CF45F0F7CFFA
:1000280046F0F8CF47F0F5CF48F0F2AC1EEF00F0FD
:1000380020EF00F04CEF00F0A0A625EF00F027EF2E
:1000480000F03CEF00F0A1A62CEF00F02EEF00F03E
:100058003CEF00F002D83AEF00F00500FA6E2B50A2
:10006800FD6E2C50FE6EFF6AFA5012004CEF00F045
:100078009DA641EF00F043EF00F04CEF00F09EA684
:1000880048EF00F04AEF00F04CEF00F02EEF00F0E0
:1000980048C0F5FF47C0F8FF46C0F7FF45C0F6FF68
:1000A80044C0F4FF43C0F3FF42C0DAFF41C0D9FFA8
:1000B80040C0FBFF3FC0FAFF4D92110098EF0CF0D3
:1010000000E41A841A921A3A109E11DA1AE413268E
:101010001B1E1B161B0E1B061BFE1AF61AD01A9857
:101020001653797374656D2053746172746564002E
:0910300044617465203A200000BF
:10103A0038EC0DF00009D8B425EF08F027EF08F0D6
:10104A0061EF08F035EF08F093EC0DF07BEF08F054
:10105A008FEC0DF07BEF08F087EC0DF07BEF08F0DA
:10106A0013C039F014C03AF002D845EF08F0050071
:10107A00FA6E0750FD6E0850FE6EFF6AFA501200B3
:10108A003B6E3C6A3C50000AD8B44EEF08F031EF90
:10109A0008F03B50010AD8B431EF08F0030AD8B47B
:1010AA0029EF08F0010AD8B42DEF08F0070AD8B4DE
:1010BA0031EF08F031EF08F024901EC0D9FF1FC0AD
:1010CA00DAFF1E4A1F2ADF5097EC0DF02006D8A03F
:1010DA00210620502110D8A475EF08F077EF08F008
:1010EA007AEF08F0060E7BEF08F0030E12002A389A
:1010FA000F0B300F0001666F2A500F0B300F676F0E
:10110A002D0E686F29380F0B300F696F29500F0B9E
:10111A00300F6A6F2D0E6B6F28380F0B300F6C6F04
:10112A0028500F0B300F6D6F2F0E6E6F25380F0B77
:10113A00300F6F6F25500F0B300F706F2D0E716FC0
:10114A0026380F0B300F726F26500F0B300F736F4C
:10115A002D0E746F27380F0B300F756F27500F0B3A
:10116A00300F766F0D0E776F300E796F100E7A6F23
:10117A00000E7C6F080E7B6F7EEC0BF0660E000192
:10118A00796F000E7A6F000E7C6F120E7B6F7EEC09
:10119A000BF01200B4EC0DF01EC0D9FF1FC0DAFF2D
:1011AA00DF6E1E4A1F2A2006D8A0210620502110D1
:1011BA00D8B4E2EF08F0E4EF08F0E9EF08F09EECAB
:1011CA000DF0050E20EF09F02486F4EF08F07BEC11
:1011DA000DF020EF09F07FEC0DF020EF09F00DC0C3
:1011EA0039F00EC03AF002D804EF09F00500FA6EA1
:1011FA000150FD6E0250FE6EFF6AFA5012003B6EFD
:10120A003C6A3C50000AD8B40DEF09F0F0EF08F040
:10121A003B50010AD8B4F0EF08F0030AD8B4ECEF57
:10122A0008F0010AD8B4ECEF08F0070AD8B4F0EFD6
:10123A0008F0F0EF08F0120000017A6F010E0001C9
:10124A007B6F24B42BEF09F02DEF09F070EF09F052
:10125A007AC01DF02492248424900E0E226E010E70
:10126A001C6EF40E1B6E2486740E016E1B0E026E2B
:10127A00000E0D6E000E0E6E740E036E1B0E046EC3
:10128A00000E0F6E000E106E740E056E1B0E066EAB
:10129A00000E116E000E126E740E076E1B0E086E93
:1012AA00000E136E000E146E700E096E1B0E0A6E7F
:1012BA00000E156E000E166E360E786F1B0E796FC5
:1012CA0063EC0DF0AEEC0DF0BAEC0CF0A6EC0DF000
:1012DA00000E00017B6F7B5112000001826F000E2D
:1012EA000001836F0001825121EC09F00009D8B492
:1012FA0081EF09F083EF09F077EF09F0D80E0001CA
:10130A007D6F180E7E6F830E7F6F000E806FF4EC78
:10131A000CF0810E0001786F000E796F000E7B6F62
:10132A00010E7A6FA9EC0CF0000E00017D6F000E21
:10133A007E6F000E7F6F000E806F00EC0DF077EC71
:10134A000DF029EC0CF0E806D8B4AEEF09F0B0EFD6
:10135A0009F0A6EF09F000018351120000017C6F29
:10136A00000178517911D8B4BDEF09F0BFEF09F047
:10137A00D9EF09F07C51020D010EF324D96E000E4B
:10138A00F420DA6E78C0DEFF79C0DDFF7C51020DF1
:10139A000D0EF324D96E000EF420DA6E7AC0DEFF49
:1013AA007BC0DDFFF1EF09F07C51020D010EF32441
:1013BA00D96E000EF420DA6E740EDE6E1B0EDD6E30
:1013CA007C51020D0D0EF324D96E000EF420DA6E54
:1013DA00000EDE6E000EDD6E1200248602EF0AF0A9
:1013EA008BEC0DF02EEF0AF0B2EC0DF0030E2EEF9F
:1013FA000AF087EC0DF02EEF0AF00DC039F00EC09E
:10140A003AF002D812EF0AF00500FA6E0150FD6EAA
:10141A000250FE6EFF6AFA5012003B6E3C6A3C5064
:10142A00000AD8B41BEF0AF0FEEF09F03B50010A9C
:10143A00D8B4FEEF09F0030AD8B4F5EF09F0010AAF
:10144A00D8B4F5EF09F0070AD8B4F9EF09F0FEEFBE
:10145A0009F01200346E30503110D8B437EF0AF068
:10146A0039EF0AF053EF0AF03450020D010EF3245B
:10147A00D96E000EF420DA6E30C0DEFF31C0DDFF17
:10148A003450020D0D0EF324D96E000EF420DA6EDC
:10149A0032C0DEFF33C0DDFF6BEF0AF03450020DBD
:1014AA00010EF324D96E000EF420DA6E740EDE6E8D
:1014BA001B0EDD6E3450020D0D0EF324D96E000E94
:1014CA00F420DA6E000EDE6E000EDD6E120018ECED
:1014DA000DF0F28EF28C080E0001846F050E856FF6
:1014EA00A20E23EC0DF0080E0001846F060E856F24
:1014FA00A60E23EC0DF0210E0001796F100E7A6F03
:10150A00000E7C6F0E0E7B6F7EEC0BF0080E000156
:10151A00846FA20EE8EC0CF02E6E080E0001846FA8
:10152A00A60EE8EC0CF02D6EE4EC0AF020EE60F06A
:10153A00050EEBCFDBFFE806FCE27CEC08F099EF46
:10154A000AF062EF00F00001836F0001835121EC81
:10155A0009F00009D8B4B4EF0AF0B6EF0AF0AAEF1E
:10156A000AF0800E00017D6F180E7E6F820E7F6F6B
:10157A00000E806FF4EC0CF0810E0001786F000E03
:10158A00796F000E7B6F010E7A6FA9EC0CF0000EDA
:10159A0000017D6F000E7E6F000E7F6F000E806F60
:1015AA0000EC0DF077EC0DF029EC0CF0E806D8B45D
:1015BA00E1EF0AF0E3EF0AF0D9EF0AF01200000EA9
:1015CA000001816FD00E72EC09F0276E010E000146
:1015DA00816FD00E72EC09F0266E020E0001816F47
:1015EA00D00E72EC09F0256E040E0001816FD00E48
:1015FA0072EC09F02A6E050E0001816FD00E72ECB2
:10160A0009F0296E060E0001816FD00E72EC09F006
:10161A00286E20EE25F000EE84F0050EDBCFEBFFFE
:10162A00E806FCE21200B0EC0DF024A01FEF0BF06C
:10163A0021EF0BF02DEF0BF038EC0DF00009D8B4C8
:10164A0029EF0BF02BEF0BF02DEF0BF00F0E226EA4
:10165A002250020D010EF324F66E100EF420F76EDE
:10166A00F86A000EF8220900F5CF3DF00900F5CF1F
:10167A003EF002D84AEF0BF00500FA6E3D50FD6EBF
:10168A003E50FE6EFF6AFA501200226E120024903B
:10169A00020E236E59EF0BF08BEC0DF07DEF0BF081
:1016AA0087EC0DF07DEF0BF011C039F012C03AF063
:1016BA0002D869EF0BF00500FA6E0550FD6E065070
:1016CA00FE6EFF6AFA5012003B6E3C6A3C50000AFA
:1016DA00D8B472EF0BF055EF0BF03B50020AD8B4B6
:1016EA0051EF0BF0010AD8B451EF0BF055EF0BF0A4
:1016FA001200000E00017E6F000E7D6F000E7E6FDD
:10170A00000E7D6FA1EF0BF079C0F6FF7AC0F7FFEC
:10171A00000EF86E0F0EF76403D00800F55005D0DE
:10172A00F6CFE9FFF7CFEAFFEF50DCEC0CF000014F
:10173A00794B7A2B7D4B7E2B7B517D5D7C517E597B
:10174A00D8A0AAEF0BF0ACEF0BF089EF0BF0120068
:10175A00080EB86E900EAB6E240EAC6EA00EAF6E75
:10176A00010EB06E000E0001786F000E796F59EC11
:10177A000DF0000E0001786F000E796F54EC0DF039
:10178A00000E0001786F000E796F5EEC0DF0000E0E
:10179A002F6E12000001786F010E0001796F24B2DA
:1017AA00D9EF0BF0DBEF0BF0EEEF0BF02482000E1B
:1017BA00796F7851D8B4E4EF0BF0E6EF0BF0EAEF6B
:1017CA000BF0010E226EECEF0BF0020E226EA8EC6B
:1017DA000DF000017951120020EE02F03950D9269D
:1017EA003A50DA22DECF30F0DDCF31F039C0D9FFFE
:1017FA003AC0DAFFDECF32F0DDCF33F0CBEC0CF0BB
:10180A00000E356E000E366E000E376E000E386E04
:10181A000CEC0DF0020E1200000E8D6E000E8C6E96
:10182A00000E896E000E8A6E000E8B6E070E966E83
:10183A0092689368BF0E946E95687E681F0E7F6EDD
:10184A00000E7C6EF18E1200010E0001786F24B238
:10185A0031EF0CF033EF0CF03DEF0CF024941D68DF
:10186A00AEEC0DF0AAEC0DF0ACEC0DF023C078F064
:10187A0000017851120039C030F03AC031F0000E40
:10188A00336E010E326ECBEC0CF0000E356E000E8C
:10189A00366E000E376E000E386E0CEC0DF0040E2C
:1018AA00120039C030F03AC031F0000E336E020E29
:1018BA00326ECBEC0CF0000E356E000E366E000E5A
:1018CA00376E000E386E0CEC0DF0020E120039C0A5
:1018DA0030F03AC031F0000E336E010E326ECBECAE
:1018EA000CF0000E356E000E366E000E376E000ECE
:1018FA00386E0CEC0DF0020E120039C030F03AC00E
:10190A0031F0000E336E020E326ECBEC0CF0000E8C
:10191A00356E000E366E000E376E000E386E0CEC09
:10192A000DF0040E120000EE60F0180EEE6AE806E2
:10193A00FDE100EE01F02F0EEE6AE806FDE14D90A2
:10194A004D9200016CEF0AF024A6AEEF0CF0B0EF56
:10195A000CF0B9EF0CF078C01EF079C01FF07AC015
:10196A0020F07BC021F024961200C6BABFEF0CF01B
:10197A00C1EF0CF0CAEF0CF0000EC76E080EC66E6F
:10198A00000EC56E270EC86EC68A120024A6D0EFB6
:10199A000CF0D2EF0CF0DBEF0CF030C01EF031C0CF
:1019AA001FF032C020F033C021F02496120000014B
:1019BA00786F9EA8E3EF0CF0E5EF0CF0DEEF0CF089
:1019CA0078C0ADFF12000001856F84C081F000016C
:1019DA00855172EC09F00001866F865112007DC0B4
:1019EA0078F07EC079F07FC07AF080C07BF0000E7C
:1019FA00B3EC09F012007DC078F07EC079F07FC0A8
:101A0A007AF080C07BF0020EB3EC09F0120035C008
:101A1A0030F036C031F037C032F038C033F0000E43
:101A2A002FEC0AF01200A4EC0DF02EEC0DF011ECE4
:101A3A000CF04FEC0DF0ADEC0BF012000001866FCC
:101A4A0084C081F085C082F000018651A8EC0AF0BA
:101A5A001200000EC76E080EC66E000EC56E270E67
:101A6A00C86EC69A1200C5BC3DEF0DF040EF0DF0EE
:101A7A00010E41EF0DF0000E120024801D500109E5
:101A8A0097EC0DF0050E120024801D5097EC0DF016
:101A9A00030E1200300ED36E000E9B6E120078C039
:101AAA0049F079C04AF0120078C04BF079C04CF086
:101ABA00120078C08AF079C08BF0120078C02BF03F
:101ACA0079C02CF012002492000E236E0E0E120022
:101ADA002490B6EC0DF0040E12002492000E236E30
:101AEA000E0E1200000ECFEC0BF01200A1EC0DF05E
:101AFA00090E1200A1EC0DF00A0E12009EEC0DF078
:101B0A00050E1200BCEC0DF0000E1200BEEC0DF03A
:101B1A00010E1200BEEC0DF0020E1200BEEC0DF02A
:101B2A00010E1200306E30C0C9FF120018EC0BF023
:101B3A001200C59AC5881200C58AC5881200D09EAF
:101B4A0012009D861200C58012009D961200C69A48
:101B5A0012009E9612009E9612009E861200C9508E
:101B6A001200C5861200050E1200010E1200C5846D
:061B7A001200C5821200FA
:020000040020DA
:08000000FFFFFFFFFFFFFFFF00
:020000040030CA
:0E000000FF021F1EFF8B85FF0FC00FE00F4099
:00000001FF
